:020000040800F2
:10000000980B00209101000867150008B91100083D
:1000100065150008D3040008E5160008000000007C
:100020000000000000000000000000006B15000848
:10003000D504000800000000691500086D150008CF
:10004000AB010008AB010008AB010008AB010008E0
:10005000AB010008AB010008AB010008AB010008D0
:10006000AB010008AB010008AB010008AB010008C0
:10007000AB010008AB010008AB010008AB010008B0
:10008000AB010008AB010008AB010008AB010008A0
:10009000AB010008AB010008AB010008AB01000890
:1000A000AB010008AB010008AB010008AB01000880
:1000B000AB010008AB010008AB010008AB01000870
:1000C000AB010008AB010008AB010008AB01000860
:1000D000AB010008AB010008AB010008AB01000850
:1000E000AB010008AB010008AB01000800F002F80A
:1000F00000F03FF80AA090E8000C82448344AAF183
:100100000107DA4501D100F034F8AFF2090EBAE880
:100110000F0013F0010F18BFFB1A43F0010318473B
:10012000F473000014740000103A24BF78C878C13A
:10013000FAD8520724BF30C830C144BF04680C60ED
:10014000704700000023002400250026103A28BF35
:1001500078C1FBD8520728BF30C148BF0B60704739
:10016000642900F07D80002070471FB51FBD10B5C9
:1001700010BD00F074F91146FFF7F7FF01F044FBE2
:1001800000F092F903B4FFF7F2FF03BC00F09AF914
:100190000948804709480047FEE7FEE7FEE7FEE71B
:1001A000FEE7FEE7FEE7FEE7FEE7FEE70448054957
:1001B000054A064B70470000CF150008ED00000807
:1001C00098050020980B0020980700209807002031
:1001D0000FB41CB5074B06AA7B44694600900598EE
:1001E00000F025F90020694600F034F91CBC5DF8E8
:1001F00014FB0000790200002DE9F0410E46044690
:10020000002020622046E168884730B3252805D0C9
:10021000D4E901219047206A401CF2E7E1682046BA
:1002200000278847050018D0A5F14100192802D8F9
:1002300020354FF400673246294620462760FFF7F5
:100240008FFF40B1012804D0F61D26F007060836BE
:10025000D8E7361DD6E72846DAE7206ABDE8F08100
:100260002DE9F0410646002410687529314616A58F
:1002700010D0AFF30080002802DA404213A507E057
:1002800031688A0701D512A502E0490704D511A5F6
:10029000012401E0AFF3008000210A2206F12407C7
:1002A00009E0B0FBF2FCB0FBF2F302FB1C003030C3
:1002B00078541846491C0028F3D123462A46304674
:1002C000BDE8F04100F054B8000000002D0000002F
:1002D0002B000000200000004FF000020429C0F0B5
:1002E000128010F0030C00F01B80CCF1040CBCF168
:1002F000020F18BF00F8012BA8BF20F8022BA1EBBA
:100300000C0100F00DB85FEAC17C24BF00F8012B9E
:1003100000F8012B48BF00F8012B70474FF0000296
:1003200000B5134694469646203922BFA0E80C50EB
:10033000A0E80C50B1F12001BFF4F7AF090728BFC6
:10034000A0E80C5048BF0CC05DF804EB890028BF42
:1003500040F8042B08BF704748BF20F8022B11F06B
:10036000804F18BF00F8012B7047704770477047E7
:100370002DE9F0470D4699469246044600F12408BF
:100380000168880604D5E06921F01001216000E0D1
:100390000120A84201DD471B00E00027A1697A196E
:1003A00002EB0900081AA0612078C00602D420469A
:1003B000AFF30080002608E0D4E901211AF8060016
:1003C0009047206A401C761C20624E45F4DB207862
:1003D000C0060AD52046AFF3008006E0D4E901212B
:1003E00030209047206A401C2062381EA7F1010788
:1003F000F4DC07E0D4E9012118F805009047206AF1
:10040000401C2062281EA5F10105F3DC2046AFF355
:1004100000802078000602D50220BDE8F087012088
:10042000FBE7000001694A1C02610878704700B5CB
:100430008FB0CDE901310021059105497944CDE91D
:10044000031011466846FFF7D7FE0FB000BD00004D
:10045000E5FFFFFF0A6802F8010B0A607047754666
:1004600000F02CF8AE4605006946534620F0070020
:10047000854618B020B5FFF799FEBDE820404FF043
:1004800000064FF000074FF000084FF0000B21F07E
:100490000701AC46ACE8C009ACE8C009ACE8C0094B
:1004A000ACE8C0098D46704710B50446AFF3008034
:1004B0002046BDE81040FFF765BE000000487047C9
:1004C0003805002001491820ABBEFEE726000200D7
:1004D0007047FEE7704772B6FEE7000070B504464D
:1004E00000F0FEF80546601C02D004480078044481
:1004F00000F0F6F8401BA042FAD370BD04000020C3
:100500002DE9F84FDFF8B8910024A9F1040B234638
:100510000F2709F1040AABF1040EC9E00125A5403B
:100520002A40AA427DD1674ED1F804C0ACEB060840
:10053000B44532D014DCBCF1030F3AD009DCBCF175
:10054000000F2AD0BCF1010F1CD0BCF1020F31D139
:100550001DE0BCF1110F17D0BCF1120F2AD119E028
:10056000B8F5881F19D006DCB8F5803F15D0B8F56E
:10057000801F1FD111E0B8F5001F0ED0B8F5041F81
:1005800018D10AE0CB6815E0CB681B1D12E0CB68E0
:1005900008330FE0CB680C330CE08B682BB1012BD8
:1005A0004FF0080303D0456104E0042302E0056135
:1005B00000E00023FF2A01D8064601E000F104060E
:1005C0004FEA840501D9A5F12005D6F8008007FA85
:1005D00005FC28EA0C0803FA05F548EA0508C6F800
:1005E00000804D68ED0062D5374DAE6946F00106DA
:1005F000AE61AD6924F0030605F001050095334DA9
:1006000006EB050CDCF80850A607360F07FA06F8CB
:1006100025EA0805DFF8B880404503D14FF000080F
:1006200017E044E0DFF8AC80404502D14FF001080C
:100630000FE0DFF8A480404502D14FF0020808E047
:10064000DFF89880404502D14FF0030801E04FF0F9
:10065000040808FA06F848EA0508CCF808804D684E
:10066000D9F80060ED024D4601D5164300E09643EF
:100670002E604D68DAF80060AD02554601D516438C
:1006800000E096432E604D68DBF80060AD035D46E8
:1006900001D5164300E096432E604D68DEF80060F9
:1006A000ED03754601D5164300E096432E60641CA9
:1006B0000D682A46E5407FF431AFBDE8F88F0000B1
:1006C0000804014000001110001002400000014029
:1006D00000080140000C01400010014000140140DE
:1006E00001488068704700000400002070B50400D5
:1006F00025D094F83D00002520B984F83C502046D0
:1007000000F04EF9242084F83D002068016821F0B3
:10071000010101602068016841F400410160206826
:10072000016821F40041016000F088FA4D4A6168D7
:10073000914201D84C4900E04C49884201D2012045
:1007400070BD4B492368B0FBF1F15E6826F03F06AF
:100750000E435E606368934206D94FF49673594323
:100760004FF47A73B1FBF3F12368491C1E6A26F03B
:100770003F06314319626168914210D84900401E1A
:10078000B0FBF1F2521CC2F30B02042A01D2042086
:1007900022E0B0FBF1F0401CC0F30B001CE0A268AB
:1007A000F2B301EBC10303EB0116431EB3FBF6F3F7
:1007B0005B1C43F480431B0549D092B301EBC1029B
:1007C00002EB0111401EB0FBF1F0401CC0F30B0026
:1007D00040F4804040F400402168CA694CF6FF7341
:1007E0009A431043C861D4E90710014320680268A6
:1007F00022F0C00211430160D4E9030101432068E3
:10080000826848F2FF339A4311438160D4E90501BD
:1008100008432168CA6822F0FF021043C86001E063
:100820000EE016E02068016841F0010101602564D6
:10083000202084F83D00256384F83E50002070BDE0
:1008400001EB4106431EB3FBF6F35B1CB3E701204B
:10085000C2E701EB4101401EB0FBF1F0401CC0F3C8
:100860000B00B7E7A086010080841E0000093D0050
:1008700040420F002DE9F84F1F4690468A46044635
:10088000DDF82890FFF72CFF054694F83D0020285E
:100890007FD11923012240492046009500F01EFD1A
:1008A000002876D194F83C00012872D0012084F809
:1008B0003C0020680168C90703D1016841F00101CB
:1008C00001602068016821F400610160212084F842
:1008D0003D00102084F83E0000262664C4F82480E1
:1008E0006785608D20852D48E0622B464A4651463B
:1008F000204600F079FC90B9206841698069009039
:1009000036E02A464946204600F08EFD50B1206C64
:10091000042804D12068016841F4007101600120BD
:10092000BDE8F88F606A216800780861606A401C41
:100930006062618D491E6185218D491E89B22185C4
:1009400022685369DB435B070BD451B10078106117
:10095000606A401C6062608D401E6085208D401E74
:1009600020852A464946204600F08CFC0028CED13E
:10097000208D0028C5D154F83D0B016841F4007169
:100980000160202004F81E09E67766770020C7E79B
:10099000FFE70220C4E70000020010000000FFFF94
:1009A00010B586B000210091019102910391006879
:1009B0000F4988421AD10F4CA06940F00800A0618D
:1009C000A069694600F008000490C0200090122041
:1009D0000190032003900848FFF792FDE06940F47E
:1009E0000010E061E06900F40010049006B010BD52
:1009F0000054004000100240000C01400248816891
:100A0000027811448160704704000020074810B547
:100A1000016841F010010160032000F067F80F2029
:100A200000F006F800F024F8002010BD002002407D
:100A300070B50D4D04464FF47A712878B1FBF0F093
:100A40000A490968B1FBF0F000F0BEFA48B9102C71
:100A500007D200222146501E00F028F800206C60CA
:100A600070BD012070BD00000400002010000020B7
:100A70000C4808B5816941F001018161816901F08B
:100A800001010091C16941F08051C161C06900F06C
:100A9000805000900448416821F0E06141F000710D
:100AA000416008BD0010024000000140F0B40E4B50
:100AB0001B680C46C3F30223C3F10705042D00D9BC
:100AC0000425191D072901D2002300E0DB1E0126A1
:100AD00006FA05F1491E214099409E40761E1640B7
:100AE0003143F0BC00F0FFBD0CED00E0064900F022
:100AF000070208684FF6FF03184040EA0220034A45
:100B000010430860704700000CED00E00000FA059B
:100B10002DE9F0470F46050061D0434E306800F0E4
:100B20000700B84209D2306820F00700384330602F
:100B3000306800F00700B84251D128683B4C81076B
:100B400012D5400703D5606840F4E0606060287803
:100B5000000703D5606840F4605060606068A96871
:100B600020F0F000084360602878C00728D068684B
:100B7000012810D02168022810D0890700292EDA18
:100B8000616821F0030101436160FFF7A9FD804620
:100B900041F288390DE021688903EFE78901EDE72B
:100BA000FFF79EFDA0EB0801494502D90320BDE8EF
:100BB000F0876068696800F00C00B0EB810FEFD13E
:100BC000306800F00700B8420BD9306820F0070009
:100BD00038433060306800F00700B84201D001208F
:100BE000E5E72878400705D56068E96820F4E0600B
:100BF000084360602878000706D56068296920F4FA
:100C0000605040EAC100606000F028F86168084A5E
:100C1000C1F30311515CC8400649086006480068EA
:100C2000FFF706FF0020C2E700200240001002404C
:100C3000CE310008100000200800002004480549BB
:100C400000684968044AC1F30221515CC8407047FA
:100C50001000002000100240DE3100080E4A5168EA
:100C60000E4801F00C03042B11D0082B0FD10C48B7
:100C7000C1F38343C903C05C0AD55168084AC1F374
:100C80004041921E515C054A5043B0FBF1F0704761
:100C900004494843704700000010024000127A00E7
:100CA000BE31000800093D002DE9F84F040070D066
:100CB0002078C04DC00749D06868C0F38100012882
:100CC00007D06868C0F38100022809D16868C003B2
:100CD00006D52868800339D560680028E7D035E05C
:100CE0006068B0F5803F0BD010B1B0F5A02F11D0E7
:100CF000286820F480302860286820F4802002E0F2
:100D0000286840F480302860606890B1FFF7E8FC04
:100D100006460AE0286840F480202860F0E700BF1B
:100D2000FFF7DEFC801B642873D828688003F7D5A2
:100D30000CE0FFF7D5FC064605E000BFFFF7D0FC4E
:100D4000801B6428F0D828688003F7D420789A4E56
:100D500080074FF001094FF0000839D5686810F09E
:100D60000C0F07D06868C0F38100022809D16868B9
:100D7000C00306D42868800714D52069012808D14B
:100D800010E02069B0B1C6F80090FFF7A9FC074653
:100D900005E00AE1FFF7A4FCC01B0228C4D82868BC
:100DA0008007F7D52868616920F0F80040EAC100A3
:100DB00028600DE0C6F80080FFF792FC074604E0CB
:100DC000FFF78EFCC01B022823D828688007F7D4C1
:100DD000207800072CD57948A169D9B1C0F80090D6
:100DE000FFF77EFC074604E0FFF77AFCC01B0228F1
:100DF0000FD8686A8007F7D571484FF4FA51006838
:100E0000B0FBF1F0009000BF0098411E0091FAD2B3
:100E10000EE080E0C0F80080FFF762FC074604E0C7
:100E2000FFF75EFCC01B022875D8686A8007F7D4FC
:100E30002078400760D5E8690027C00008D4E86939
:100E400040F08050E861E869012700F08050009090
:100E50005C480168C90513D40168834641F4807178
:100E60000160FFF73DFC824606E000BFFFF738FC5B
:100E7000A0EB0A0064284ED8DBF80000C005F5D5C9
:100E8000E06801280AD008B1052813D0286A20F0AC
:100E900001002862286A20F0040002E0286A40F07D
:100EA00001002862E06841F2883B98B1FFF718FC26
:100EB00082460BE0286A40F004002862EEE700BF9B
:100EC000FFF70EFCA0EB0A0159455AD8286A8007A3
:100ED000F6D50CE0FFF704FC824605E0FFF700FCC6
:100EE000A0EB0A0159454CD8286A8007F6D41FB1F7
:100EF000E86920F08050E861E06988B36968C1F36F
:100F00008101022944D00228C6F8608004D0FFF78E
:100F1000E7FB044638E034E0FFF7E2FB074604E075
:100F2000FFF7DEFBC01B02282BD828688001F7D40E
:100F3000206AB0F5803F05D16868A16820F40030D0
:100F400008436860D4E908010843696821F4741112
:100F500008436860C6F86090FFF7C2FB044606E0ED
:100F600025E000BFFFF7BCFB001B022809D828685A
:100F70008001F7D51BE000BFFFF7B2FB001B022882
:100F800002D90320BDE8F88F28688001F4D40EE070
:100F90000128F7D06868226A00F48031914204D1B8
:100FA000616A00F47010884201D00120EAE7002055
:100FB000E8E7000000100240000042428004424284
:100FC000100000200070004010B5401EB0F1807F7E
:100FD00001D3012010BD4FF0E02460610F216017A4
:100FE00000F081FB0020A06107202061002010BDDF
:100FF00070B590F83C20012A26D0012480F83C40AE
:10100000022280F83D2003685A689D6822F070062D
:101010000A6832435A600D4B02689A4208D0B2F116
:10102000804F05D00A4B9A4202D00A4B9A4204D113
:10103000496825F080031943916080F83D40002104
:1010400080F83C10084670BD022070BD002C0140A5
:10105000000400400008004010B5040003D094F8DC
:101060003D0010B107E0012010BD002084F83C00D5
:10107000204600F01FF8022084F83D00211D206862
:1010800000F0A6FA012084F8460084F83E0084F8B7
:101090003F0084F8400084F8410084F8420084F85E
:1010A000430084F8440084F8450084F83D000020A3
:1010B00010BD000008B500680649884208D10648FE
:1010C000816941F400618161806900F400600090F1
:1010D00008BD0000002C01400010024070B504461D
:1010E00090F83C000025012817D0012684F83C60C8
:1010F000022084F83D002068826822F0770222F402
:101100007F4282600868502838D00DDC20284FD0FC
:1011100005DC90B3102811D14AE0022070BD3028C0
:1011200046D040280AD13BE060282FD070280DD04F
:10113000B0F5805F03D0B0F5005F12D0012584F8D0
:101140003D60002084F83C00284670BDCB68D1E9A2
:101150000121206800F072FA2068816841F077016F
:1011600009E0CB68D1E90121206800F067FA206826
:10117000816841F480418160E1E719E0CA6849680B
:10118000206800F06DFA5021206806E0CA684968BE
:10119000206800F076FA6021206800F059FACEE766
:1011A000CA684968206800F05BFA40212068F4E7CB
:1011B000226801461046F0E7FEE701684A69D2431B
:1011C00052050FD46FF480624A61002140F8301F4D
:1011D000202242738173026942F0040202610173AA
:1011E0000120704700207047F8B50446C06A1E46CB
:1011F0000D461746082807D0012805D010F5803F76
:1012000002D0206B122804D12068016841F480715B
:101210000160134600224FF001112046009600F0B5
:101220005DF840B120680068C00502D54FF4007039
:1012300020640320F8BD2069B0F5804F0ED0062051
:10124000216800EAD51040F0F000086133463A46C4
:101250000B49204600F08AF878B902E005F0FE005C
:1012600000E0E8B221680861054933463A46891F23
:10127000204600F07BF80028DCD00120F8BD0000FB
:101280000800010070B516460D4604461EE02046D3
:10129000FFF793FF08B1012070BD681C16D0FFF75F
:1012A0001FFA801BA84200D885B920684069C04356
:1012B00040070BD5002044F8300F20216173A07344
:1012C000216941F0200121612073E4E72068406931
:1012D000C0434007DBD4002070BD00002DE9F0477B
:1012E000984617460D460446C1F30746DDF82090A0
:1012F0002AE000BFB8F1FF3F26D0FFF7F1F9A0EBDD
:101300000901414502D8B8F1000F1DD12068012E16
:1013100016D0806925EA00000004000C12D00020DD
:10132000B84211D1002044F8300F20216173A0731E
:10133000216941F02001216120730120BDE8F0877F
:101340004069E7E70120EBE72068012E0AD08069B9
:1013500025EA00000004000C06D00020B842C9D0E5
:101360000020EBE74069F3E70120F7E72DE9F047BC
:10137000984616460D4604464FF000094FF0200AE5
:10138000C1F3074723E020684069C043400515D4F6
:101390002068016841F40071016021686FF4806089
:1013A0004861C4F8309084F83DA084F83E90216CE8
:1013B00041F00401216484F83C9021E0701C06D0C7
:1013C000FFF78EF9A0EB0800B04203D816B1012F49
:1013D0001FD021E02068012F15D0806925EA000088
:1013E0000004000C18D000BF44F8309F84F80DA012
:1013F00084F80E90216941F02001216184F80C905D
:101400000120BDE8F087406925EA00000004000CD7
:10141000EAD12068406901E02068806925EA00007F
:101420000004000CAFD1ECE770B516460D4604463B
:101430001EE02046FFF7C1FE08B1012070BD681C08
:1014400016D0FFF74DF9801BA84200D885B9206857
:101450004069C04300060BD5002044F8300F20211E
:101460006173A073216941F0200121612073E4E7D9
:1014700020684069C0430006DBD4002070BD000036
:101480000D4808B5816941F020018161816901F051
:1014900020010091816941F004018161816901F0BD
:1014A00004010091816941F008018161806900F0C7
:1014B0000800009008BD0000001002400D4810B563
:1014C0000B4901600C49416000214FF4804281606A
:1014D000C0E9031241618161C1610162FFF706F950
:1014E000002803D0BDE81040FEF7F5BF10BD000096
:1014F000005400401C000020A086010010B586B0FA
:10150000002417480094019402940394049413490E
:10151000059401604721C0E901144FF6FF71C0E94D
:10152000031444618461FFF797FD08B1FEF7D3FF10
:101530004FF48050009069460948FFF7CFFD08B18D
:10154000FEF7C9FF049404A905480594FFF750FD70
:10155000002801D0FEF7BFFF06B010BD002C0140EF
:1015600070000020FEE7FEE770477047FFF746BABD
:1015700030B58FB028216846FEF7D0FE14210AA8A6
:10158000FEF7CCFE01210804CDE9001000240294EE
:1015900002250491CDE907504FF4E0100990684608
:1015A000FFF782FB08B172B6FEE70F20CDE90A050E
:1015B0004FF48060CDE90C4002210AA80E94FFF799
:1015C000A7FA002801D072B6FEE70FB030BD704711
:1015D000F0B50268164B174C174D4FF080479842F4
:1015E00005D0B84203D0A04201D0A84203D122F0D6
:1015F00070064A683243984205D0B84203D0A042F0
:1016000001D0A84203D122F44074CA6822434C6935
:1016100022F08002224302608A68C2620A68826203
:10162000984201D10969016301214161F0BD0000C7
:10163000002C0140000400400008004010B5846800
:1016400042EA032224F47F440A432243826010BD0D
:10165000826822F070020A4342F0070181607047FD
:1016600010B5036A046A24F001040462846924F05A
:10167000F00444EA021423F00A020A43846102627D
:1016800010BD10B5036A046A24F010040462846972
:1016900023F0A00324F4704444EA023243EA011127
:1016A0008261016210BD00000D4900220B685A6280
:1016B0000A68136843F00103136009684A6A8242AA
:1016C000FCD3086A41F21112104207D1086A921045
:1016D000104203D1086820F0010008607047000044
:1016E00070000020FEE70907090E002804DB00F166
:1016F000E02080F80014704700F00F0000F1E020B7
:1017000080F8141D7047000010B5044600F018F969
:101710000121204600F09DFB0021204600F096FBB1
:101720002B49204600F082FB2AA3142200212046E8
:1017300000F012FB0121204600F088FB26492046DC
:1017400000F074FB25A308221521204600F004FBBD
:101750000021204600F07AFB1D49204600F066FB80
:101760001FA31E223321204600F0F6FA1DA31E22DD
:101770004321204600F0F0FA2F23232202212046A5
:1017800000F081F92F2324220321204600F07BF969
:101790000C2320222D21204600F0E6FA0C232122E2
:1017A0002E21204600F0E0FA0F49204600F03EFBD3
:1017B0000EA336220121204600F0CEFA204600F08A
:1017C0001EFBBDE810404FF47A70FEF787BE0000A4
:1017D0000B4E0008550000008A7000083800000019
:1017E00067000000B2000000E63100086769746815
:1017F00075622E636F6D2F6F6C696B726175732FDD
:101800007538673200000000A6B0FFF7FFF8FFF759
:10181000AFFEFFF735FEFFF771FEFFF74FFE68469C
:1018200000F074F8684600F0A5FA6846FFF76CFF10
:10183000684600F069F8684600F0C2FA0028F4D162
:10184000F0E700002DE9F0430A24264FDFF89880E6
:1018500087B0814626460425484600F071F82046A8
:1018600001F097FB00223B4601F00CFA00224346B0
:1018700001F0A6FB01F05EFB02461CA102A8FEF7E8
:10188000A7FC1C49484600F0D1FA1BA320221021D6
:10189000484600F061FA1B49484600F0C7FA02AB1F
:1018A00031226421484600F057FACDE90065A3B221
:1018B00028221021484600F05AF9CDE9006550234E
:1018C00028221021484600F0C5F9484600F097FA52
:1018D000A41C502CC0DD07B04FF4FA70BDE8F043F3
:1018E000FEF7FCBD0000544000005940256425254A
:1018F000000000009A3E000853544D333220553802
:1019000067320000C4340008FFF79CBF10B50446DE
:10191000084B094A094900F0D5FA204600F04FFF6C
:101920000021204600F05BFF2046BDE8104000F09B
:1019300007B80000D92B000881280008B073000800
:1019400001680A7C90F83810406B5143C900FEF7DB
:10195000C3BC2DE9F8438146089C1E46101980B28D
:101960000090881983B215468846484600F010FA60
:1019700000280ED00027002C0BD033462A464146C3
:101980004846009700F086F86D1C641EADB2A4B204
:10199000F1E7BDE8F8832DE9F8431C4680461019AD
:1019A000401C80B200900819401C83B21546101BE1
:1019B00082B20E46081B81B2089F404600F0E8F94B
:1019C000002806D023462A4631464046009700F0BC
:1019D0002FFBBDE8F8832DE9F8431C46804610191B
:1019E000401C80B200900819401C83B21546101BA1
:1019F00082B20E46081B81B2089F404600F0C8F92B
:101A0000002806D023462A4631464046009700F07B
:101A1000A1FBBDE8F8832DE9F041044690F8700081
:101A20001F4615460E4630B1012809D002280CD0B9
:101A3000032815D10FE0E16D20468847284408E0CF
:101A4000E16D20468847301A09E0E16D204688475D
:101A5000281A85B204E0E16D20468847304486B2FA
:101A60002846A4F86460A4F866003946002520469C
:101A700000F04CFD010003D0204600F077FC85B259
:101A80002846BDE8F08138B50024009400F002F843
:101A900038BD00003FB581B0044690F88C0008992D
:101AA00000283AD0BDF81000002836D0012811D9FE
:101AB000022902D0032907D00CE0BDF80820101A33
:101AC000401CADF8080005E0BDF80C20101A401CC1
:101AD000ADF80C0011F0010521D0B4F84810BDF8A4
:101AE0000800814219D8B4F84A10814215D9B4F8D7
:101AF0004E30B4F84C2004A90DF10C0000F07AFA35
:101B000000280AD00095206BBDF81030BDF80C20DD
:101B10008568BDF808102046A84705B030BDB4F868
:101B20004C10BDF80C008142F7D8B4F84E10814239
:101B3000F3D9B4F84A30B4F8482004A902A8DDE784
:101B400008B5B0F84C30934210D8B0F84E309342FC
:101B50000CD9B0F848308B4208D8B0F84A308B42E4
:101B600004D9002300930123FFF794FF08BD2DE95A
:101B7000FF4F83B01F46DDE910A402EB0A06B0B2A6
:101B8000CD19009090468946ABB2039800F000F959
:101B900000285CD009EB04001FFA80FB08EB04006E
:101BA00081B2281B401E85B2301B401E80B2CDE999
:101BB000010102200A460090234659460398FFF788
:101BC0000AFF01200090DDE9022023462946FFF7A5
:101BD00002FF0420009023465946019A0398FFF71C
:101BE000FAFE0820009023462946019A0398FFF741
:101BF000F2FE0BF101011FFA81FB0299381B491C0F
:101C0000001B80B289B20291032811D3801E86B2D4
:101C1000601C85B233464246594600950398FFF74B
:101C200098FE334600955946019A0398FFF791FEB6
:101C3000AAEB0400001B80B2032808D3801E80B2E8
:101C40000090DDE902203B464946FFF782FE07B0DF
:101C5000BDE8F08F2DE9FF4F83B01C46DDE910652C
:101C600002EB060A1FFA8AF001EB040900901746FE
:101C700088461FFA89F3039800F08AF8002867D095
:101C800008EB05001FFA80FB781981B2A9EB05006B
:101C9000401E80B2CDE90110AAEB0500401E1FFADC
:101CA00080F902200A4600902B4659460398FFF718
:101CB00072FE01200090DDE902102B46019AFFF729
:101CC0006AFE042000902B464A4659460398FFF7C7
:101CD00062FE08200090DDE902102B464A46FFF71D
:101CE0005AFE601B711B401B491B8DB20BF1010199
:101CF0001FFA81FA019980B2491C1FFA81FB03285F
:101D000010D3801E80B2814603463A465146761E65
:101D10000398FFF7B8FEB81982B24B4651460398B4
:101D2000FFF7B1FE032D13D3AD1EADB22B465A46BD
:101D30004146641E039800F017F808EB040081B2D6
:101D4000039807B02B465A46BDE8F04F00F00CB898
:101D500007B0BDE8F08F000030B4024C446030BCE6
:101D600000F0A2BA4528000838B501240094FFF716
:101D700091FE38BD10B5044690F8930010B120468E
:101D8000FFF7DEFD2046BDE81040002100F040B81E
:101D900070B50D461E460446B0F84E10B0F84C0023
:101DA000049B00F010FC002809D0B4F84A10B4F8E5
:101DB000480033462A46BDE8704000F004BC70BDC0
:101DC00070B5044600F08FFC94F8390094F8381090
:101DD0000844C5B22068407CA84204D8204600F0E0
:101DE000F6FC002070BD94F8930010B12046FFF778
:101DF000A7FD2946204600F00BF8012070BD10B564
:101E0000044600F070FC2046BDE8104000F0DFBC46
:101E100010B5044680F83910006B016820468847E9
:101E2000206B41682046BDE81040084710B50446C5
:101E3000806D884209D004F17400A16500F01EFC99
:101E40002046BDE8104000F059B810BD80F8701071
:101E5000704780F86D1070470149C16570470000F8
:101E60001F2300080021A0F85010A0F854104FF6CE
:101E7000FF71A0F85210A0F85610016B496808478E
:101E800070B5044600250498A565E362616384F893
:101E9000382084F8395084F86D5084F8915001212D
:101EA00084F8921084F893102063016820468847D4
:101EB0002046FFF7D7FF2046FFF7CEFF84F870508B
:101EC00070BD00007CB50C46009313460546084AD9
:101ED000084900F08CFC01A800F0CAFB0146064B43
:101EE00000949DF804202846FFF7CAFF7CBD00003F
:101EF000A9290008D12A0008E125000810B5816D44
:101F000000291AD090F9813080F88E3090F9822023
:101F100080F88F2090F88D1000290ED001290DD067
:101F200090F97E4090F980100C449C4201DD80F8CD
:101F30008E408A4201DD80F88F1010BD90F9831029
:101F40008B4201DA80F88E1090F98410F1E72BB102
:101F5000012B05D0022B06D0104402E0084400E01B
:101F6000801A80B27047401AFBE72BB1012B05D0D5
:101F7000022B06D0401A02E0104400E0084480B270
:101F80007047801AFBE738B50446B0F85600009059
:101F9000B4F85230B4F85420B4F850102046FFF78B
:101FA000F7FE18B3012084F88C00B4F84810B4F898
:101FB0005000814201D2A4F84800B4F84A10B4F8A5
:101FC0005200814201D9A4F84A00B4F84C10B4F888
:101FD0005400814201D2A4F84C00B4F84E10B4F879
:101FE0005600814201D9A4F84E0038BD002084F883
:101FF0008C0038BD30B504880D882544ADB2AC42A4
:1020000005D99C4202D25D1EADB200E014469C424E
:1020100001D2954201D8002030BD944200D214462E
:102020009D4200D91D460480281B0880012030BD38
:102030002DE9FF4FC3F1010083B006B2584291462B
:10204000DDF840A040008B4601271C46CDE9009AF0
:1020500000250FFA80F85B462246294615E0002E3F
:1020600008DB08F102000FFA80F8641E06EB080096
:10207000A4B206B26D1CBF1C3FB2CDE9009AADB24E
:10208000F01906B25B4622462946039800F005F88F
:10209000A542E4D307B0BDE8F08F2DE9FF4F83B030
:1020A0000E46DDE9108703EB060002901546A8EB0B
:1020B0000600019003EB05001C46F907A8EB050B91
:1020C00000900DD002981FFA8BF281B20398FFF7AF
:1020D00037FD019882B2009881B20398FFF730FD76
:1020E000B907A4EB060AA4EB05090DD51FFA8BF27C
:1020F0001FFA8AF10398FFF723FD01981FFA89F16F
:1021000082B20398FFF71CFD08EB0504390708EBC2
:1021100006050BD50298A2B281B20398FFF710FD15
:102120000098AAB281B20398FFF70AFD78070ED58E
:10213000A2B21FFA8AF10398FFF702FD039807B0D5
:10214000AAB21FFA89F1BDE8F04FFFF7F9BC07B05A
:10215000BDE8F08F2DE9FF4FC3F1010083B006B257
:1021600058429146DDF840A040008B4601271C46AE
:10217000CDE9009A00250FFA80F85B4622462946F1
:1021800015E0002E08DB08F102000FFA80F8641E4B
:1021900006EB0800A4B206B26D1CBF1C3FB2CDE92D
:1021A000009AADB2F01906B25B4622462946039862
:1021B00000F005F8A542E4D307B0BDE8F08F2DE9A3
:1021C000FF4F83B0164610980F46A0EB060B03EBAB
:1021D000070001901098DDF84490A0EB07009846A6
:1021E0005FEAC97103EB060A02F1010507F1010478
:1021F00000900FD00198ABB281B21FFA8BF2039816
:10220000FFF7B2FD0098A3B282B21FFA8AF10398D9
:10221000FFF7AAFD5FEA8971A8EB0707A8EB06069E
:102220000DD5ABB21FFA8BF2B9B20398FFF79CFD44
:102230000098A3B282B2B1B20398FFF795FD5FEAAE
:1022400009700DD50198ABB281B2109A0398FFF7CF
:102250008BFDA3B21FFA8AF1109A0398FFF784FD51
:102260005FEA49700ED5ABB2B9B2109A0398FFF786
:102270007BFD109A039807B0A3B2B1B2BDE8F04F4E
:10228000FFF772BD07B0BDE8F08F38B5C58F049C6D
:102290000094521BC46A92B2A04738BD38B5049C62
:1022A0000094FFF7F2FF38BD2DE9F0471C46914638
:1022B0008846064600F0E1FC00254FF6FF7772687D
:1022C0002178304690470346B84225D0641CA3F5D8
:1022D0007F40FE38F3D04A4641463046FFF79BFB2D
:1022E00096F8701031B1012907D0022908D00329CE
:1022F0000FD10AE008EB000104E009EB000106E061
:10230000A8EB00011FFA81F803E0A9EB00011FFA16
:1023100081F9284485B2D2E72846BDE8F08700203D
:10232000704710B50C4600F006F80122641EA2406A
:10233000801A40B210BD30B50568047B2A78E240AF
:102340006318DBB2082B09D36D1C05602D78C4F12E
:102350000804A5401543083BEAB2DBB201248C40D7
:10236000641E14400373204630BD00002DE9F8437D
:10237000054600F1600400F00CF915F96B6F20467A
:10238000E97BFFF7CEFF8146297C2046FFF7C9FF96
:102390000746697C20466B3DFFF7C3FF804694F9F2
:1023A0000A00002857DDF019404247B2237CA0887C
:1023B0003A464946FFF7CBFDA080237C3A46E088A9
:1023C0004946FFF7D2FDE080A188277C02460B46F4
:1023D00037B1012F0AD0022F40D0032F0FD146E092
:1023E00094F90A7030443B449BB207E0891B491CB6
:1023F00094F90A705B1C89B29BB2384480B2009099
:102400002846FFF7C5FC30B30020207284F809008D
:1024100095F876102046FFF78EFF814695F87710E5
:102420002046FFF788FF074600224946284600F06D
:1024300027F801223946284600F022F801212046DB
:10244000FFF779FF0028EFD194F90900B042DFDBF4
:10245000A07B85F892004046BDE8F88394F90A70A5
:102460005B1CC91B491C89B29BB2921B04E094F906
:102470000A7033449BB2D21B521C92B2401CBDE77F
:102480002DE9F74F84B00D46049C94F8687094F8D9
:1024900069806034A07AC01BC6B20196B54200D2F2
:1024A00001954FFA88F279B2A088B4F806B0237C7F
:1024B00092468946FFF74BFD0290237C52464946DF
:1024C0005846FFF752FD0246069808B1A17B02E08C
:1024D000607B50B9E17B049880F89210207C0090DA
:1024E000DDE901310498FFF7D5FAB54207D3A81BFF
:1024F000C5B208F10100002700F0FF08CAE778190B
:10250000207284F8098007B0BDE8F08F70B50D46E1
:102510000146806D1730FF2D10D8612D02D3B1F820
:10252000881003E0412D02D3B1F8861008444178A9
:1025300019B30278AA42F9D1801C70BDB1F88A1093
:102540000C1826460021304600F019F804440221F8
:10255000304600F014F8361DA842F3D34FF6FF7250
:10256000207802EA00216078084306D0A84201D111
:10257000E01C70BDA0780444F2E7002070BD084460
:102580004FF6FF720178407802EA0121084480B2D8
:10259000704730B5054600F16004016600202073E5
:1025A00015F8781F2046FFF7C6FEA072697820460E
:1025B000FFF7C1FEE072A87EA07310B10020E073A7
:1025C00030BD0120FBE78A4205D2834201D89A42FE
:1025D00003D9012070478342F9D8002070470000DA
:1025E000F0B502F007060124B440002590F892E00F
:1025F000E7B2DDF814C02C46BEF1010F01D83D460C
:1026000000D03C46076822F00702BCF1000F3F7C77
:1026100007FB02F7BAB2476B3A44114409D1087874
:102620005B1E284360401B0401F8010B1B0CF6D114
:10263000F0BD0A78761C2A436240A3F101030A70B8
:1026400016F007069BB206D06A06150E6206140E37
:10265000002BEED1F0BD428F114490F89220012A58
:1026600003D800BF4FF00105F2D04FF00104EFE7AF
:1026700008210170004870473801002070B50546F8
:1026800008782870487868708878A870C878E870EA
:10269000087928714879687188790C46A871E079C1
:1026A000E871207A2872607A6872A07AA872E07A5B
:1026B000E872207B2873607B6873A07BA873E07B43
:1026C000E873207C287411212046FFF758FF6882A8
:1026D00013212046FFF753FFA88215212046FFF75C
:1026E0004EFFE88270BD2DE9F843064690F8387039
:1026F00090F83950006800244FF6FF7890F8119058
:10270000316830462A460B7C716B04FB03FC1FFAD0
:102710008CFC08EACC0C61440091002100F040F8E8
:10272000641C6D1CE4B2EDB2BC4201D24D45E7D34E
:10273000BDE8F883F0B590F838204FF6FF750368D0
:1027400005EAC2018187197C05EAC101418790F839
:10275000394005EAC401C1875E7CA718B74201D998
:10276000321B92B205EAC20220F8401F1144418098
:10277000998A8180D98AC180F0BDFFF7DBBF002133
:10278000A0F84810B0F84410A0F84A10B0F8401073
:10279000A0F84C10B0F84210A0F84E10FFF7F3BBB1
:1027A0001CB58DF805108DF80620049C8DF80430BA
:1027B0000094012284686B460F21A0471CBD30B4F1
:1027C00084680023A44630BC1A460A21604730B40E
:1027D00084680023A44630BC1A461021604730B4F8
:1027E00084680023A4460A4630BC0B2160472DE9CB
:1027F000F04115460E460446069F00F009F8676151
:10280000A660C4E903532046BDE8F04100F012B8C9
:10281000002140F8081B064A026042608260C260E4
:10282000C17681770161FF21017780F82010704720
:10283000D52B000830B484680023A44630BC1A4667
:1028400009216047080001D00A2801D14FF6FF7026
:10285000704730B404690023A44630BC1A461921DD
:10286000604713B50122046901AB1721A0471CBDC5
:1028700030B404690023A44630BC1A4618216047CE
:1028800038B5184818290DD004DC142907D01729A9
:1028900023D10AE0192916D020291ED11FE0FEF706
:1028A0000DFE1CE00021017019E00F4C08E000BF94
:1028B000017813F8015B6554491C521E0170D2B2B5
:1028C000002AF5D10BE04FF47A7100910378064AA3
:1028D00078210648FDF7CEFF08B1002038BD012061
:1028E00038BD000000000020B80000201C000020BF
:1028F00030B4C4680023A44630BC1A46192160478E
:1029000030B4C4680023A4460A4630BC1621604790
:1029100030B4C4680023A4460A4630BC1521604781
:1029200030B4C4681346A4460A4630BC1721604739
:10293000F8B50C464FEA000514F8011B182924D0FD
:102940000EDC152919D0162917D0172923D1207884
:102950008DF800006A4601212846FFF7E1FF0AE0F2
:10296000192912D0FE2916D122788DF800202921AC
:10297000284600F066F9641CDEE722788DF8002016
:10298000EE6800232846B047F5E70023EE681A46B4
:102990002846B047D0E7F8BD30B4C4680023A44649
:1029A00030BC1A46182160472DE9F041DFF8B080AD
:1029B00014460646A1F11402002798F800001D46AF
:1029C000062A4AD2DFE802F02F03161B3E4310B15D
:1029D0003046FFF73EFF3046FFF74AFF0021304602
:1029E000FFF73FFF21463046FFF73BFF012088F805
:1029F000000029E021463046FFF733FF24E050B1C4
:102A00003046FFF726FF06E01821304600F01FF998
:102A1000183CE4B21835182C2A46F5D82146304621
:102A200000F015F90EE096F82400FF2802D1782076
:102A300086F8240037692B4622463046BC46BDE85E
:102A4000F041604788F800700120BDE8F08100285F
:102A5000F8D03046FFF7FDFEF4E70020F5E7000070
:102A60001400002070B50023456904461A46282149
:102A7000A8470023E5681A4614212046A8470122EA
:102A80004B21204600F0DDF82068292102792046FC
:102A900000F0D7F800224B21204600F0D2F8206841
:102AA00029210279204600F0CCF801224B21204652
:102AB00000F0C7F82068292142792046BDE870401F
:102AC00000F0BFB80160897C80F8221070470000D8
:102AD00070B50C46054600F019F888B9092C0BD0E2
:102AE0000A2C01D0002070BD2846FFF7BBFF054926
:102AF0002846FFF71DFF03E003492846FFF7E2FFE2
:102B0000012070BDE2730008E47400082DE9F04173
:102B10001E46144605460B2908D00D290ED00E2955
:102B20001ED00F2927D00020BDE8F0811AB1284916
:102B3000FFF7FEFE4AE02649491FF9E74AB124495A
:102B40000C31FFF7F5FE286890F8130085F8220095
:102B50003CE01F49491DFFF7EBFE2868807CF5E744
:102B6000FFF71AFF81212846FFF7D2FE21462846AB
:102B7000FFF7C6FE27E0FFF70FFF707995F82210E8
:102B800001EBC000C7B240212846FFF7C1FE10206C
:102B900040EA17112846FFF7BBFE07F00F01284651
:102BA000FFF7AEFEB07940F0B0012846FFF7A8FE6F
:102BB00030793268C006010E2846FFF7B1FE641E68
:102BC00014F0FF04F4D12846FFF792FE0120ABE792
:102BD000C17300080020704710B54D2919D00CDCD6
:102BE0002B2918D004DC292920D02A290ED114E061
:102BF0002D291FD04C2909D10BE0002250291DD0CE
:102C000051291BD0522919D0532917D0012180F8FE
:102C10002710012010BD00BFFBE700204FF4A0717A
:102C200000BF401C80B28842FAD3F2E70120FDF7D2
:102C300055FCEEE70520FEF737FDEAE780F8272090
:102C4000E7E730B444690023A44630BC60472DE96F
:102C5000F04115460E460446FFF70AFE4021204685
:102C6000FFF7FFFD27692B46324617212046B8475C
:102C70002046BDE8F041FFF7ECBD002180F82610AA
:102C8000704700002DE9C04130B4DFF8A0C23CEA33
:102C9000111418BF3CEA131400F0EC8081EA03051C
:102CA0001CEA111444EAD57418BF1CEA131500F08D
:102CB000C780A4EB05044FF0004545EAC12145EA71
:102CC000C32341EA505143EA525304F17F749942BD
:102CD00004F500344FEAC0204FEAC22208BF9042F8
:102CE00000F09C804FEA13650FF24016765D4FEAC4
:102CF000134506FB05F7C7F1807706FB07F74FEA98
:102D0000D737A7FB03687642C8F58038A7FB06CE05
:102D100038BFA8F1010807FB08E64FF0000EA6FB3C
:102D2000028CE6FB03CEDCF1000CCEF1004E38BF86
:102D3000AEF1010EA6FB0C584FF000074FF0000556
:102D4000E6FB0E87A1FB08C6A0FB07CE16EB0E061E
:102D500045F10005E1FB076515F1E04E7EBFA4F5E6
:102D600080345FEA46066D4116F1800745F10005A3
:102D70004FEA17274FEA066647EA0567A6F1DE46DF
:102D8000B6F1805F4FEA15251FD9384624F0010CB3
:102D900005EBC471BCF1FE6F01EB0C1102D8F0BC65
:102DA000BDE8008124425CBF01F5801E9EEAC47F1D
:102DB00002D4F0BCBDE80081244238D4F0BCA1F1BB
:102DC000C041BDE8004100F0F3B94FEAD22242EA27
:102DD00043524FEAD323A7FB02864FEAD02040EAB2
:102DE000415007FB03661EEA0E0F4FEAD12105FB97
:102DF000026658BFA6EB0056B6EB00564FEA520EDD
:102E00004EEAC37E18EB0E0E56EB530EBDD518EBF3
:102E100002085E417F1C55F10005B6E74FF48015AE
:102E20004FF000074FF000064FF00008ADE7F0BC90
:102E30004FF0000001F1C04101F00041BDE8008108
:102E400011EA0C1F0CEA131500D00CE013EA0C1F5A
:102E500000F025804FF00000F0BC81EA030101F092
:102E60000041BDE80081F0BCBDE8004181EA0301FA
:102E700000F09EB9F0BCBDE8004170B500F04AF921
:102E8000097EFC3E00F007B881EA03014FF0000024
:102E900001F00041704781EA030100F089B9F0BCFC
:102EA000BDE800414FF0000021497047FFFDFBF9EC
:102EB000F7F5F4F2F0EEEDEBE9E8E6E4E3E1E0DE6D
:102EC000DDDBDAD8D7D5D4D3D1D0CFCDCCCBCAC8DF
:102ED000C7C6C5C4C2C1C0BFBEBDBCBBBAB9B8B706
:102EE000B6B5B4B3B2B1B0AFAEADACABAAA9A8A8F9
:102EF000A7A6A5A4A3A3A2A1A09F9F9E9D9C9C9BC7
:102F00009A99999897979695959493939291919071
:102F10008F8F8E8E8D8C8C8B8B8A89898888878702
:102F20008685858484838382828181800000FF0777
:102F30000000F87F4FEA41034FEA5353A3F5806343
:102F4000D3F11E03C8BFD3F1210C0CDD4FF00042BA
:102F500042EAC12242EA505232FA03FC8CEAE17C96
:102F6000ACEBE1707047102BC4BF0020704703F535
:102F7000787CBCF1FF3F04D06FF0004282EA210070
:102F8000704770B500F0C6F8499224800020704761
:102F9000F2E710F0004248BF4042B0FA80F310FA66
:102FA00003F10AD0C3F11D0303F580634FEA4150DA
:102FB00002EB035202EBD12170474FF00000704743
:102FC000DFF848C170B51CEA111E1EBF1CEA1315BC
:102FD0009EEA0C0F95EA0C0F00F06F8081EA030463
:102FE00023EA4C134EEAD47E21EA4C1141F48011BD
:102FF00043F48013AE44A1FB024CA0FB0365AEF189
:103000007F7E361955EB0C05A1FB034C4CF10003F8
:10301000A0FB021C16EB0C06654153F100030942AC
:1030200018BF46F0010613F4007F0BD14FEA0331BD
:103030004FEA0530340341EA155140EA16506FF06B
:1030400003020AE04FEAC3214FEAC520F40241EA35
:10305000555140EA56506FF0020202EB2E4201EB4E
:10306000025585EACE710AD05FEA440C18BF24F0FD
:10307000004450F1000041F1000120EAD47040F218
:10308000FE7C624500D270BDA84214BF4FF0804460
:103090004FF04044002E08BF0024BEF1806FA8BF4F
:1030A000A1F1C041BDE8704080F282804FF0000085
:1030B00001F1C04101F0004170479EEA0C0F0CEA9B
:1030C000131518BF95EA0C0F06D04FF0000081EAE7
:1030D000030E0EF0004170BD00F01CF88900013EA7
:1030E00000F007B800F009B84FEA430C5FEA5C5CF7
:1030F00008D081EA030100F05BB84FEA410C5FEAB7
:103100005C5CF6D14FF00000014970470000FF07FA
:103110000000F87F0EF1020E2EF0030E5EF8046B35
:10312000364205D4012A43EB030515F5001F12D8DA
:10313000012841EB010C1CF5001F0CD80ED14FEA01
:10314000D17C15F5001F0CEB4C0C0CF1020C08BFE8
:103150004CEBD37C04E04FF0080C01E04FEAD37C49
:103160000CEB4C0526FA05F606F00706B6F1040C42
:1031700006D20EEB860CBDE870404CF0010C6047A7
:10318000DFE80CF0090B02024FF000414FF00000A5
:10319000A1F5002170BD19461046012851EB01042C
:1031A00018BFD4F5001484BF002001F0004170BDA9
:1031B0000808A0F500114FEA31017047010202032F
:1031C0000405060708090A0B0C0D0E0F101000006D
:1031D00000000000000001020304060708090000C7
:1031E0000000010203045F0002020303020404045E
:1031F0000600FF05FF05FF00EE01DC02C12005808F
:10320000CD002106E9C8AC00220693CB2415230A81
:10321000ACC8A434541A2A012409B3C7A5A1C148D3
:10322000092508ABC864D446012609ACC8C514AB4F
:1032300098022705D1CB082807F2C7A966002908FC
:10324000B2C7C45429002A07ABC8A46A352B08ABFF
:10325000C8C5B462022C0692C729002D058BCA0C82
:103260002E05C9C8042F07ABC85665043008ABC883
:10327000554355003107ABC825590D3207ABC8354A
:10328000531A3308ABC8CC94C1023408ABC82435F8
:1032900062013508ABC88CA8C1023607ABC84DD552
:1032A000023708ABC8CC5446003807ABC8ADD602CD
:1032B0003907ABC8B5E4023A06E1C8C4003B07AA27
:1032C000C765A8003C08ABC8A61A64103D069BC998
:1032D0006C303E09ABC86490412A013F09ABC86815
:1032E00090324C004007ABC82D1B084108ABC855B5
:1032F00043A9004208ABC8A8B4D2024308ABC855E2
:103300003255004408ABC8A8642D004508ABC88CF2
:10331000A8E2004608ABC88CA862044708ABC8CD39
:10332000A492004808ABC82435940A4907ABC8AC3E
:10333000580D4A07ABC896AA024B08ABC824B592F1
:103340000A4C07ABC8C4E6004D08ABC8A431940AC8
:103350004E08ABC8AAA124004F07ABC8555605506C
:1033600008ABC8A8B462045108B3C755560D025241
:1033700008ABC8A8B4920A5308ABC86D90C10254F8
:1033800007ABC8ACD8025507ABC824D7085608AB62
:10339000C8246BA4045708ABC82435860A5808AB68
:1033A000C824D552015908ABC8245556005A07AB5A
:1033B000C8CC540E5B06EAC8AC4A5C09ABC8C40C66
:1033C0003288015D06AAC8A86A5E0593CB355F0501
:1033D0008BC70C6006D2CBC4006107A3C82D95042F
:1033E0006208ABC84495D4026307A3C8CD0C04643B
:1033F00008ABC8A6A592006506A3C855536608ABDE
:10340000C8A6B462026708ABC7AD2417006808AB52
:10341000C84495AC006908ABC86524D3006A08B3FA
:10342000C766582E006B08ABC8C4B4920A6C07ABD1
:10343000C8C8D6006D08A3C8A4A154006E07A3C8CD
:10344000A864056F07A3C855AA027008ABC7A8B443
:1034500062047108ABC72D9564007208A3C8A41557
:1034600023007308A3C88D0C16007408ABC8A515FB
:1034700033087507A3C8242B097607A3C824AB0219
:103480007708A3C8243554007807A3C8A432157957
:1034900008ABC72495E4027A07A3C8CC94067B083E
:1034A000B3C7A6246B107C06E9C80C017D09B3C71D
:1034B0006410554C117E0794CB2595000000000444
:1034C000FFFF0000BF00030304040304050C0DFF0D
:1034D000FE08FE08FE0176034509B9200500CC0967
:1034E000210882C4894B8C002208336D8B884A00E6
:1034F00023128744BC483012324582919029128CA5
:10350000C4002410A53CAB58252209314524915A0A
:10351000080025198AC41D914C22894912252922A7
:103520004944128C486221492C2601261188C42C5A
:10353000A92428894A233291126522012706316D78
:103540008A01280CA4B4BA504822D2260B06290CB2
:10355000A4B48A604C498B280D002A0B555CAB94AF
:103560009449A610002B0A554CAB60A8140C012CF2
:103570000842B4098A04002D06135C8A012E062233
:10358000C409022F0C84C4BAA45828168AC5003076
:103590000B85449B89842F920900310984451BC9FE
:1035A000482F04320D85449B898422138962870148
:1035B000330E85449B898422125228920900340CD0
:1035C0008544AB95882432BA8906350C85448B83B3
:1035D00024C842914C00360D85449B89844691B0A5
:1035E000482600370B84448B432C140B6901380E9A
:1035F00085449B898422994858241300390D8544B9
:103600009B89844542A34826003A0752C409120107
:103610003B0872B4091245023C0856CC4B91B202E9
:103620003D0735548B6A013E0956CC0BB1922200FE
:103630003F0D85449B899A481407C944004014A94A
:103640003CBDA14C148D8428FA49228A43E42012FF
:103650000041108943CC38603C0D0943B2535032CD
:1036600022421087440C938A4852521149448708D9
:1036700000430E8744AC491A71AA180986280044F1
:103680001288C40C9B2C2493C82432894C228B981A
:1036900000450F86C40B8B282209912421514474C4
:1036A000461086C40B8B28228A4842244948460289
:1036B000470F8744AC491A712AAA4962A2490048B7
:1036C0001189440D0A452692894E32914C2493303B
:1036D000490984C40A8A482F044A0C86C42B9A508C
:1036E00045979068044B1189C40C925A4C14944429
:1036F0008B22990A69004C0B86C40B9A50A788E864
:10370000004D198B440E1A65368A4822A28824225D
:103710008A4822A29052486522214E1488C40CD9AE
:1037200044161A8528A10829348A496611004F0DCC
:103730008744AC598A8C9B24161B01500F87440C7C
:10374000938A48229294A4421A005114983CAC6186
:103750002C2493C824320945241152A21200520D80
:1037600088C40C9B48A7584DA48532530C86C49B33
:10377000255AB1469A4C00540C86C48B8B969050B7
:103780001B0500551388C40CCA4416928564215940
:10379000481692C54800561288C40CCA441692C5F1
:1037A000244149501215CB0057198B440E8A6422CC
:1037B000128594429288242489486293A14C28134C
:1037C00001581188C40CCA44169A04C7C3C82826D5
:1037D0009910591088C40CCA441693042551B12A73
:1037E00009005A0A86C48B9B6CB44D765B08A334DF
:1037F0008A8A7E195C0C84C48A5830168C05630151
:103800005D08A3348A897E295E0B6554AB606C1415
:103810004993055F0616340B03600723740A910071
:10382000610854C48A998462620D86C40BA116C9CA
:1038300084449A4C00630B55449B8968268A4C004B
:10384000640B86C4BBA1CA8965A200650955449B67
:1038500089E42024660D85C4AA89242222C99428DB
:1038600000670C8634CBD048A26966BB00680B8623
:10387000C40BA116C984C424690A84C41A9174A40F
:1038800085006A0AA3B41AB5892E14006B0C86440D
:103890000BA11609892451196C0884C48A91BE10A1
:1038A0006D0E5AC40D8948B24212914424056E0A25
:1038B00056C40B89644262126F0A56C41B8A884937
:1038C0004201700D76B40B896442225D843300712D
:1038D0000F77B49B8A482292484612A99000720939
:1038E00054C40AC9490900730854C49A12A902743D
:1038F0000973449A88A4A224750956C40B119789A8
:1039000002760C56C48B894A4812138A00770F59E5
:10391000448D892E21892426114A4400780B56C4EF
:103920008B894A4C165119790E76B48B894A481204
:10393000138A6642007A0955440B8B48C9007B0BF9
:10394000A4B42A89484526D2267C0781468B4300A9
:103950007D0CA4B40A99484D22D222027E0826DCAE
:103960009B896402A00500CC09A10882B4095AE42D
:1039700000A20E753CCB882522894C22A31800A3F7
:103980000F87442C922824B4096592CB0400A40F1D
:10399000574C8CC824A224114924914900A51088B1
:1039A000C40CCA44169304254269514A02A60781F1
:1039B000468B0901A70EA4B41AD24C12A144642369
:1039C0000A00A80823748A882400A91388C42C5AE2
:1039D00030129A484211495034498C9100AA086328
:1039E000540A592536AB0B56C4AB1409452411258E
:1039F000AC0735548B6202AD06135C8A01AE1488A5
:103A0000C42C5A3012A1484211C948129124C64808
:103A100000AF0614F40A02B00943649A14490A007C
:103A2000B109554CAB50290E28B20843E49949CA54
:103A300000B30843E489496C02B40723741A0A00EE
:103A4000B50A76B40B11170B5108B61187449CC305
:103A50002442094D82916024188915B70622DC0999
:103A600002B80732358AD000B90843E49988283271
:103A7000BA0A64D41A4948149112BB0E56C48B502A
:103A80004822925024A11000BC1388C49C58489628
:103A9000149B8443C1882C428A4500BD1288C49C73
:103AA000584896149B8443B248522C6900BE138830
:103AB000C48C512C3112138543C1882C428A450095
:103AC000BF0D85342B991C145293482600C014B99D
:103AD000432C39448E16078CA7216148760A4A4642
:103AE00004C113B9435CB11C290E184F43C290ECBA
:103AF00014948C08C214B943BCA9448E12078CA735
:103B0000216148760A4A4604C315B9433C4930222C
:103B1000478A03C6D39030243B05252302C415B938
:103B200043BC483812478A03C6D39030243B05254E
:103B30002302C515B9433C71282C87C401E36948A9
:103B400018929D82921101C6168AC4AD432C228A16
:103B50004524B110AD128A89223111C500C710A7C2
:103B600034AC491A71AA18098688511900C812B6CE
:103B7000C41BA91C62114524219224248A880EC9E1
:103B800011B6C43B75884514918448929028223A16
:103B9000CA12B6C4AB91446C114524219224248AE4
:103BA000880ECB14B6C4AB482C1207584411498870
:103BB00024098922A203CC0BB4C40A999422D20B03
:103BC00001CD0BB4C42A899422D20B01CE0CB5C40A
:103BD0009A892A49A6270A00CF0AB4C49A1C292226
:103BE000BD10D01188C40C9B2C2433496412994415
:103BF000163101D118B8C43C492C2287C926B2D04D
:103C00002844094548A1514C328B00D210B7442CAE
:103C1000B11C384B917193C4622300D310B7443C5C
:103C2000A11C3A4B917193C4622300D411B744ACE8
:103C300099440E9BA5C8B84962B11100D512B7448A
:103C40002C49282207CE5264DC24B1D80800D612B1
:103C5000B744AC48301207CE5264DC24B1D8080017
:103C6000D70A554C0B8964169B28D8128744AC4957
:103C70005A445489502225492C121901D916B8C426
:103C80002C39400EA44C6421594816928564215960
:103C90008C04DA16B8C44CA91C4899C842B2902CBE
:103CA000240BC942B2180900DB16B8C4BCA1440EEB
:103CB000A24C642159481692856421598C04DC1762
:103CC000B8C4BC483412875126B2902C240BC94288
:103CD000B2902C4602DD12B8C44CA91C4899C862A7
:103CE00092A0242A562501DE0F87448C6949452479
:103CF00011494A421A00DF1087442C928A48A2A434
:103D00002292882A1200E00A84C40A997426A11813
:103D1000E10A84C42A897426A118E20E95C4AAD89F
:103D20004475289A44241400E30C85C41ACD43D169
:103D30002422A100E40A84C48A48D6998462E50C4E
:103D400084C41A49282299492806E60E58C48CC909
:103D50002424911C24B20901E70D75349B8968263F
:103D60008ACC622200E80C85441BA11C30911C8483
:103D700004E90B85442B75C844721012EA0C954473
:103D8000ABD8447922390809EB0D85449BA4481C23
:103D900030911C8404EC0A84C40A9974A48500ED53
:103DA0000A84C42A8974A48500EE0B95C4AAD84459
:103DB00075A68902EF0A84C48A48D6911602F00ECD
:103DC00086C40B516894461131492800F10D86C410
:103DD0001B498A1CA232213109F20D86C41BA91C81
:103DE000441131492800F30C86C43B751045C424A6
:103DF000A100F40F96C4ABE048228750444C120A4D
:103E000000F50E86C42B498A1C421131492800F660
:103E10000E86C49BB4481C441131492800F70A554A
:103E20004CAB38A00E0801F80D76BCDB08456221CA
:103E300049285100F90B86C41BA91C22E23251FA11
:103E40000B86C43B758888CB4401FB0D96C4ABE060
:103E500048220788B84C14FC0C86C49BB4481C222A
:103E6000E23251FD10A6B43B75C8442524890945AA
:103E7000332100FE0EA6B40BA116C98444BA08670C
:103E800000FF11A6B49BB4481C325109496242D1CB
:103E90004C0800000004FFFF0000BF0003030505FD
:103EA0000405061213FEFD0CFD0CFE023805110F71
:103EB00054200600642401210D83252C133954421B
:103EC000D1882502220CA5E0352161194542110057
:103ED000231A8A215427128A8422D1417210298AF6
:103EE0004407C941A428128A6400241DE9E153193A
:103EF00087846B9250441429A5188F9650A81222DB
:103F000085249288AC1C0425258C2574350B4E889D
:103F1000A2485016098A22515124329A4426D18847
:103F20002818910523A26048148C8D00261D8C252D
:103F300074490788C422B1280EA0034814C9483226
:103F40009A8464B4A592A534012708A2E425718956
:103F500000280EC4A533170AA988F4269205032960
:103F60000FC4A133118C896422BD884469002A11D1
:103F7000E76045178CA44822A2912422C918032B7C
:103F80000D08255427563B1C646235002C0CC46078
:103F90002B23A18C429218002D0744E02C71082E8F
:103FA0000964202C23A148002F0F85212C99164C41
:103FB0000BC68269C1200030148921543795C894FA
:103FC000649299B7894C245391CE00310A872554C5
:103FD000272AEE9F0E3213882554458B4946A64961
:103FE0006C38D516111E0E03331589215455132D27
:103FF000C9626269790E98C84E13D1AC0434158930
:1040000021541D0788A7C4C830320B8D62A383706A
:104010003C3C35148825547331C50171402D349EC4
:10402000C44CA6D2A804361689215457134D441403
:1040300099643C1951D66C13D964910437128825C0
:1040400054F110094A82926058552C5D0E023815C1
:1040500088255445134946A68948461349464E13B8
:10406000918C043917892154459CAC4966B6C984A2
:1040700034194F6412926424AB013A0D04212C23AD
:10408000A1C861128A04003B0F64612B23A1C8619F
:1040900012CA282489013C0B0865542D24319299B9
:1040A000053D0BC86454F120473A1C043E0B0865DB
:1040B0005421E6486214033F1488214445134928DB
:1040C00013D1702A8DA384A7E32000401EACE163C6
:1040D000599D8DE480504C12214944FA178A64128C
:1040E0000AC96272806836AD01411C8D216C2B07B4
:1040F000CE6173101D1499032473406C7A88CAA68C
:10410000D199744433421A8C216C7118CE1647C36E
:10411000D16C7608CE1647C3D170349B1C46004341
:104120001B8B256C5909CD2653C9980EA043E690E8
:104130003920328E4C6333290D00441A8D2174715D
:1041400010CF866BC3D974341D4D47D3D170369CC4
:104150002D1D840045198B216471200D4543D12804
:104160006922B54EA4A3A46968281A1E0C46198BAF
:10417000216471200D4543D1286922B54EA4A3E8DE
:104180001C32878C8F00471B8D25745909CE5665CC
:10419000E3D01C109AC36687E96C381B2E91492125
:1041A00000480F8E217C71310DF7E361B8FF743147
:1041B000490A87213C711AEE9F0E4A188A215C77C2
:1041C0009D03E68039600E98894694D15270241A76
:1041D00016014B1C8E216C71A90DA533F1480E9868
:1041E000C82177C01D30218FA833E29072314C195D
:1041F0008B2164719E43E69039640E9943E6906981
:10420000681A1A8A8607034D259021846134118922
:10421000911931328A0C23A3C83034890C43A4612C
:1042200088348C8D8631D9306D540A194E1E8E21FA
:1042300074412D8D83D4603185160C9182314A30C2
:10424000588C12C3C33840540E014F168C25744944
:104250001ECD86A3E164EC79321C0D67A3311100F9
:10426000501A8C216C7118CE1647C3D170349B1D27
:104270008273D01C3407CD015700511EEC65734981
:104280001ECD86A3E164EC493491842222B6D1B8D4
:104290000E9BC40175C80400521B8D21747198CE09
:1042A000866BC3D9E2213A128FA6B3E16C129A1D34
:1042B000681300531489255C5549AC926D11A325F0
:1042C00066A6162391120054198B21647130ADCD6E
:1042D00064B3E01C3287CC2173C81C32878C4F003A
:1042E000551B8E2174712A8D83E3E038380E8E833E
:1042F000E3E038388E0EC32439840A561D8D1D6CB8
:1043000071224D65C4E8303A8B034671C0240EA972
:1043100083E8A039500E940257228F21845161996D
:10432000E9161C8D82A3897042094B229230853C8C
:104330009A436472884C0E910901581A8C21645179
:10434000AA4C65C3E8285C87D021744839440CCE58
:10435000A4935201591C8D1D6471290DA5B3F02839
:104360000E99C42174D81C3687CD6173D81C720392
:104370005A1489255C71201227C1E9F27416194676
:1043800066B543015B09C4A53361D2FF445C108765
:10439000255421154BC552B1542C154B055D09C44C
:1043A000A53B41D2FF645E0DE864552796D2445A7E
:1043B0008444015F0748A043F1206008646036210F
:1043C0009A096111092154635A910D4BA2C96832AF
:1043D000214D08621B8B1D5C5187CC2173C81CB218
:1043E00048992DCD46B3D16C449945222300630EE4
:1043F00008214C551A95AC6B92898C04641A8B2158
:104400005C4B87CC2173C870329B9066A3D9683609
:104410009AAD102791016510092154559BAC1D0ED2
:10442000E1A164242B016610891D3C49948C26B2BD
:10443000E171BCC7130067148961530F105DB6D9D1
:104440002EA3A21C7039100F140068198B1D5C413B
:1044500087CC2173C81C32A19146A4B5D16C341B02
:10446000CD260D690C8521342322C901A47D296A3A
:1044700010E6593327A3C921B57DAB544423006B03
:10448000178B215C4187CC2173C81C3229AD4D8626
:10449000D6E368B6D2006C0985213441DA7F296DF4
:1044A000100F21844119CD2894D1FE7FA94C0A6EAA
:1044B000120B1D5C41A191D646B3D16C341BCD26A5
:1044C0000D6F0F0A215C471C4D861E27A3210D008E
:1044D00070186A5D5B41995146B3C96C329BCC261A
:1044E00094D16436078CAB0071166A5D535509ADE3
:1044F000CC26B3C96C321BADDD0173C0B800720E9F
:1045000009214C4119519644E3AD4500730D072133
:10451000444399D54EB7DA8402740F66213C170DD7
:104520008A2CB35D22A5090075140B1D5C4122CDB8
:1045300046B3D16C341BCD46145A650076130A215C
:104540005451A1CC4423E144380993E7102100776A
:10455000180F217C516199A98D46C109454A215303
:10456000E800991C221302780F09215451598B55E8
:10457000C7D35A6C322979176A5D5351A1CC642391
:10458000D9285A9E03E610A9243A094F017A0F0749
:10459000214C71104942B3A170443A087B0DC4A567
:1045A000332511E92213E94D007C08823154F16171
:1045B000007D0DC4A1332113E92611E945047E0CC9
:1045C00068E454338A1C22A10900A0060064240177
:1045D000A10D83652B13B1444391432502A2158895
:1045E000A1530F08C74AA3924B6C128A8C62C47005
:1045F0001800A317892154571B494693D164161BF1
:104600005EE500294D62928C00A41508A554139113
:10461000440E119144489488248748441201A515FA
:104620008A215451A1CCD48213A9244C358BCD724C
:1046300088D804A60982315471181E06A718E665A9
:104640004B350A494212A98C121BCE2234A94414BC
:1046500011854600A80845603621A108A91C8C21B7
:1046600064671DCDC4125185220A8DC422F14424F1
:1046700021912462D9686A03AA0EE66035330A895B
:10468000284A12710500AB0CA6A4449522A18824E7
:10469000A204AC09A8A054F120D600AD0744E02C38
:1046A0007108AE1C8C2164671DCDC41249899434F5
:1046B0001BCA22B25148429954C4B2D1D406AF06A3
:1046C00025A03651B00CA5E43D3391CC26920900CB
:1046D000B10F28255427961D0E32B11C783808B228
:1046E0000CE5603533095164690701B30FE66035A5
:1046F0004311494232518824A100B408646436252C
:104700002901B5196B615B4122CD46B3D16C341BD5
:10471000CD46149264450E9A43E600B61B8B216485
:1047200073388444255149549291A422A9482A926D
:104730008AA422D96100B70964E02C23A14800B8FB
:104740000984603313935500B909E464351519E9F8
:1047500042BA0BE560353391B048C605BB0EA6A43E
:1047600044110A4944128A241402BC1B8C25741576
:104770000E4D6542C5A84C2A4BA188A4A2692851B8
:104780006292CAA204BD1C8C2574150E4D6542C5EB
:10479000A84C2A8B4C2823A144311A140685A46006
:1047A00001BE1E8D2174430DA9C942CAB2684822B8
:1047B000144962218A482C1A87522536A9304ABFEB
:1047C00014886143199E8EE32851E970249950445E
:1047D000321200C0220D226C2707CEA1726C72E04B
:1047E0001C3607D1419139403207C4A687A86C1AFC
:1047F0009D49473403C1230D226C0F90C3E6203935
:104800003639700E9B83E8A0C81C20990362D343FD
:1048100054368DCEA4239A01C2230D226C1D07CEDF
:104820004112391639700E9B83E8A0C81C209903E9
:1048300062D34354368DCEA4239A01C322ED216C5A
:1048400039890322734C72E01C3607D141913940FB
:104850003207C4A687A86C1A9D49473403C422EDC9
:10486000216C27920344722C72E01C3607D14191CF
:1048700039403207C4A687A86C1A9D49473403C53E
:10488000230D226C2B8745E430393639700E9B831B
:10489000E8A0C81C20990362D34354368DCEA423CC
:1048A0009A01C621901D8477B016A591A134324A91
:1048B0000C4DE480903936119F324E43C1A14438EB
:1048C000B41C08C720EB656B5909CD2653C9980E57
:1048D000A043E6903920328E4C6333291D2087C9CE
:1048E000015300C81E0B22642707CD61729403692F
:1048F000281A8A464913A975221D254D4343D1F034
:1049000060C91F0B22640F9043E60039CA8134143A
:104910000D45A3A489D43A918E92A6A1A1687830BE
:10492000CA1F0B22641D07CD011239F8401A8A866E
:10493000A251D2446A9D484749D3D050343C18CB49
:104940001DEB216427928AE4E00369281A8A46490C
:1049500013A975221D254D4343D1F060CC0E0722CB
:104960003C231DCB41A7E1FEE900CD0E07223C29E7
:104970009CC961A7E1FEE900CE0E07223C179D49C4
:10498000E490D370FF74CF0EE7213CA32491434EF3
:10499000C3FDD301D01A8D21747110CF866BC3D99A
:1049A00074621B4D47D3D170369C2D1D8400D124D9
:1049B000EE21743B89432273546A691CA4068B2937
:1049C000B46088148C5182C16294181EC601A27210
:1049D0000800D21B0C26742787CD81720CE4D16CA1
:1049E000381A4EC69E27C3D170361A1301D31C0C39
:1049F00026740F9083E6103906F268361C0D276383
:104A0000CF93E168381B8D8900D41C0C26742B07CA
:104A1000D10122392A79341B8E8693B1E7C97034CB
:104A20009C8DC64400D51AEC2574390947E6C8E4C4
:104A3000D16C381A4EC69E27C3D170361A1301D6D0
:104A40001AEC257427128BE4A8E4D16C381A4EC6F0
:104A50009E27C3D170361A1301D711082554138C21
:104A60008C26B6F1CC329A042300D820CCE5730F03
:104A70000C9262A3D970349C0C23B6902966094E1F
:104A800086A3E16C340B11E34000D9210E22742B74
:104A900087CEC172D453691C1C07C7C171701C1C1E
:104AA00007C7C171741826C9215400DA220E227476
:104AB0000F9203E73039EAA9340E8E83E3E03838E9
:104AC0000E8E83E3E0383A0C93E4102A00DB220ECA
:104AD00022740F9003E92075B453691C1C07C7C1E9
:104AE00071701C1C07C7C171741826C9215400DCE1
:104AF00021EE21742B92434472B453691C1C07C7E6
:104B0000C171701C1C07C7C171741826C9215400DB
:104B1000DD230D1E640F91C3E62039E2A53494CE47
:104B2000C2A338641287D06173D81C3687CD6173F5
:104B3000C80D00DE1A8C216C7107CC4187E06C71C6
:104B4000341C0D47B3D9213807CD015700DF178A30
:104B500021545714ED936C329B896693D96436A126
:104B60004C282300E0168921542307CC217204D35A
:104B70008A6C58124D4693096942E1158921542BDC
:104B80009ECA114C2BB2614934194D26A40901E289
:104B90001689215417074C2572B06945362C892691
:104BA000A3C9843421E315692154358945E660D3CE
:104BB0008A6C58124D4693096942E415692154A341
:104BC0002891834D2BB2614934194D26A40901E582
:104BD00016892154278E88E508A615D9B0249A8C09
:104BE0002613D28400E6160D217C53212D4964A39F
:104BF000D181229A8E661592885202E71368614B22
:104C0000551A956CD5996422A3CA01C21900E816F9
:104C10008921542507CC217284DA64ED70080F25B0
:104C200023590900E9148921542B9ECA516A93B56E
:104C3000C3213C948C642500EA1589215419074C42
:104C40002572706DB2763884879291AC04EB156949
:104C5000215425114AE4E0DA64ED70080F25235948
:104C60000900EC0B852134211B8A49FB52ED0C8590
:104C70002134279AC801A47D29EE0C852134159B87
:104C8000A892F6A500EF0B65213421A14849FB52FB
:104C9000F015A9215C23874C8453891C302C4D6E60
:104CA000DE268B3300F1176B1D5C398946E608144C
:104CB0001A696D341BCD46B3D16CD200F2148A212F
:104CC0005C2787CC417214DB6832F43819CD4C0074
:104CD000F3138A215C2D078CE548B6D164E8713264
:104CE0009A9900F4148A215C290750457204DB6804
:104CF00032F43819CD4C00F5136A215C370946E6C9
:104D000028B6D164E871329A9900F6136A215C25BD
:104D1000914AE428B6D164E871329A9900F70E08F6
:104D200025542796030F0739502C03F81989A153EE
:104D30000F890382B4916474895822A78968468CCC
:104D400003E21000F9198B1D5C2707CD6172141264
:104D500069369A8D66A3D96836A2D02A03FA188BD1
:104D60001D5C2D87CC017224A6D968369A8D66A366
:104D7000D98842AB0CFB1A8B1D5C1B07CD01123985
:104D80000289341BCD46B3D16C341B51689501FCAC
:104D9000186B1D5C27114BE40824D26C341BCD46E4
:104DA000B3D16C44A15506FD1FEB5D532D87CC019B
:104DB00072A44A65289B4545D2491C4007CC4162F4
:104DC000497812078C01FE1FEA5D5B4107CC017335
:104DD000C01C30995146B3C96C329BCC2694D16427
:104DE00036078C8D00FF1ECB5D5327114BE40895D1
:104DF0009250368B8AA49338800E9883C492F02404
:104E00000E180300000004FFFF0000BF02050405A8
:104E100006010406152600F918FA19F904E20AAF8A
:104E20002262200BD51CF587FFFF7F17002119D5C3
:104E30001CF587532316588BF417879CFB001168C9
:104E40009E0D920F2F002224D51CF58743A2884582
:104E5000065164104506516410450651641045061C
:104E60005164104506F9F0FF13002343D51CF58764
:104E7000EB838C3506596390350659638C45C638EB
:104E80000F8CF1C018171A83AC31C81A83AC31C625
:104E90002263A007C478608C07C61964AC31C81AB5
:104EA00083AC31061B632C32C622637C78243BD54D
:104EB0001CF5875B2412689A520C91900C1144885F
:104EC000430411011141560984654D6B8925464201
:104ED000594490450431811041CA182490F2403061
:104EE0002EAD5622F56114002541D51CF587DBE473
:104EF00010720A298810A204294490500A11241023
:104F0000E3100A049D4016110412582015956AA852
:104F10001D344821810C524820831022C820848CE3
:104F20004448398598F2E136002641D51CF587EBD7
:104F3000E521A65411441142122124114212216389
:104F40001141186AC799861A09848842061145904A
:104F5000420219A42042CC21E494428C3145A4F2AF
:104F600080286990534CF8701B002710D51CF587DA
:104F70005B4292487F1FFE7F06002823D51CF587E1
:104F80007B2396675C793548450A92487F924412A4
:104F90004B24B18A241A686289448A02002925D5E3
:104FA0001CF587BD210BB46215492C914812294983
:104FB000227D90440A125820058BB35E8143860FF0
:104FC0000E002A29D51CF5879F2591B6C620439847
:104FD000128628E40161DC2AD038C488208A0C9229
:104FE0000A218898A1C2111F7E14002B18D51CF528
:104FF000875F2091BEF580200F08F2805024D2F701
:10500000E177012C15D51CF587FFFF9D110B34CFDF
:10501000C012499C228963012D0ED51CF587FFCD56
:1050200067BE0FFF97002E11D51CF587FFFF228169
:10503000E659907CB805002F29D51CF58783818E11
:10504000484112491C91C411294822812412482246
:105050008124124822812412482281448E0FDB00D1
:105060003044D51CF587078A4B6B25134A22851CD3
:10507000628A21A618524C21C614524620849021DF
:105080000821630C42C81883102206A1C228841C80
:10509000434A31C414434C31E49042900926AD9503
:1050A0005CF9F0003116D51CF58717C8330D2DC5F6
:1050B00048202C1012E9FFBF0F0F3221D51CF587B5
:1050C000F3C625C55211E61043904024D22089042E
:1050D000D25E05E9E250C1FC3E9C063328D51CF5A2
:1050E00087F3C525C55211260953220D9276186AF9
:1050F000A8A558451A0A889C61C831C220A6543315
:105100001F5E00342FD51CF587474624B07AC65D54
:105110006D04C248206C08B2C6206B0CA20621891F
:1051200010924621E881501E08E581E048A4F7E18D
:105130003A003525D51CF587D3EE788744BAB814E4
:105140004B0D9152CE3844924867C621861C624E60
:1051500038A7A5D5CC87073635D51CF587078A4BE8
:105160006B25130A2A45241247A482510D35644643
:1051700039A590431972882187187288218732E4F3
:105180009042521125AD955CF9F002003721D51CF3
:10519000F587D3EE7871441247A4E288248E48C57F
:1051A00011A938220549A42089E4C323003839D540
:1051B0001CF587F3A629C552110591520E31E41052
:1051C000430E31041142521164A58618094511425B
:1051D0001031141A86205208228520528A21C708CD
:1051E000839852CD7C783935D51CF587F3C5A5B5A4
:1051F00092092591420E31E450861C62C821861C1A
:10520000624A29A70C731C6ACA0412A9382249A24F
:10521000905482416CA5663E3C01003A16D51CF5BF
:1052200087FF1A81E659907C788940F32C483EDC50
:10523000023B1CD51CF587FF1A81E659907C7869E2
:10524000C402CD33B04412A748E29881013C1BD57B
:105250001CF5879F0A72C0E20EBBE70A34F0820693
:10526000DE6089648A0F0F023D1BD51CF587BFFDE8
:1052700080200F08F280F830F880200F08F280F8C4
:10528000F02F023E19D51CF5872F073A6481E8E11B
:105290007B5633EDB03B671E89E2C3073F25D51C23
:1052A000F58753A529C59011E610439040040544A5
:1052B0002205092CAF8254A43E240934CF82E4C3D2
:1052C000034043D51CF587074C538A2123CAA10A02
:1052D00049A30C83C8206A0CB2C6184690314421F9
:1052E000640C410A19439042C61084943146096601
:1052F00010C1C8188B9051022144967804494C2D56
:10530000763E5C074138D51CF58717C21C728A05AA
:105310001668DC08C38D301A09848D31D818449181
:1053200041D4284331D4903BE310430E3123114242
:105330001221449131161164910F9701423AD51C04
:10534000F587CB4B35E40E21C790530A41A4104496
:105350000A41A490430C21C7B8D3D033E49442103F
:105360002924114212212411421221049142CA29F6
:10537000CFB8C33E9C07432AD51CF587078A53A99B
:105380009D238C29869482082149180249A49F24D0
:1053900091C482C429869823CC694A35F3E13C0044
:1053A000443ED51CF587CB4B35E40E21C710530C7A
:1053B00039A510440A41A4904408498490440849FE
:1053C00084904408498490440849A310440A41A4A5
:1053D00090430C31C510624E432CA90F2F0045227B
:1053E000D51CF587CB0F84F240280F8442227DD153
:1053F0001DEF9048BFF840280F84F240F8701A0063
:105400004616D51CF587D3CF7C8644FA62431D220D
:1054100091FEFBF00C004732D51CF587078A4BAA9A
:105420001D33CAA10A41C39014CE88F40A22A420D5
:10543000420A2224114212290491421031E41073CD
:1054400084392EA9663E9C074846D51CF587CB04B7
:10545000914210290491421029049142102904918B
:1054600042102904914210290F84F240280F8442EF
:1054700010290491421029049142102904914210EC
:1054800029049142102904914210F9701A0049131D
:10549000D51CF587D30D758D44FAFFC71AEA3E1C5B
:1054A000074A1CD51CF587EB2C718D44FAFF54304C
:1054B000240D52501145AD955CF9F006004B41D5D5
:1054C0001CF587C30415421029E410431D5208221D
:1054D0008424328822A22812CA228130D4124B8C12
:1054E00008B2C8208A8C920821891482482987989A
:1054F00062C821869C52082A8424F2E134004C11AF
:10550000D51CF587CB24D2FFFFC567BE0FB7014D71
:105510004ED51CF587C3630D4212212411524E2132
:10552000E514628A21A61872C621671C42C21408BB
:1055300021610A8410510421441441081963104266
:10554000C618841012089508218910920821891024
:105550009208218910920821897C380D004E4DD582
:105560001CF587CB0491421029E590520E29C69074
:10557000720A29A790820829240C420A09649042E1
:10558000C418A4104115328620850C1248216404E9
:105590005208418594538831851853C829859C52F7
:1055A0000822852052481A1F4E034F3BD51CF58711
:1055B000F3A629C59011E61043215208228428320F
:1055C00088228328328822832832882283283288BE
:1055D00022832842861A8520520822863A4618C419
:1055E000946AE6C3035029D51CF587CB2C35E40E0D
:1055F00029C690530A41A410440A41A410440A3910
:10560000A59062CC33EEB04422FDFBF00E00514376
:10561000D51CF587F3A629C59011E610530A41A4BD
:105620001044CA5064104506516410450651641078
:1056300045065164104506516410450841A41044C4
:105640000C3115298829D50E1C92C4D4903B1F38E3
:1056500000523ED51CF587CB2C35E40E21C7905364
:105660000A41A410440A41A410440A39C490628C2F
:105670003B0DB14408498490440A41A410440C39BC
:10568000C414430E31E49442102904950F9701533A
:105690002FD51CF587074C53A921238C21671C8229
:1056A000C4219148120D440FBD038DA422314191B4
:1056B000221429039172C4310E31763E9C07541690
:1056C000D51CF587C30F08F280200F884522FDFF07
:1056D000DF8717005542D51CF587CB2411421221D4
:1056E0002411421221241142122124114212212498
:1056F000114212212411421221241142122124119B
:1057000042122124114212210495420E316698D38F
:10571000D262E7C37900563BD51CF587C34491415B
:105720001419448D421029041133D038E48C430CF1
:1057300041C38C44CA48841035C858648C45046100
:10574000438C46C268C899674112891C527C780212
:10575000005752D51CF587BB848D31D818A38832E9
:10576000C628838C41C834283206354619A388518F
:10577000C6286294218C188504234621615648105E
:105780006284618C18411C23CC31A39C42CA29A499
:105790009C420A1A66A461461A66A4614612487CB5
:1057A000380E005839D51CF587C32491421031D4E6
:1057B000216624424822642C22C8228134E4CC335E
:1057C00090C0028D430D3122C82282284248228493
:1057D000206228440A418410453E5C065929D51CA4
:1057E000F587C344914112290491420E65C8218571
:1057F00024424822642C22C8226234D4CE33AF44DF
:10580000FAEFC30B005A2ED51CF587CB0F84F2405C
:10581000280F04482281542490C411092491402A5D
:105820001248E28804923858200F08F280200F882E
:105830000F97015B14D51CF5873B2C718944FAFF47
:10584000FF224BDC870A005C2BD51CF587BD118934
:10585000249148128924914812892491481289245C
:10586000914812891C92C8214924924422870C1F16
:105870000E015D12D51CF5872B0D7591FEFF7FA8DB
:10588000F72103005E20D51CF5871784249140E39F
:10589000501B813022C81A642842082266A870C2B0
:1058A00087FF87015F13D51CF587FFFF671F18E38C
:1058B00081311E181F1A00601AD51CF5873B818A9A
:1058C00029E690249258C112899CE690E2C3FF41D8
:1058D00000612AD51CF5877FE1B0951A2AC2A48001
:1058E00048A4123BCE3C530C290491424E29C49843
:1058F000620432EFB85406F9701A006233D51CF511
:10590000872324D24F14D5903B4718530C754A2156
:10591000881482482188148248218814824821876B
:1059200098628831C318774648688CF2E101632198
:10593000D51CF5877FC234A51832C2986228240C82
:1059400089F42489E5087444412DA9663E9C0764C6
:1059500035D51CF5878324D2A78A20A81D678C38EB
:1059600086985208228520520822852052082285D6
:1059700020520822A51C628829C688731C6AAA08BE
:10598000F2E13400652CD51CF5877FC134A5582A77
:10599000C21C62C819881482487920940742792071
:1059A0001412492C91A0908C30A729D5CC87F300F4
:1059B000661CD51CF58763A629C552110511231253
:1059C00089546BA86324D2FFFBF006006736D51C10
:1059D000F5877FA090715E79201442CA216620620B
:1059E000C821861C520A2AA224A6944A8BC4021DEE
:1059F00072E7158208218910920839C39877D84236
:105A00001D006836D51CF5872B24D26F94440242C2
:105A1000EEA0508E29C414431D62C821861C62C8A2
:105A200021861C62C821861C62C821861C62C8218E
:105A3000861C62C8211F4E036919D51CF587534384
:105A400012582289E3838C1A16E9FF1A4BDC87E38C
:105A5000006A1FD51CF58773231658C5F181554B75
:105A60008BF4FF53C190244A414594B45672E60327
:105A70006B35D51CF5872324D2EF94424C31A49486
:105A80004348416410450459241096B112C822833A
:105A900028324A22A42052CA21861C628A21A714D5
:105AA00082CA87CB006C12D51CF5872B896591FEC5
:105AB000FFC7DCF13EDC066D1DD51CF5873F4D02AE
:105AC00019A43C20C8036394604219F4FFFFFFFF50
:105AD000DF87CB006E35D51CF587BF4D46492420A6
