:020000040800F2
:10000000303E0020610200080B1F00081319000891
:10001000091F0008AB040008AD360008000000000E
:10002000000000000000000000000000C9010008FE
:100030002B060008000000000D02000871330008C4
:100040007B0200087B0200087B0200087B0200089C
:100050007B0200087B0200082D0600084906000804
:100060007B0200087B0200087B0200087B0200087C
:100070007B0200087B0200087B0200087B0200086C
:100080007B0200087B0200087B0200087B0200085C
:100090007B0200087B0200087B0200087B0200084C
:1000A000053400087B0200087B0200087B02000880
:1000B0007B0200087B020008113400087B02000864
:1000C0007B0200087B0200087B0200087B0200081C
:1000D0007B0200087B0200087B0200087B0200080C
:1000E000330600087B0200087B02000800F002F8DB
:1000F00000F05AF80AA090E8000C82448344AAF168
:100100000107DA4501D100F04FF8AFF2090EBAE865
:100110000F0013F0010F18BFFB1A43F0010318473B
:10012000F8E6000018E700000A444FF0000C10F851
:10013000013B13F0070408BF10F8014B1D1108BF65
:1001400010F8015B641E05D010F8016B641E01F805
:10015000016BF9D113F0080F1EBF10F8014BAD1C55
:100160000C1B09D16D1E58BF01F801CBFAD505E073
:1001700014F8016B01F8016B6D1EF9D59142D6D3CD
:10018000704700000023002400250026103A28BFF5
:1001900078C1FBD8520728BF30C148BF0B607047F9
:1001A0001FB51FBD10B510BD00F045F91146FFF792
:1001B000F7FF03F0EDFA00F063F903B4FFF7F2FF85
:1001C00003BC00F06BF90000224B19680868B0E826
:1001D000F00F80F30988BFF36F8F4FF0000080F3BA
:1001E00011884EF00D0E70470000000006480068B0
:1001F000006880F3088862B661B6BFF34F8FBFF323
:100200006F8F00DF00BF00BF08ED00E0EFF3098053
:10021000BFF36F8F0F4B1A6820E9F00F106008B51D
:100220004FF0500080F31188BFF34F8FBFF36F8FF3
:1002300005F022FD4FF0000080F31188BDE8084072
:1002400019680868B0E8F00F80F30988BFF36F8F72
:10025000704700BF3C000020EFF3058070470000AE
:100260000948804709480047FEE7FEE7FEE7FEE74A
:10027000FEE7FEE7FEE7FEE7FEE7FEE70448054986
:10028000054A064B70470000FB330008ED000008EC
:1002900030380020303E0020303A0020303A002034
:1002A000032A40F2308010F0030C00F0158011F8A2
:1002B000013BBCF1020F624498BF11F801CB00F87A
:1002C000013B38BF11F8013BA2F1040298BF00F8CE
:1002D00001CB38BF00F8013B11F0030300F025808B
:1002E000083AC0F0088051F8043B083A51F804CBB2
:1002F000A0E80810F5E7121D5CBF51F8043B40F878
:10030000043BAFF30080D20724BF11F8013B11F882
:1003100001CB48BF11F8012B24BF00F8013B00F8C6
:1003200001CB48BF00F8012B704710B5203AC0F050
:100330000B80B1E81850203AA0E81850B1E81850E6
:10034000A0E81850BFF4F5AF5FEA027C24BFB1E823
:100350001850A0E8185044BF18C918C0BDE8104094
:100360005FEA827C24BF51F8043B40F8043B08BF9D
:100370007047D20728BF31F8023B48BF11F8012B64
:1003800028BF20F8023B48BF00F8012B704702F05D
:10039000FF0343EA032242EA024200F002B84FF0B0
:1003A00000020429C0F0128010F0030C00F01B8042
:1003B000CCF1040CBCF1020F18BF00F8012BA8BF50
:1003C00020F8022BA1EB0C0100F00DB85FEAC17C14
:1003D00024BF00F8012B00F8012B48BF00F8012BC7
:1003E00070474FF0000200B51346944696462039F8
:1003F00022BFA0E80C50A0E80C50B1F12001BFF4DE
:10040000F7AF090728BFA0E80C5048BF0CC05DF843
:1004100004EB890028BF40F8042B08BF704748BF91
:1004200020F8022B11F0804F18BF00F8012B704705
:10043000704770477047754600F02CF8AE460500CF
:100440006946534620F00700854618B020B5FFF7EF
:1004500015FFBDE820404FF000064FF000074FF0B9
:1004600000084FF0000B21F00701AC46ACE8C009D2
:10047000ACE8C009ACE8C009ACE8C0098D467047DB
:1004800010B50446AFF300802046BDE81040FFF7EA
:1004900094BE000000487047D03700200149182062
:1004A000ABBEFEE7260002007047FEE71148018957
:1004B000491C89B2018109291AD90021018116300C
:1004C000C288521C92B2C280092A11D98288521C59
:1004D00092B28280C180052A0AD94288521C92B207
:1004E00042808180092A03D90288521C02804180FF
:1004F00070470000B4040020012000F00DB8000097
:1005000010B50221034800F00DFA012800D00020A8
:1005100010BD000000080140044B08B1012200E0BA
:1005200000220221184600F002BA00000008014033
:100530002DE9F05F82468B460020FFF7EDFF142087
:1005400003F037F9012202211C4800F0F0F93C20A9
:1005500005F0DCF8FFF7D4FF4FF0FF3958BB4FF43C
:100560007A742146012000F04EF820BB214600207D
:1005700000F049F8F8B900F023F8C5B200F020F80F
:1005800000F0FF0800F01CF8C4B200F019F8C7B280
:1005900000F016F8C6B20120FFF7BEFF05EB080019
:1005A00020443844B04206D1CAF800500020CBF8AD
:1005B0000040BDE8F09F4846FBE70000000801400E
:1005C0002DE9F04100242546671E4FF47A76314626
:1005D000012000F018F870B9282005F097F86400A1
:1005E000FFF78EFF012801D144F0010431460020BD
:1005F00000F009F810B13846BDE8F0816D1C082DF7
:10060000E5DB2046F8E770B50C46054608E0FFF745
:1006100077FFA84201D1002070BD012005F076F8D7
:10062000641EF4D24FF0FF3070BD7047012000F01F
:100630007DB810B54FF4806000F078F8BDE8104048
:100640004FF4006000F072B8022000F06FB872B68C
:10065000FEE7000070B5044600F06EF90546601C28
:1006600002D004480078044400F066F9401BA04220
:10067000FAD370BD00000020F8B5294A014627488A
:10068000566A294A01277C03264D0068136841F207
:100690008832B1F5006F05D0B1F5806F29D00229FD
:1006A00032D009E04FF0020C4FEA020E0CF1010CBF
:1006B000F445FBDB012B17D0012914D10221491C81
:1006C0009142FCDB012B0ED100280CD18DF8037078
:1006D00000231A466946304605F0A0FC0022214658
:1006E000284600F024F9F8BD0028FCD18DF80070F0
:1006F000EEE70221491C9142FCDB012BF3D10028DB
:10070000F1D18DF80170E3E7491C9142FCDB012B2C
:10071000E9D10028E7D18DF80270D9E7B0040020B4
:10072000100000200010014064040020044910B5AE
:100730000A68024202D00860FFF79EFF10BD000069
:10074000140401402DE9F84FDFF8B8910024A9F115
:10075000040B23460F2709F1040AABF1040EC9E08C
:100760000125A5402A40AA427DD1674ED1F804C098
:10077000ACEB0608B44532D014DCBCF1030F3AD020
:1007800009DCBCF1000F2AD0BCF1010F1CD0BCF178
:10079000020F31D11DE0BCF1110F17D0BCF1120FC7
:1007A0002AD119E0B8F5881F19D006DCB8F5803FCA
:1007B00015D0B8F5801F1FD111E0B8F5001F0ED07D
:1007C000B8F5041F18D10AE0CB6815E0CB681B1DF3
:1007D00012E0CB6808330FE0CB680C330CE08B6879
:1007E0002BB1012B4FF0080303D0456104E0042333
:1007F00002E0056100E00023FF2A01D8064601E07F
:1008000000F104064FEA840501D9A5F12005D6F8C8
:10081000008007FA05FC28EA0C0803FA05F548EA07
:100820000508C6F800804D68ED0062D5374DAE6909
:1008300046F00106AE61AD6924F0030605F001053E
:100840000095334D06EB050CDCF80850A607360F73
:1008500007FA06F825EA0805DFF8B880404503D115
:100860004FF0000817E044E0DFF8AC80404502D1CB
:100870004FF001080FE0DFF8A480404502D14FF0AF
:10088000020808E0DFF89880404502D14FF00308E5
:1008900001E04FF0040808FA06F848EA0508CCF829
:1008A00008804D68D9F80060ED024D4601D5164329
:1008B00000E096432E604D68DAF80060AD025546C0
:1008C00001D5164300E096432E604D68DBF80060CA
:1008D000AD035D4601D5164300E096432E604D689A
:1008E000DEF80060ED03754601D5164300E096433F
:1008F0002E60641C0D682A46E5407FF431AFBDE8E8
:10090000F88F0000080401400000111000100240A0
:100910000000014000080140000C014000100140AF
:10092000001401408068084000D0012070470AB1DF
:10093000016170470904FBE70148806870470000C7
:100940000000002070B5040025D094F83D0000257B
:1009500020B984F83C50204600F04EF9242084F859
:100960003D002068016821F00101016020680168F4
:1009700041F4004101602068016821F400410160F8
:1009800000F0F8FA4D4A6168914201D84C4900E004
:100990004C49884201D2012070BD4B492368B0FB0D
:1009A000F1F15E6826F03F060E435E606368934295
:1009B00006D94FF4967359434FF47A73B1FBF3F1B0
:1009C0002368491C1E6A26F03F063143196261689C
:1009D000914210D84900401EB0FBF1F2521CC2F304
:1009E0000B02042A01D2042022E0B0FBF1F0401CEB
:1009F000C0F30B001CE0A268F2B301EBC10303EBF0
:100A00000116431EB3FBF6F35B1C43F480431B0546
:100A100049D092B301EBC10202EB0111401EB0FBC1
:100A2000F1F0401CC0F30B0040F4804040F4004063
:100A30002168CA694CF6FF739A431043C861D4E930
:100A4000071001432068026822F0C00211430160D0
:100A5000D4E9030101432068826848F2FF339A43D6
:100A600011438160D4E9050108432168CA6822F076
:100A7000FF021043C86001E00EE016E02068016844
:100A800041F0010101602564202084F83D002563C8
:100A900084F83E50002070BD01EB4106431EB3FBBD
:100AA000F6F35B1CB3E70120C2E701EB4101401EF6
:100AB000B0FBF1F0401CC0F30B00B7E7A0860100CB
:100AC00080841E0000093D0040420F002DE9F84FD0
:100AD0001F4690468A460446DDF82890FFF72CFF13
:100AE000054694F83D0020287FD119230122404972
:100AF0002046009500F0A0FF002876D194F83C0035
:100B0000012872D0012084F83C0020680168C907E0
:100B100003D1016841F0010101602068016821F4FE
:100B200000610160212084F83D00102084F83E001F
:100B300000262664C4F824806785608D20852D48B2
:100B4000E0622B464A465146204600F0FBFE90B933
:100B5000206841698069009036E02A46494620466F
:100B600001F010F850B1206C042804D1206801680D
:100B700041F4007101600120BDE8F88F606A2168CE
:100B800000780861606A401C6062618D491E618561
:100B9000218D491E89B2218522685369DB435B0799
:100BA0000BD451B100781061606A401C6062608DA6
:100BB000401E6085208D401E20852A4649462046DD
:100BC00000F00EFF0028CED1208D0028C5D154F8AA
:100BD0003D0B016841F400710160202004F81E09FA
:100BE000E67766770020C7E7FFE70220C4E700004A
:100BF000020010000000FFFF10B586B00021009138
:100C000001910291039100680F4988421AD10F4C5B
:100C1000A06940F00800A061A069694600F00800E2
:100C20000490C020009012200190032003900848F7
:100C3000FFF788FDE06940F40010E061E06900F42E
:100C40000010049006B010BD005400400010024097
:100C5000000C0140024881680278114481607047AD
:100C600000000020074810B5016841F01001016044
:100C7000032000F0B7F80F2000F006F800F050F85D
:100C8000002010BD0020024030B505461F4887B047
:100C9000C16941F00401C161C06906A900F0040006
:100CA000009001A800F046F90498B0B100F062F994
:100CB00040001749174AB0FBF1F11748491E02607E
:100CC000416040F2E7320021C0E903218160816187
:100CD00000F07AFB040003D015E000F04BF9E8E7E0
:100CE0000D4800F0CFFB04000DD11E2000F04DF8A0
:100CF000102D07D2002229461E2000F053F8074885
:100D0000056000E0012407B0204630BD001002401D
:100D100040420F0000080040EC05002004000020C5
:100D20000F4808B5816941F001018161816901F0D5
:100D300001010091C16941F08051C161C069002287
:100D400000F0805000900F21901E00F02BF8054815
:100D5000416821F0E06141F00071416008BD000090
:100D6000001002400000014000280DDB00F01F02CF
:100D7000012191404009800000F1E020C0F880117D
:100D8000BFF34F8FBFF36F8F7047002809DB00F070
:100D90001F02012191404009800000F1E020C0F8CD
:100DA00000117047F0B40E4B1B680C46C3F30223CE
:100DB000C3F10705042D00D90425191D072901D207
:100DC000002300E0DB1E012606FA05F1491E214042
:100DD00099409E40761E16403143F0BC02F067BC3D
:100DE0000CED00E0064900F0070208684FF6FF032B
:100DF000184040EA0220034A104308607047000090
:100E00000CED00E00000FA052DE9F0470F46050063
:100E100061D0434E306800F00700B84209D2306814
:100E200020F0070038433060306800F00700B84217
:100E300051D128683B4C810712D5400703D5606823
:100E400040F4E06060602878000703D5606840F4F3
:100E5000605060606068A96820F0F000084360603E
:100E60002878C00728D06868012810D02168022897
:100E700010D0890700292EDA616821F003010143AF
:100E80006160FFF759FD804641F288390DE0216825
:100E90008903EFE78901EDE7FFF74EFDA0EB0801BD
:100EA000494502D90320BDE8F0876068696800F011
:100EB0000C00B0EB810FEFD1306800F00700B842B2
:100EC0000BD9306820F0070038433060306800F0FC
:100ED0000700B84201D00120E5E72878400705D592
:100EE0006068E96820F4E0600843606028780007E3
:100EF00006D56068296920F4605040EAC10060604E
:100F000000F048F86168084AC1F30311515CC84019
:100F10000649086006480068FFF7B6FE0020C2E7F1
:100F20000020024000100240E66600080C0000208D
:100F3000040000200F2202600C4A536803F00303F0
:100F40004360536803F0F0038360536803F4E06385
:100F5000C36052684FF4E06303EAD20202610448BE
:100F6000006800F0070008607047000000100240B1
:100F7000002002400448054900684968044AC1F35A
:100F80000221515CC84070470C0000200010024054
:100F9000F66600080E4A51680E4801F00C03042B57
:100FA00011D0082B0FD10C48C1F38343C903C05C97
:100FB0000AD55168084AC1F34041921E515C054A66
:100FC0005043B0FBF1F070470449484370470000BC
:100FD0000010024000127A00D666000800093D00A9
:100FE0002DE9F84F040070D02078C04DC00749D0DB
:100FF0006868C0F38100012807D06868C0F38100E9
:10100000022809D16868C00306D52868800339D54D
:1010100060680028E7D035E06068B0F5803F0BD00D
:1010200010B1B0F5A02F11D0286820F480302860CE
:10103000286820F4802002E0286840F4803028608E
:10104000606890B1FFF778FC06460AE0286840F433
:1010500080202860F0E700BFFFF76EFC801B64284B
:1010600073D828688003F7D50CE0FFF765FC0646C7
:1010700005E000BFFFF760FC801B6428F0D82868FB
:101080008003F7D420789A4E80074FF001094FF083
:10109000000839D5686810F00C0F07D06868C0F3F5
:1010A0008100022809D16868C00306D42868800737
:1010B00014D52069012808D110E02069B0B1C6F824
:1010C0000090FFF739FC074605E00AE1FFF734FC22
:1010D000C01B0228C4D828688007F7D52868616932
:1010E00020F0F80040EAC10028600DE0C6F800805A
:1010F000FFF722FC074604E0FFF71EFCC01B022896
:1011000023D828688007F7D4207800072CD57948A1
:10111000A169D9B1C0F80090FFF70EFC074604E0C2
:10112000FFF70AFCC01B02280FD8686A8007F7D5B2
:1011300071484FF4FA510068B0FBF1F0009000BF25
:101140000098411E0091FAD20EE080E0C0F80080C5
:10115000FFF7F2FB074604E0FFF7EEFBC01B022897
:1011600075D8686A8007F7D42078400760D5E869A9
:101170000027C00008D4E86940F08050E861E869C1
:10118000012700F0805000905C480168C90513D425
:101190000168834641F480710160FFF7CDFB824610
:1011A00006E000BFFFF7C8FBA0EB0A0064284ED89A
:1011B000DBF80000C005F5D5E06801280AD008B1C9
:1011C000052813D0286A20F001002862286A20F040
:1011D000040002E0286A40F001002862E06841F261
:1011E000883B98B1FFF7A8FB82460BE0286A40F0E5
:1011F00004002862EEE700BFFFF79EFBA0EB0A01A8
:1012000059455AD8286A8007F6D50CE0FFF794FBB9
:10121000824605E0FFF790FBA0EB0A0159454CD848
:10122000286A8007F6D41FB1E86920F08050E86191
:10123000E06988B36968C1F38101022944D00228BA
:10124000C6F8608004D0FFF777FB044638E034E04E
:10125000FFF772FB074604E0FFF76EFBC01B022896
:101260002BD828688001F7D4206AB0F5803F05D1DB
:101270006868A16820F4003008436860D4E9080178
:101280000843696821F4741108436860C6F86090E7
:10129000FFF752FB044606E025E000BFFFF74CFBDA
:1012A000001B022809D828688001F7D51BE000BF81
:1012B000FFF742FB001B022802D90320BDE8F88F8C
:1012C00028688001F4D40EE00128F7D06868226A0B
:1012D00000F48031914204D1616A00F470108842B8
:1012E00001D00120EAE70020E8E7000000100240FA
:1012F00000004242800442420C0000200070004086
:101300007047704770B590F83C20012A26D0012420
:1013100080F83C40022280F83D2003685A689D68AE
:1013200022F070060A6832435A600D4B02689A42F6
:1013300008D0B2F1804F05D00A4B9A4202D00A4B36
:101340009A4204D1496825F080031943916080F8DE
:101350003D40002180F83C10084670BD022070BD61
:10136000002C0140000400400008004010B5044675
:10137000022084F83D002068016A41F211121142F6
:1013800007D1016A9210114203D1016821F00101D5
:101390000160204600F046F8002084F8460084F8FA
:1013A0003E0084F83F0084F8400084F8410084F84F
:1013B000420084F8430084F8440084F8450084F82F
:1013C0003D0084F83C0010BD10B5040003D094F833
:1013D0003D0010B107E0012010BD002084F83C0062
:1013E000204600F031F8022084F83D00211D2068DD
:1013F00002F014F8012084F8460084F83E0084F8D6
:101400003F0084F8400084F8410084F8420084F8EA
:10141000430084F8440084F8450084F83D0000202F
:1014200010BD000000680649884207D1054881695F
:1014300021F4006181611820FFF796BC704700001D
:10144000002C01400010024008B500680B4988429A
:1014500012D10B48816941F40061816180690022E9
:1014600000F40060009005211820FFF79BFCBDE808
:1014700008401820FFF789BC08BD0000002C01407F
:101480000010024090F83D10012901D00120704762
:10149000022180F83D100168CA6842F00102CA606A
:1014A00000680B49884208D0B0F1804F05D0094947
:1014B000884202D00849884204D1816801F00701BE
:1014C000062903D0016841F0010101600020704746
:1014D000002C0140000400400008004070B50446A4
:1014E00090F83C000025012817D0012684F83C60C4
:1014F000022084F83D002068826822F0770222F4FE
:101500007F4282600868502838D00DDC20284FD0F8
:1015100005DC90B3102811D14AE0022070BD3028BC
:1015200046D040280AD13BE060282FD070280DD04B
:10153000B0F5805F03D0B0F5005F12D0012584F8CC
:101540003D60002084F83C00284670BDCB68D1E99E
:101550000121206801F0A5FF2068816841F0770132
:1015600009E0CB68D1E90121206801F09AFF2068E9
:10157000816841F480418160E1E719E0CA68496807
:10158000206802F043F85021206806E0CA684968E4
:10159000206802F04CF86021206801F08CFFCEE753
:1015A000CA684968206802F031F840212068F4E7F1
:1015B000226801461046F0E7704770B5044600689F
:1015C00001694FF00005C943890715D4C168C943B3
:1015D000890711D4E91E0161012020772068806904
:1015E0008007204602D0FFF7E7FF04E000F098F8FC
:1015F000204600F0FCF8257720680169C9434907B7
:1016000017D4C168C943490713D46FF004010161BD
:10161000022020772068806910F4407F204602D0A5
:10162000FFF7CAFF04E000F07BF8204600F0DFF887
:10163000257720680169C943090716D4C168C943E1
:10164000090712D46FF00801016104202077206897
:10165000C0698007204602D0FFF7AEFF04E000F02B
:101660005FF8204600F0C3F8257720680169C94378
:10167000C90617D4C168C943C90613D46FF0100155
:101680000161082020772068C06910F4407F20465F
:1016900002D0FFF791FF04E000F042F8204600F08E
:1016A000A6F8257720680169C943C90708D1C16830
:1016B000C943C90704D1891E0161204600F01EF903
:1016C00020680169C943090609D4C168C9430906EC
:1016D00005D46FF0800101612046FFF711FE2068FC
:1016E0000169C943490609D4C168C943490605D4FB
:1016F0006FF040010161204600F00AF9206801699D
:10170000C94389060BD4C168C943890607D46FF061
:10171000200101612046BDE87040FFF7F2BD70BDB9
:10172000704770B5044690F83C0000260D4601282D
:101730000FD0012084F83C006AB1042A1DD0082A89
:101740002FD00C2A3FD00126002084F83C003046E0
:1017500070BD022070BD206801F0B6FE206881696E
:1017600041F0080181612068816921F004018161F3
:10177000206881692A69114311E0206801F0CCFEDC
:101780002068816941F4006181612068816921F4E8
:1017900080618161206881692A6941EA0221816151
:1017A000D2E7206801F0E4FE2068C16941F0080139
:1017B000C1612068C16921F00401C1612068C1696B
:1017C0002A69114311E0206801F0FEFE2068C1691A
:1017D00041F40061C1612068C16921F48061C16187
:1017E0002068C1692A6941EA0221C161ACE77047FA
:1017F00010B50446022249B104290ED0082913D09D
:1018000094F84100012816D0012010BD94F83E0044
:101810000128F9D184F83E200FE094F83F00012818
:10182000F2D184F83F2008E094F840000128EBD181
:1018300084F8402001E084F841200122206801F072
:1018400023FE0F492068884203D1426C42F40042D3
:1018500042642068884208D0B0F1804F05D0094921
:10186000884202D00849884204D1816801F007010A
:10187000062903D0016841F001010160002010BD7C
:10188000002C0140000400400008004030B5044630
:101890000D460068002201F0F7FD174B41F21111CF
:1018A00020688A10984209D1036A0B4206D1036A64
:1018B000134203D1436C23F4004343642068036A5A
:1018C0000B4206D1016A114203D1016821F00101E6
:1018D000016001203DB1042D08D0082D09D084F805
:1018E0004100002030BD84F83E00FAE784F83F0054
:1018F000F7E784F84000F4E7002C01400068034952
:10190000884201D1FFF7A6B97047000000080040E7
:101910007047FEE701684A69D24352050FD46FF45D
:1019200080624A61002140F8301F20224273817397
:10193000026942F004020261017301207047002035
:1019400070470000F8B50446C06A1E460D461746AB
:10195000082807D0012805D010F5803F02D0206B61
:10196000122804D12068016841F480710160134697
:1019700000224FF001112046009600F05DF840B1C2
:1019800020680068C00502D54FF400702064032071
:10199000F8BD2069B0F5804F0ED00620216800EA1E
:1019A000D51040F0F000086133463A460B49204616
:1019B00000F08AF878B902E005F0FE0000E0E8B235
:1019C00021680861054933463A46891F204600F0E0
:1019D0007BF80028DCD00120F8BD000008000100E1
:1019E00070B516460D4604461EE02046FFF792FFEE
:1019F00008B1012070BD681C16D0FEF79DFF801B4A
:101A0000A84200D885B920684069C04340070BD57B
:101A1000002044F8300F20216173A073216941F048
:101A2000200121612073E4E720684069C04340073A
:101A3000DBD4002070BD00002DE9F0479846174622
:101A40000D460446C1F30746DDF820902AE000BFAA
:101A5000B8F1FF3F26D0FEF76FFFA0EB090141452B
:101A600002D8B8F1000F1DD12068012E16D0806970
:101A700025EA00000004000C12D00020B84211D169
:101A8000002044F8300F20216173A073216941F0D8
:101A90002001216120730120BDE8F0874069E7E75C
:101AA0000120EBE72068012E0AD0806925EA0000BA
:101AB0000004000C06D00020B842C9D00020EBE79B
:101AC0004069F3E70120F7E72DE9F047984616460D
:101AD0000D4604464FF000094FF0200AC1F30747B6
:101AE00023E020684069C043400515D420680168A0
:101AF00041F40071016021686FF480604861C4F8AE
:101B0000309084F83DA084F83E90216C41F00401AF
:101B1000216484F83C9021E0701C06D0FEF70CFF95
:101B2000A0EB0800B04203D816B1012F1FD021E06E
:101B30002068012F15D0806925EA00000004000C00
:101B400018D000BF44F8309F84F80DA084F80E90A0
:101B5000216941F02001216184F80C900120BDE849
:101B6000F087406925EA00000004000CEAD12068F3
:101B7000406901E02068806925EA00000004000C4B
:101B8000AFD1ECE770B516460D4604461EE0204680
:101B9000FFF7C0FE08B1012070BD681C16D0FEF72B
:101BA000CBFE801BA84200D885B920684069C0439D
:101BB00000060BD5002044F8300F20216173A0737C
:101BC000216941F0200121612073E4E72068406928
:101BD000C0430006DBD4002070BD00007CB501F0DE
:101BE0008FFD31480090002301224FF47A712FA01D
:101BF00004F0F2FC2F4C00230122E0612E480090FB
:101C000064212EA004F0E8FC20622E4A00212E4818
:101C100001F044FEA06220461824CDE900400023D4
:101C200080222AA12D4804F02DFB22484FF4807514
:101C3000001DCDE9004000232A4629A12C4804F0CC
:101C400021FB1C4800230830CDE900402A4629A189
:101C50002D4804F017FB174800231030CDE9004051
:101C600080222AA12E4804F00DFB124800231830D0
:101C7000CDE9004080222BA12E4804F003FB0D4843
:101C800000230C30CDE9004080222BA12F4804F026
:101C9000F9FA084800231430CDE900402A462CA167
:101CA000304804F0EFFA7CBD5536000854696D6584
:101CB0007231000010000020AD04000854696D6509
:101CC00072320000006700084933000853686F77DC
:101CD00054696D655461736B00000000692F000842
:101CE00053686F774D656E755461736B000000002B
:101CF0003D28000853686F7743616C656E646172BC
:101D00005461736B000000009120000853686F77E6
:101D1000466C6173684C696768745461736B00004A
:101D20003D27000853686F7744485431315461733C
:101D30006B0000009D25000853686F77436C6F634C
:101D40006B54696D655461736B000000F1230008EA
:101D500053686F7753657474696E675F5461736B12
:101D600000000000412C0008F0B585B00025354882
:101D70000095019502950395816941F010018161FB
:101D8000816901F010010491816941F020018161B4
:101D9000816901F020010491816941F004018161B0
:101DA000816901F004010491816941F008018161B8
:101DB0008069254E00F008004FF400540490002282
:101DC00021463046FEF7B3FD204F0022022138465F
:101DD000FEF7ADFD00940124CDE9014502256946D9
:101DE00030460395FEF7AEFC1120CDE90050694660
:101DF0003846CDE90245FEF7A5FC40F603400090C9
:101E00001348CDE9010469461248FEF79BFC002205
:101E100005210620FEF7C6FF0620FEF7B6FF0022CA
:101E200005210720FEF7BEFF0720FEF7AEFF0022C8
:101E300005212820FEF7B6FF2820FEF7A6FF05B0F3
:101E4000F0BD0000001002400010014000080140F9
:101E500000001110000C01400D4810B50B49016045
:101E60000C49416000214FF480428160C0E90312B7
:101E700041618161C1610162FEF764FD002803D008
:101E8000BDE81040FEF7E3BB10BD00000054004069
:101E900050050020801A060010B586B000241948AD
:101EA00000940194029403940494154905940160EC
:101EB00041F61F41C0E9011442F20F71C1604FF4B5
:101EC0008071C0E9041480218161FFF77DFA08B1B7
:101ED000FEF7BDFB4FF48050009069460948FFF7BC
:101EE000FDFA08B1FEF7B3FB049404A90548059474
:101EF000FFF708FA002801D0FEF7A9FB06B010BDD5
:101F0000002C0140A4050020FEE7FEE70100044884
:101F10004FF00001006801D0FFF76ABCFFF7B6BCC4
:101F2000C000002070B58CB01C216846FEF759FA3D
:101F30004FF480700225CDE90705002407A9104859
:101F4000CDE90945FEF7FEFB0F4E0E4847223168EA
:101F500015C140F2E732E1E80224802261E8044240
:101F600001F05CFA60200090049440F2F310CDE997
:101F70000105002269463068FFF7D3FB0CB070BD45
:101F800000080140002C0140C00000202DE9F04174
:101F900088B0884606461C216846FEF722FA1A4C8D
:101FA00000212068FFF772FC2068FFF7DFF9206846
:101FB0001649002501604721C0E90115144F97FB20
:101FC000F6F1491EC0E903158021C0E90551FFF76C
:101FD000FBF9602000900220029097FBF6F0401E73
:101FE00000FB08F0642190FBF1F0049501900022C1
:101FF00069462068FFF795FB00212068FFF7F8FB92
:1020000008B0BDE8F0810000C0000020002C0140B5
:1020100040420F0070B5124C12A3A4F1280520888D
:1020200082B2A88881B2124802F066FBA08811A390
:1020300082B2A88881B20E4802F05EFB208910A30C
:1020400082B2A88881B20A4802F056FBA0890FA389
:1020500082B2A888BDE8704081B2054802F04CBB4E
:10206000100500205468616E6B20596F75000000E8
:1020700028370020466F6C6C6F77696E6700000030
:102080004D792050726F6A656374000040474E00BE
:10209000D2B001F035FB00220421012003F072FED2
:1020A0006F49086020B1012251036E48FEF73FFCE2
:1020B0006D4B6E4A6E4901A802F01CFC01A803F0AA
:1020C000FEF8002101A803F00AF901A802F09DF82A
:1020D000684901A802F0C6FB01A802F0ACFB60222F
:1020E000654926A8FEF721F963491822603146A800
:1020F000FEF71BF960480DF1FC0C78300FC88CE836
:102100000F005D4A43AB883207CA83E807005A498B
:10211000182294314CA8FEF708F94FF0000AD04677
:1021200001253FAE01A802F067F800240DF58C7779
:1021300004EB4400C31936F81410082201A802F079
:10214000DBFA641C062CF3DD284601F03FFB8146D8
:102150004FF4FD6001F0ECFA012384B2072209E09C
:10216000184601F033FB204490FBF2F102FB110012
:1021700084B25B1CAB42F3D30127C4F1070B1BE015
:102180000720B4FBF0F100FB1140641CBB4501D3F8
:10219000002103E018B908F10101C9B2884607EB34
:1021A000470226A9531843A931F8182036F8101011
:1021B00001A802F0A1FA7F1C4F45E1D93E2073230C
:1021C00000900022194601A802F0B2F90AEB4A0178
:1021D00026A80B182022752101A8DB1C02F08CFA1E
:1021E0004CA90B2331F81A103F2201A802F0FAF88B
:1021F00001A802F020FB1A484FF0FF323EA9006808
:1022000003F06AFF9DF8F800012814D1642140F61C
:10221000C41001F05DFA0AF1010000F0FF0A6D1C24
:10222000BAF10B0F01D94FF0000A0C2D00D901258E
:1022300000208DF8F8009DF8FB0001287FF472AFB4
:10224000642140F6C41001F043FA0C48006803F022
:102250003BFC002003F0BAFC00208DF8FB0061E796
:102260003400002000100140A951000881530008EB
:102270007CDF00087A7A000814E7000814000020C8
:102280002DE9FC4752A31E220021534802F034FAE4
:10229000524D53A33C22A87000214F4802F02CFA63
:1022A000DFF84481E870002405F10E0905F10A0603
:1022B00005F11E0705F1160A39F8141008EBC100E4
:1022C000E988CDE9001037F81400A978328808446D
:1022D00081B2AB88404802F01DFA3AF8141008EBBE
:1022E000C100E988CDE9001037F81400E978728858
:1022F000084481B2AB88384802F00CFA641C042C04
:10230000DADB394CE8885034CDE900047889A978C3
:102310003288084481B2AB882F4802F0FBF904F1FF
:102320000800E988CDE900103889A9783288084486
:1023300081B2AB88284802F0EDF9E888CDE90004C5
:102340007889E9787288084481B2AB88224802F023
:10235000E1F90F2416231F2268211F48009401F081
:1023600085FF17231F2268211B48009401F07EFF80
:1023700001231F2268211848009401F097FF288943
:102380001A49C0EB001001EBC0002821CDE9001074
:1023900014230C225E21104802F0BCF9E888C01C0E
:1023A00080B20090A88895F90110801C83B2308813
:1023B000801E82B209482A3030F81110A878401ED9
:1023C000084481B2044801F091FFBDE8FC87000099
:1023D0005365743A0000000028370020B404002040
:1023E0005265743A0000000080E6000858E10008D9
:1023F0001CB501F085F900220421012003F0C2FC84
:10240000DFF87091C9F8000020B1012251035A4849
:10241000FEF78DFA594B5A4A5A495B4802F06AFA5C
:10242000594802F04CFF0021574802F058FF564827
:1024300001F0EBFE5549544802F014FA544D554F43
:1024400005F108080026A5F10E0440F6C41A4E480E
:1024500001F0D2FEFFF714FF4B4802F0ECF92078B0
:1024600030B94FF0FF3201A9D9F8000003F034FE73
:102470009DF8040001280AD16421504601F028F992
:102480006078401C40B26070042800DD66709DF8E2
:10249000050001280BD16421504601F019F960783C
:1024A000401E40B26070002801DA042060709DF880
:1024B0000600012811D16421504601F009F994F970
:1024C000010004280ED035F81010491C89B225F8F7
:1024D0001010092901D925F810609DF8070001287E
:1024E00011D023E038680028F7D003F031FF02460E
:1024F000009600230121386804F0B8F8012020700C
:102500008DF80660E9E76421504601F0E1F8267095
:10251000002300961A460321386804F0A7F81E48E5
:10252000006803F0D1FA002003F050FB2078012866
:102530008DD12988B8F800204046914287D169881A
:102540004288914283D1A98882889142F0D1E9885A
:10255000B8F806008142EBD12670002300961A4697
:102560000321386804F082F84FF47A71504601F084
:10257000AFF86CE73400002000100140A9510008BA
:10258000815300087CDF000828370020AC80000859
:10259000C20400203000002014000020B0B0FDF77D
:1025A000ABFF01F0ADF800220421012003F0EAFBAB
:1025B000564E306020B1012251035548FEF7B7F95D
:1025C000544B554A554902A802F094F902A802F06A
:1025D00076FE002102A802F082FE02A801F015FE9C
:1025E0004F4902A802F03EF902A802F024F918228D
:1025F0004C4927A8FDF799FE0DF19C0B02A801F0AC
:10260000FBFD2FA92EA8FDF793FF10B1FDF774FF76
:1026100054E02F99142091FBF0F200FB121A0A23C8
:1026200091FBF3F191FBF0F200FB1217DDF8B8100B
:1026300000205A4652F820508D4200DA2C46401CA9
:102640000528F7DB91FBF4F004FB101991FBF3F084
:1026500090FBF4F104FB1108C7EB0710324D28275B
:1026600005EBC000CDE9007014231A460A2102A828
:1026700002F050F8CAEB0A1005EBC000CDE900707B
:1026800014231A46232102A802F044F8C8EB0810CC
:1026900005EBC000CDE9007014231A464B2102A8B7
:1026A00002F038F8C9EB091005EBC000CDE9007065
:1026B00014231A46642102A802F02CF80F221BA34F
:1026C000114602A802F018F81AA30F22552102A8F9
:1026D00002F012F802A802F0AEF800222DA930682C
:1026E00003F0FAFC9DF8B700012887D1642140F679
:1026F000C41000F0EDFF1048006803F0E5F9002079
:1027000003F064FA00208DF8B70077E7340000206A
:1027100000100140A9510008815300087CDF000827
:10272000AC800008F4E7000858E1000874656D709B
:102730000000000048756D0014000020A8B000F0F3
:10274000DFFF00220421012003F01CFB334C20603A
:1027500020B1012251033248FEF7E9F8314B324AE9
:10276000324902A802F0C6F802A802F0A8FD002132
:1027700002A802F0B4FD02A801F047FD2C4902A80E
:1027800002F070F82B4E1E27CDE900763B46102252
:10279000302102A801F0BEFF02A802F04CF800258B
:1027A0004FF0FF3840F6C41902A801F025FD42465B
:1027B00027A9206803F090FC9DF89E0001281AD1FB
:1027C0006421484600F084FF15B1012D13D109E0C2
:1027D0004020002200908023114602A801F024FD31
:1027E000012508E0CDE900761E231022302102A841
:1027F00001F090FF00259DF89F0001280AD1642177
:10280000484600F065FF0C48006803F05DF90020C1
:1028100003F0DCF902A802F00EF8C5E7340000204E
:1028200000100140A9510008815300087CDF000816
:10283000E6B6000808E600081400002088B000F0A2
:102840005FFF04210022084603F09CFAC74E306067
:1028500020B101225103C648FEF769F802F000F9E1
:10286000C44801F07DFFC44AC54D02F1980005F14E
:102870009807CDE90670C14CC2489C3504F198090F
:1028800000F198019C3205919C34BF49CDE90224A6
:1028900001F1980301270195BC4C00F19C0B01F15B
:1028A0009C0A4FF00A0804930025B24801F0C3FFC8
:1028B000B04801F0A1FF0028F7D1AE4801F09CFC20
:1028C00000F072FCAB4801F0B6FFA06828B94FF0E9
:1028D000FF326946306803F0FFFB9DF800000128D5
:1028E0001AD09DF8010001287DD09DF80300012831
:1028F0007BD09DF802000128DFD164214FF4FA60FB
:1029000000F0E6FEA248006803F0DEF8002003F0C5
:102910005DF98DF80250D0E7E5602078002865D099
:102920000221079802F016FF0221484602F012FF2A
:102930000221069802F00EFF0221059802F00AFF1C
:102940000221049802F006FF607800B96770607891
:10295000401EC0B260702178012912D0022904D033
:10296000032930D0042941D11DE0E8B301210298A8
:1029700002F00FFF0121039802F00BFF01210198E3
:102980002CE088B30121029802F003FF0121504698
:1029900002F0FFFE0121039802F0D4FE012101980C
:1029A00002F0D0FE22E0F8B10121584602F0F1FE1B
:1029B0000121019802F0EDFE0121504602F0C2FE15
:1029C00001210298ECE778B10121019802F0E1FEC3
:1029D0000121039802F0DDFE0121504602F0B2FE13
:1029E00001215846DCE716E000E09FE0A068401CAB
:1029F000A06014287FD184F80180E760207820B19E
:102A0000401E20706068401E6060A5608DF8005018
:102A10008DF8015073E0E5602078042866D2022129
:102A2000079802F093FE0221484602F08FFE022131
:102A3000069802F08BFE0221059802F087FE022123
:102A4000049802F083FE607800B967706078401ED9
:102A5000C0B26070217831B1012914D0022924D08C
:102A6000032943D131E0F8B10121019802F091FE30
:102A70000121039802F08DFE0121029802F062FE0E
:102A8000012150460EE078B10121019802F081FE4B
:102A90000121584602F07DFE0121039802F052FE0A
:102AA0000121029802F04EFE20E0F8B101215846C3
:102AB00002F06FFE0121504602F06BFE01210198E9
:102AC00002F040FE01210398ECE778B10121504665
:102AD00002F05FFE0121029802F05BFE01215846E0
:102AE00002F030FE01210198DCE704E0A068401C00
:102AF000A060142809D0E06801287FF40CAF64219D
:102B00004FF4FA6000F0E4FDD7E684F80180E76056
:102B10002078042804D2401C20706068401C60604B
:102B2000A5608DF801508DF80050E8E764214FF45E
:102B3000FA6000F0CDFD20780528E5D2DFE800F04E
:102B400003050F111300134800E01348006802F05A
:102B5000BBFF002003F03AF88DF80350ADE60F48B4
:102B6000F4E70F48F2E70F48F0E7000034000020D8
:102B7000001001402837002010010020B80100207B
:102B80006002002008030020B00300205804002049
:102B90001000002018000020200000202800002045
:102BA0001C000020240000202DE9F843DFF8848079
:102BB0001F4EDFF884900024A8F1140504EB840074
:102BC00006EB400338F824001F4682B2288881B201
:102BD0001A4801F091FD07F10A01184801F0EEFDD5
:102BE00049F82400641C052CE8DBA889114C80B24C
:102BF0000090104824343C300021008883B22088A3
:102C000082B20E4801F072FB0C2000902088052350
:102C100082B23021094801F007FB3F2000900523D4
:102C200000223021054801F061FBBDE8F883000077
:102C3000C0E70008FC040020BC3700202837002033
:102C400086B000F05DFD04210022084603F09AF8EA
:102C5000974E306020B1012251039648FDF767FE80
:102C600001F0FEFE9449954801F0FCFD934801F007
:102C700077FD00BFFFF798FF904801F0DCFD8F481B
:102C800001F0BAFD0028F5D18D4D8E4F002400BF14
:102C900004EB840005EB400188480A3101F08EFD09
:102CA00047F82400641C052CF2DB874DDFF81C82FA
:102CB00005F11400A5F11807049007F11400039022
:102CC00005F10800029007F1080005F10C0B07F16F
:102CD0000C0A4FF00009A5F150040190774801F06B
:102CE0008BFAA068052817D2DFE800F00310101057
:102CF000140077A319224021704801F0FDFC75A350
:102D000032223D216D4801F0F7FC05E0206900F01A
:102D1000E9F801E0FFF77EF9FFF746FF674801F0A9
:102D20008AFDD8F8000028B94FF0FF3269463068B4
:102D300003F0D2F99DF80000012804D09DF80100AD
:102D400001284DD090E0D8F80010491CC8F80010B8
:102D5000A06804282DD005282BD2DFE800F0030B53
:102D6000151D2F000122291D574802F0F7FC0122F2
:102D7000391D06E001225448029902F0EFFC019946
:102D800001225148183812E0012259464E4802F0FB
:102D9000E5FC01225146F4E74B49012210314A4833
:102DA00002F0DCFC484901220839A1F1100002F0D0
:102DB000D5FCD8F80000142808D046E0012242488B
:102DC000049902F0CBFC01220399DAE7A0680428F9
:102DD00001D0401CA060C8F800908DF800903EE043
:102DE000D8F80010491CC8F80010A06848B305289E
:102DF00027D2DFE800F026030B131B000122324824
:102E0000049902F0ABFC0122039916E00122291D6E
:102E10002D4802F0A3FC0122391D0EE001222A48B0
:102E2000029902F09BFC0122019906E00122594619
:102E3000254802F093FC012251462348183802F03D
:102E40008DFCD8F80000142801D040B10CE0A06837
:102E500008B1401EA060C8F800908DF80190642170
:102E600040F6C41000F034FC9DF8020001280CD19B
:102E7000642140F6C41000F02BFC2069401C00EBDC
:102E8000D07121F00101401A20619DF80300012852
:102E90007FF424AF642140F6C41000F019FC104800
:102EA000006802F011FE002002F090FE16E700001C
:102EB000340000200010014024670008283700205B
:102EC000C0E70008BC37002038050020B00400200F
:102ED00040474E00323032322F30352F323700002B
:102EE0001400002038B504462823162246211B482A
:102EF00001F078FA28231A464621184801F072FAA0
:102F00000F20BCB1012C14D1009009231F226E2187
:102F1000124801F0CBF912A3242245210F4801F0F9
:102F2000EBFB062009231F22462100900B4801F0ED
:102F30009DF938BD009009231F224621074801F062
:102F4000B5F908A322226421044801F0D5FB092029
:102F50001F2203466E210090E8E70000283700207A
:102F60006F6666006F6E0000A8B000F0C9FBDFF866
:102F7000F881D8F8000002F029FE7C48006802F0D1
:102F800025FE7B48006802F021FE7A48006802F0C6
:102F90001DFE7948006802F019FE7848006802F0CA
:102FA00015FE00220421012002F0ECFEDFF8D09192
:102FB000744B754AC9F80000744902A801F09AFCE4
:102FC00002A802F07CF9002102A802F088F902A808
:102FD00001F01BF96E4902A801F044FC6D4D012778
:102FE00005F1080B05F1280A02A801F005F96A4865
:102FF0000A24CDE9004000221723114602A801F05F
:1030000089FB66481723CDE900400022692102A808
:1030100001F080FB6878624EBBF81810C0EB00101E
:1030200006EBC00089B2CDE90010BBF814005C4685
:1030300083B2BBF8100082B2BBF80C0081B202A8C8
:1030400001F068FBA878218BC0EB001006EBC000F4
:1030500089B2CDE90010A08A83B2208A82B2208989
:1030600081B202A801F056FBBAF80C1089B2CDE982
:103070000017BAF80810BAF800008BB2BAF80410BA
:103080008AB281B202A801F0C3FA4248383081897D
:1030900089B2CDE9001701898BB2818800888AB294
:1030A00081B202A801F0B4FAE878218BC0EB0010DD
:1030B00006EBC00089B2CDE90010A08A83B2208A55
:1030C00082B2A08881B202A801F024FB2879218B6A
:1030D000C0EB001006EBC00089B2CDE90010A08A59
:1030E00083B2208A82B2208881B202A801F012FB4A
:1030F0002C4CA879082604EBC000CDE9006006231B
:103100000222382102A801F005FB6879062304EBAE
:10311000C000CDE900600222422102A801F0FAFAC3
:1031200002A801F088FBFA2002F066FC287828B992
:10313000002227A9D9F8000002F0CEFF9DF89E00DA
:1031400001287FF451AF642140F6C41000F0C0FAAA
:10315000D8F8000002F0B8FC002002F037FD002093
:103160008DF89E0040E700001400002020000020A1
:10317000240000201C00002018000020280000204F
:1031800034000020A9510008815300087CDF0008AA
:10319000E6B60008C8000020E0E00008FEE00008F5
:1031A00058E1000880E600082DE9FC415D485C4AD2
:1031B000818989B2CDE9001201898BB281880088AA
:1031C0008AB281B2584801F0A5FA5648574A1030E1
:1031D000818989B2CDE9001201898BB2818800888A
:1031E0008AB281B2504801F095FA4E4C5049183CD1
:1031F000606800EB800001EB400304F13800818837
:1032000000888AB281B2484801F076FA4949A1F1B2
:103210001500B0F8A42092B2CDE90021B0F8A010BA
:103220008BB2B0F89C10B0F898008AB281B23E48D8
:1032300001F070FA4049A1F11500B0F8A42092B253
:10324000CDE90021B0F8A0108BB2B0F89C10B0F816
:1032500098008AB281B2344801F05CFA3749A1F192
:103260001500B0F8A42092B2CDE90021B0F8A0106A
:103270008BB2B0F89C10B0F898008AB281B22A489C
:1032800001F048FA2E49A1F11500B0F8A42092B23D
:10329000CDE90021B0F8A0108BB2B0F89C10B0F8C6
:1032A00098008AB281B2204801F034FA2549A1F190
:1032B0001500B0F8A42092B2CDE90021B0F8A0101A
:1032C0008BB2B0F89C10B0F898008AB281B2164860
:1032D00001F020FA0F260096207804F11007E37819
:1032E000395CA278104800F0E1FF00250096795D76
:1032F000E378A2780C4800F0B9FF6D1C052DF5DBD2
:1033000008483030818989B2009101898BB2818867
:1033100000888AB281B2044800F0E8FFBDE8FC8171
:103320001CE1000870040020283700203AE1000862
:10333000E0E6000825010020CD01002075020020F4
:103340001D030020C5030020084C08B5E06948B102
:1033500002F0FEFF02460020034600900121E069D2
:1033600003F084F9012000F043FAFBE7100000208D
:1033700010B5502080F31188BFF34F8FBFF36F8FCC
:1033800002F0ECFF18B104494FF0805008600020B3
:1033900080F3118810BD000004ED00E030B58FB05F
:1033A00028216846FDF71DF814210AA8FDF719F831
:1033B00001210804CDE900100024029402250491A3
:1033C000CDE907504FF4E01009906846FDF708FE7C
:1033D00008B172B6FEE70F20CDE90A054FF4806010
:1033E000CDE90C4002210AA80E94FDF70DFD00283E
:1033F00001D072B6FEE70FB030BD70470020FEF777
:1034000085BD00000148FEF7D8B80000A4050020E3
:103410000148FEF7D2B80000EC050020F0B50268C4
:10342000164B174C174D4FF08047984205D0B842C5
:1034300003D0A04201D0A84203D122F070064A680E
:103440003243984205D0B84203D0A04201D0A842EE
:1034500003D122F44074CA6822434C6922F08002EE
:10346000224302608A68C2620A688262984201D17D
:103470000969016301214161F0BD0000002C014098
:10348000000400400008004010B501F01F030121B6
:10349000046A99408C430462016A9A4011430162B4
:1034A00010BD10B5846842EA032224F47F440A4325
:1034B0002243826010BD826822F070020A4342F00B
:1034C000070181607047000030B5036A026A22F08C
:1034D000010202624268846924F073050C682C437F
:1034E00023F002058B682B430A4DA8420BD123F031
:1034F0000805CB6822F440722B434D6923F0040386
:1035000015438A692A4342608461496841630362C2
:1035100030BD0000002C014030B5026A036A23F080
:1035200010030362436884690D6824F4E64444EAA6
:1035300005248D6822F0200242EA05120B4DA842B4
:103540000ED1CD6822F0800242EA05124D6923F4C3
:10355000406343EA85038D6922F0400243EA850314
:103560004360846149688163026230BD002C014080
:1035700030B5036A026A22F4807202624268C4694A
:1035800023F4007324F073050C682C438D6843EA20
:1035900005230C4DA8420ED1CD6823F4006343EA05
:1035A00005234D6922F4405242EA05128D6923F445
:1035B000806342EA05124260C4614968C1630362E4
:1035C00030BD0000002C014030B5046A026A22F4CC
:1035D000805202624268C3690D6823F4E64343EAFD
:1035E00005238D6824F4005444EA0534064DA842AE
:1035F00004D14D6922F4804242EA85124260C361DF
:1036000049680164046230BD002C014010B5036AB2
:10361000046A24F001040462846924F0F00444EA9A
:10362000021423F00A020A438461026210BD10B53D
:10363000036A046A24F010040462846923F0A0037E
:1036400024F4704444EA023243EA011182610162C7
:1036500010BD000014484178491CCAB200214270D4
:10366000092A03D941708278521C82708278052A17
:1036700003D98170C278521CC270C278092A03D95A
:10368000C1700279521C02710279052A03D90171B5
:103690004279521C42714279052A03D941718179DC
:1036A000491C817170470000C8000020FEE709072F
:1036B000090E002804DB00F1E02080F800147047B8
:1036C00000F00F0000F1E02080F8141D70470000AA
:1036D00038B50C460849096800290BD13221FEF79C
:1036E00055FC00200346009004482246042100684F
:1036F00002F0BCFF38BD0000F8040020C400002028
:1037000008B5FEF70FFC0548002300901A46C821B3
:1037100003A002F061FF0549086008BDFD33000801
:1037200053797374656D536F756E6400C400002027
:1037300030B50546012802D00023012409E001200C
:1037400030BD204600F011F801280BD003F26D13B4
:10375000641CAC42F5DB07205B1C93FBF0F100FB23
:10376000113030BD03F5B773F2E74FF4C87190FB29
:10377000F1F201FB120139B1810707D1642190FBFD
:10378000F1F201FB120008B10120704700207047E0
:10379000FDF768FAFFF702FEFEF7E6FAFEF75CFBBC
:1037A000FEF77AFB00F03EF8FEF718FA00F056F844
:1037B000FEE770B5054600244FF47A7603E0304604
:1037C00001F0A4FF641CAC42F9DB70BD0D2809D2E6
:1037D000DFE800F0080B070B090B090B0B090B09BD
:1037E0000B001D2070471E2070471F2070470000EF
:1037F00010B5EFF3058149B9EFF3108131B90849EC
:103800000968022905D1EFF3118111B16FF00504A8
:1038100003E0002408B102F0EFF8204610BD0000DC
:103820008C000020EFF3058058B9EFF3108040B909
:1038300009490868022801D030B109E0EFF311808E
:1038400030B16FF00500704701200860002070471C
:103850004FF0FF30704700008C00002010B5EFF3F0
:10386000058060B9EFF3108048B90B490868022859
:1038700002D0012806D00BE0EFF3118040B16FF0C9
:10388000050010BD0220086002F05CF9002010BDA8
:103890004FF0FF3010BD00008C000020F0B585B067
:1038A0004FEA01034FF00004EFF305810394A1BB3D
:1038B000EFF3108189BB21490968022902D1EFF396
:1038C000118151BB48B3802618218DF8104004ADFA
:1038D00042B3176807B13D4697691FB139467F1E4D
:1038E000382F02D21779FF0702D0002005B0F0BDB3
:1038F000576907B1BE08D2F808C0BCF1000F0DD05F
:10390000D4685C2C18D312693AB137B18DE806102F
:103910003246294602F0E3FC03900DE0D7685FB918
:1039200012694AB903AACDE90012B2B2294602F0DF
:10393000A9FC012800D003940398D7E78C0000204D
:103940002DE9F041134C0F46054666692068001DBD
:1039500001F023FF681C07D137B12168BDE8F041B1
:103960000D48091D01F068BF20683544B542456027
:10397000216805D2A068BDE8F041091D01F044BFEF
:103980006068091D01F040FF206B854200D225636D
:10399000BDE8F0813C000020240B00202DE9F0411F
:1039A000054601F055FF2D4C2069401C2061206820
:1039B0002B4F10B1E06930B32BE02560206901285E
:1039C00027D1002606EB860007EB800001F00EFFF2
:1039D000761C382EF6D3234801F008FF2148143016
:1039E00001F004FF1F48283001F000FF1D483C3063
:1039F00001F0FCFE1B48503001F0F8FE19486060F1
:103A00001430A06005E02068E96AC06A884200D8E6
:103A10002560E06A401CE0626864E86AA169884247
:103A200000D9A06100EB800007EB8000291D01F0A8
:103A300003FF01F02DFFE06900280CD02068E96A3F
:103A4000C06A884207D208494FF080500860BFF32F
:103A50004F8FBFF36F8FBDE8F08100003C00002066
:103A600074060020D40A002004ED00E038B501F00F
:103A7000EFFE104CA068C8B90F4801F0B7FE0E4821
:103A8000143001F0B3FE0C482060143060600A4B23
:103A900000202833009003F1500210210A2002F088
:103AA00095F9A06010B105A101F070FFBDE83840A4
:103AB00001F0EEBE78000020380B0020546D7251EA
:103AC0000000000030B4026C0B46002A0BD0C16825
:103AD0001144C1604468A14201D30168C16030BC97
:103AE0001846FCF7DDBB30BC70472DE9F041856B13
:103AF000174604460026026C82B1C7B1E068FCF7A5
:103B0000CFFBE168206C091AE1602268914202D281
:103B10006168081AE060022F16D017E02068A8B983
:103B2000606802F07FFC0646002060600EE0A0683E
:103B3000FCF7B6FB216CA0680844A060616888426D
:103B400004D32068A06001E005B16D1E6D1CA56363
:103B50003046BDE8F08110B5044690F8590058B1E0
:103B600001280CD002280FD0502080F31188BFF319
:103B70004F8FBFF36F8FFEE7206B01F09DFE204655
:103B8000BDE8104001F098BE10BD000010484FF491
:103B90000051420706D0C01D0D4920F00700411A10
:103BA000C1F500510B4A00230144C2E90003083962
:103BB000103A21F0070111604B600B600B1AC0E94D
:103BC000001393604FF000405360D06070470000D6
:103BD00008130020A0000020144E154CA6F29C47AC
:103BE0004FF08058DFF84C9012E000BF01F030FE3B
:103BF000F068C568281D01F0D0FD2069401E2061D5
:103C0000E068401EE06001F043FE2846FFF7A3FF96
:103C1000E0680028EAD138680128F9D9C9F800809D
:103C2000BFF34F8FBFF36F8FF2E70000100B002040
:103C30003C00002004ED00E070B51D46049C51B12D
:103C4000C4F80020C4E90F010121204602F0F2F877
:103C500084F84C5070BD2460F4E72DE9F0470E461F
:103C6000DDE909841746824691009946089DA52200
:103C7000206BFCF78CFB6FF00301206B01EB8701DD
:103C8000084420F00707780707D0502080F31188F8
:103C9000BFF34F8FBFF36F8FFEE72218315C82F8BE
:103CA0003410315C11B1401C1028F6D3002684F882
:103CB0004360382D00D33725E562C4E91356201D33
:103CC00001F09FFD04F1180001F09BFD2461C5F196
:103CD00038006462A061666584F858604A465146BF
:103CE000384600F077FA2060B8F1000F01D0C8F82C
:103CF0000040BDE8F0872DE9F0471E46DDE9089455
:103D000017460D0080460ED0002C14D0FFF7AEFEF3
:103D1000C4F80080C4E90657C4E90869201DBDE85D
:103D2000F04701F06EBD502080F31188BFF34F8F34
:103D3000BFF36F8FFEE7BDE8F087000030B5114993
:103D400000E011460A688242FBD34B685C1884424B
:103D500003D1406818444860084643681C189442E0
:103D600009D1084C103C2468A24209D052681A4478
:103D700042600A6812680260814200D0086030BD6B
:103D80000460F9E7A000002070B5002441600B4DED
:103D90000061914206D8D11A8269914206D2011D72
:103DA000686807E09A4203D2994201D3012403E0F4
:103DB000011D286801F028FD204670BD7800002014
:103DC00010B5044601F044FDA06B28B15FF000047B
:103DD00001F05EFD204610BD0124F9E730B589B041
:103DE000304D55E00498002806DADDE90601059A11
:103DF0009047049800284BDB069C606910B1201D99
:103E000001F0CBFC02A800F0B9F8024604980A2899
:103E10003ED2DFE800F00505053D263705053D26C5
:103E20000598A169034601442046FFF7ADFF00B3A2
:103E3000616A20468847E069012829D10020009066
:103E40000598A169002342181946204602F00EFC8D
:103E500078B9502080F31188BFF34F8FBFF36F8F75
:103E6000FEE70598A06128B1811813462046FFF7A8
:103E70008BFF0DE0502080F31188BFF34F8FBFF30D
:103E80006F8FFEE794F82C0010B9204601F014FD66
:103E9000002204A9A86802F01FF90028A2D109B0E5
:103EA00030BD0000780000202DE9FC410F4605469A
:103EB00001F0DAFE01A800F061F80446019818B19B
:103EC00002F028FBBDE8FC81224EAFB170680068AB
:103ED000A8B30027291B3A46B06801F06BFD02F039
:103EE00019FB0028EED11C494FF080500860BFF349
:103EF0004F8FBFF36F8FE5E7A542EBD802F00AFBC7
:103F000030682746C068C468201D01F046FCE0699F
:103F1000012810D1A0692B4641193A462046FFF7E7
:103F200033FF40B100200346014600902A46204658
:103F300002F09CFB20B1616A20468847C2E707E097
:103F4000502080F31188BFF34F8FBFF36F8FFEE7D0
:103F50000127BFE77800002004ED00E00648416833
:103F6000096829B14168C968C9684968016370472F
:103F70004FF0FF31FAE700003C00002070B5054625
:103F800002F0E6F9064E04463069844203D200F09E
:103F900009F8012000E0002028602046346170BD4F
:103FA00078000020F8B5194D1FE0C068C4680668A5
:103FB000201D01F0F2FB616A20468847E069012874
:103FC00013D1A0693044B04206D924616060211D3C
:103FD000286801F019FC08E0002003460146009023
:103FE0003246204602F042FB38B1286801680029B9
:103FF000DBD16968C5E90010F8BD502080F3118855
:10400000BFF34F8FBFF36F8FFEE7000078000020F3
:1040100008484068401C4FF0500080F3118804D0DD
:10402000BFF34F8FBFF36F8FFEE7BFF34F8FBFF329
:104030006F8FFEE7A8000020002150B10A4B4269B3
:104040009A420FD1806AA3F1280290420AD040B16F
:1040500008E0502080F31188BFF34F8FBFF36F8FBC
:10406000FEE7012108467047240B0020074C20681A
:10407000016841B1C0680021D0F80000FFF714FFCB
:10408000FFF7ACFEF3E701210020F7E778000020FE
:104090002DE9F041044601F0DBFB94F9455004F1B1
:1040A000240609E0606A48B1304602F0FBF908B125
:1040B00001F0D0FC6D1E6DB2002DF3DC4FF0FF3629
:1040C00084F8456001F0E4FB01F0C2FB94F9445030
:1040D00004F1100709E0206948B1384602F0E2F91E
:1040E00008B101F0B7FC6D1E6DB2002DF3DC84F851
:1040F0004460BDE8F04101F0CBBB00002DE9F04188
:104100000546002701F0B0FD314E306808B9FFF7D1
:104110003DFDF06805424BD1C5B3083568070ED0A8
:1041200005F00700C0F108000544680707D05020DB
:1041300080F31188BFF34F8FBFF36F8FFEE72DB36E
:104140007068854234D82248103001460C6801E07E
:1041500020460C466168A94202D221680029F7D1A5
:1041600031688C4224D00768216801606068083794
:10417000411B10290FD96019420708D0502080F345
:104180001188BFF34F8FBFF36F8FFEE710E04160E0
:104190006560FFF7D3FD61687068401A7060B268AF
:1041A000904200D2B060F06801430020C4E90001F1
:1041B00002F0B0F9780707D0502080F31188BFF3E0
:1041C0004F8FBFF36F8FFEE73846BDE8F0810000E8
:1041D0009000002010B5031F4FF080741C601B1F5F
:1041E00021F001011960191F024B0B60143940388E
:1041F0000A6010BD1140000801680A7C90F8381070
:10420000406B5143C900FCF7CAB810B5044600F032
:10421000A7FA204600F0F0FA0028FAD12046BDE8BF
:104220001040002100F010BB2DE9F8438146089CA6
:104230001E46101980B20090881983B21546884630
:10424000484600F0C1FA00280ED00027002C0BD001
:1042500033462A4641464846009700F0C9F86D1C8F
:10426000641EADB2A4B2F1E7BDE8F8832DE9F843CE
:104270001C4680461019401C80B200900819401C52
:1042800083B21546101B82B20E46081B81B2089FEE
:10429000404600F099FA002806D023462A463146C7
:1042A0004046009700F0FEFBBDE8F8832DE9F84397
:1042B0001C4680461019401C80B200900819401C12
:1042C00083B21546101B82B20E46081B81B2089FAE
:1042D000404600F079FA002806D023462A463146A7
:1042E0004046009700F070FCBDE8F8832DE9F84FD8
:1042F00083460A9E9A46901980B201EB0A04009008
:1043000015460F46A3B2584600F05EFA00282FD09B
:104310004FF0000953462A4639465846CDF80090DA
:1043200000F066F8022E23D3B61E360405F101050F
:10433000360CADB214D04FF0010833462A46394648
:104340005846CDF8008000F053F8641EA1B2334601
:104350002A465846CDF8008000F04AF8A81985B2E0
:1043600053462A4639465846CDF8009000F040F8AA
:10437000BDE8F88F2DE9F041044690F870001F4623
:1043800015460E4630B1012809D002280CD003286A
:1043900015D10FE0E16D20468847284408E0E16D23
:1043A00020468847301A09E0E16D20468847281AE0
:1043B00085B204E0E16D20468847304486B2284645
:1043C000A4F86460A4F8660039460025204600F091
:1043D000D7FD010003D0204600F002FD85B228463B
:1043E000BDE8F08138B50024009400F001F838BD34
:1043F0003FB581B0044690F88C00089900283AD067
:10440000BDF81000002836D0012811D9022902D0A9
:10441000032907D00CE0BDF80820101A401CADF8A5
:10442000080005E0BDF80C20101A401CADF80C0087
:1044300011F0010521D0B4F84810BDF80800814200
:1044400019D8B4F84A10814215D9B4F84E30B4F8EE
:104450004C2004A90DF10C0000F0E4FA00280AD069
:104460000095206BBDF81030BDF80C208568BDF8B4
:1044700008102046A84705B030BDB4F84C10BDF870
:104480000C008142F7D8B4F84E108142F3D9B4F849
:104490004A30B4F8482004A902A8DDE72DE9FF4F0F
:1044A00081B090F89270DDF838901D468846064637
:1044B0009FB10020834603984146401C80B2009083
:1044C00008EB050083B23046039A00F07DF900281E
:1044D0002BD001244FF0000A23E00120EAE700BFBF
:1044E00099F80000204202D086F8927004E096F815
:1044F000910048B986F892B00123CDF800A041465A
:104500003046039AFFF774FF08F101001FFA80F8A4
:10451000600010F0FF0402D1012409F101096D1EB1
:10452000ADB2002DDCD186F8927005B0BDE8F08FF9
:104530002DE9FF5F1C460E984FF00009A14201D9FA
:104540000B1B00E0631A9DB2824201D9131A00E0EE
:10455000831A9EB2AE420AD92B4635461E460B46FA
:1045600011461A46234604464FF001091846A14257
:1045700005D90B4621461C461346024618464FEA0B
:104580005508904201D9012001E04FF0FF308246EA
:10459000A4F57F409346FF3801D1641EA4B20F46B4
:1045A00018E000BFB9F1000F18D03A4659460098FC
:1045B00000F017F8A8EB060000B25FEA000807D584
:1045C0000BEB0A001FFA80FB08EB05000FFA80F8DE
:1045D0007F1CBFB2A742E5D9BDE8FF9F5A463946C6
:1045E000E5E708B5B0F84C30934210D8B0F84E303B
:1045F00093420CD9B0F848308B4208D8B0F84A3012
:104600008B4204D9002300930123FFF7F1FE08BD7C
:104610002DE9FF4F83B01F46DDE910A402EB0A0627
:10462000B0B2CD19009090468946ABB2039800F025
:10463000CBF800285CD009EB04001FFA80FB08EBE4
:10464000040081B2281B401E85B2301B401E80B280
:10465000CDE9010102200A460090234659460398FD
:10466000FFF724FE01200090DDE9022023462946C1
:10467000FFF71CFE0420009023465946019A039838
:10468000FFF714FE0820009023462946019A03985C
:10469000FFF70CFE0BF101011FFA81FB0299381B99
:1046A000491C001B80B289B20291032811D3801EDD
:1046B00086B2601C85B2334642465946009503983F
:1046C000FFF7B2FD334600955946019A0398FFF76C
:1046D000ABFDAAEB0400001B80B2032808D3801EA8
:1046E00080B20090DDE902203B464946FFF79CFD81
:1046F00007B0BDE8F08F000030B4024C446030BC1D
:1047000000F00CBB4553000838B501240094FFF7B6
:104710006FFE38BD2DE9F84F8246DDE90A57D81DF6
:10472000C0F3CC08501980B21C460090081983B21F
:1047300016468946504600F047F800280ED00BE098
:1047400023463246494650460097FFF7A7FE761C9F
:104750006D1E4744B6B2ADB2002DF1D1BDE8F88F61
:1047600010B5044690F8930010B12046FFF744FDC1
:104770002046BDE81040002100F066B870B5044640
:1047800000F0FEFB010016D0204600F03CFC04F1D6
:10479000600094F87A10054600F0FDFA84F8900065
:1047A00014F87B1F284600F0F6FA61782846BDE829
:1047B000704000F0F0BA002070BD0000014A426075
:1047C00000F0FEBC4553000870B50D461E46044679
:1047D000B0F84E10B0F84C00049B00F02EFC0028FE
:1047E00009D0B4F84A10B4F8480033462A46BDE868
:1047F000704000F022BC70BD70B5044600F0ADFC06
:1048000094F8390094F838100844C5B22068407C08
:10481000A84204D8204600F05AFD002070BD94F84C
:10482000930010B12046FFF7E7FC2946204600F030
:104830000BF8012070BD10B5044600F08EFC204638
:10484000BDE8104000F043BD10B5044680F83910B3
:10485000006B016820468847206B41682046BDE810
:104860001040084710B50446806D884209D004F115
:104870007400A16500F03CFC2046BDE8104000F04B
:1048800055B810BD0149C16570470000934D00083F
:104890000021A0F85010A0F854104FF6FF71A0F8B6
:1048A0005210A0F85610016B4968084770B50446CD
:1048B00000250498A565E362616384F8382084F8D4
:1048C000395084F86D5084F8915084F88D5001214E
:1048D00084F8921084F8931020630168204688477A
:1048E0002046FFF7D5FF2046FFF7CCFF84F8705035
:1048F00070BD00007CB50C46009313460546084A7F
:10490000084900F0F4FC01A800F0ECFB0146064B5E
:1049100000949DF804202846FFF7C8FF7CBD0000E6
:104920009D540008C55500085550000810B5816D0C
:1049300000291AD090F9813080F88E3090F98220C9
:1049400080F88F2090F88D1000290ED001290DD00D
:1049500090F97E4090F980100C449C4201DD80F873
:104960008E408A4201DD80F88F1010BD90F98310CF
:104970008B4201DA80F88E1090F98410F1E72BB1A8
:10498000012B05D0022B06D0104402E0084400E0C1
:10499000801A80B27047401AFBE72BB1012B05D07B
:1049A000022B06D0401A02E0104400E0084480B216
:1049B0007047801AFBE738B50446B0F856000090FF
:1049C000B4F85230B4F85420B4F850102046FFF731
:1049D000FBFE18B3012084F88C00B4F84810B4F83A
:1049E0005000814201D2A4F84800B4F84A10B4F84B
:1049F0005200814201D9A4F84A00B4F84C10B4F82E
:104A00005400814201D2A4F84C00B4F84E10B4F81E
:104A10005600814201D9A4F84E0038BD002084F828
:104A20008C0038BD30B504880D882544ADB2AC4249
:104A300005D99C4202D25D1EADB200E014469C42F4
:104A400001D2954201D8002030BD944200D21446D4
:104A50009D4200D91D460480281B0880012030BDDE
:104A600010B50B4B0B4A0C490C48FFF743FF0B48A2
:104A700000F025FC0021094800F031FC0748FFF751
:104A8000C4FBBDE8104006490448FFF7EBBE000038
:104A9000A9510008815300087CDF00082837002056
:104AA000B07200082DE9FF4FC3F1010083B006B2D8
:104AB00058429146DDF840A040008B4601271C4635
:104AC000CDE9009A00250FFA80F85B462246294678
:104AD00015E0002E08DB08F102000FFA80F8641ED2
:104AE00006EB0800A4B206B26D1CBF1C3FB2CDE9B4
:104AF000009AADB2F01906B25B46224629460398E9
:104B000000F005F8A542E4D307B0BDE8F08F2DE929
:104B1000FF4F83B00E46DDE9108703EB06000290DD
:104B20001546A8EB0600019003EB05001C46F907AB
:104B3000A8EB050B00900DD002981FFA8BF281B202
:104B40000398FFF74EFD019882B2009881B2039856
:104B5000FFF747FDB907A4EB060AA4EB05090DD53D
:104B60001FFA8BF21FFA8AF10398FFF73AFD0198BA
:104B70001FFA89F182B20398FFF733FD08EB0504B1
:104B8000390708EB06050BD50298A2B281B203984B
:104B9000FFF727FD0098AAB281B20398FFF721FD25
:104BA00078070ED5A2B21FFA8AF10398FFF719FD14
:104BB000039807B0AAB21FFA89F1BDE8F04FFFF7DA
:104BC00010BD07B0BDE8F08F2DE9FF4FC3F1010024
:104BD00083B006B258429146DDF840A040008B46B3
:104BE00001271C46CDE9009A00250FFA80F85B46A4
:104BF0002246294615E0002E08DB08F102000FFAD4
:104C000080F8641E06EB0800A4B206B26D1CBF1C3F
:104C10003FB2CDE9009AADB2F01906B25B4622462A
:104C20002946039800F005F8A542E4D307B0BDE893
:104C3000F08F2DE9FF4F83B0164610980F46A0EB7A
:104C4000060B03EB070001901098DDF84490A0EBF1
:104C5000070098465FEAC97103EB060A02F10105F5
:104C600007F1010400900FD00198ABB281B21FFA96
:104C70008BF20398FFF748FD0098A3B282B21FFAA7
:104C80008AF10398FFF740FD5FEA8971A8EB0707F7
:104C9000A8EB06060DD5ABB21FFA8BF2B9B203989A
:104CA000FFF732FD0098A3B282B2B1B20398FFF7CA
:104CB0002BFD5FEA09700DD50198ABB281B2109A55
:104CC0000398FFF721FDA3B21FFA8AF1109A039807
:104CD000FFF71AFD5FEA49700ED5ABB2B9B2109A70
:104CE0000398FFF711FD109A039807B0A3B2B1B271
:104CF000BDE8F04FFFF708BD07B0BDE8F08F38B54D
:104D0000C58F049C0094521BC46A92B2A04738BD60
:104D100038B5049C0094FFF7F2FF38BD2DE9F04749
:104D20001C4691468846064600F0ECFC00254FF6EE
:104D3000FF7772682178304690470346B84225D005
:104D4000641CA3F57F40FE38F3D04A464146304606
:104D5000FFF710FB96F8701031B1012907D0022936
:104D600008D003290FD10AE008EB000104E009EBA9
:104D7000000106E0A8EB00011FFA81F803E0A9EBAF
:104D800000011FFA81F9284485B2D2E72846BDE820
:104D9000F0870020704710B50C4600F006F801229D
:104DA000641EA240801A40B210BD30B50568047B75
:104DB0002A78E2406318DBB2082B09D36D1C05602A
:104DC0002D78C4F10804A5401543083BEAB2DBB2D4
:104DD00001248C40641E14400373204630BD000043
:104DE0002DE9F843054600F1600400F00CF915F9CF
:104DF0006B6F2046E97BFFF7CEFF8146297C20467A
:104E0000FFF7C9FF0746697C20466B3DFFF7C3FFEC
:104E1000804694F90A00002857DDF019404247B255
:104E2000237CA0883A464946FFF7A9FDA080237C51
:104E30003A46E0884946FFF7B0FDE080A188277C2C
:104E400002460B4637B1012F0AD0022F40D0032F64
:104E50000FD146E094F90A7030443B449BB207E01E
:104E6000891B491C94F90A705B1C89B29BB23844B7
:104E700080B200902846FFF7A7FC30B300202072D4
:104E800084F8090095F876102046FFF78EFF8146DA
:104E900095F877102046FFF788FF0746002249461D
:104EA000284600F027F801223946284600F022F86B
:104EB00001212046FFF779FF0028EFD194F909007E
:104EC000B042DFDBA07B85F892004046BDE8F88366
:104ED00094F90A705B1CC91B491C89B29BB2921BD6
:104EE00004E094F90A7033449BB2D21B521C92B274
:104EF000401CBDE72DE9F74F84B00D46049C94F8A3
:104F0000687094F869806034A07AC01BC6B20196BC
:104F1000B54200D201954FFA88F279B2A088B4F870
:104F200006B0237C92468946FFF729FD0290237C38
:104F3000524649465846FFF730FD0246069808B1EA
:104F4000A17B02E0607B50B9E17B049880F892106D
:104F5000207C0090DDE901310498FFF749FAB54261
:104F600007D3A81BC5B208F10100002700F0FF0815
:104F7000CAE77819207284F8098007B0BDE8F08F7D
:104F800070B50D460146806D1730FF2D10D8612D8C
:104F900002D3B1F8881003E0412D02D3B1F8861096
:104FA0000844417819B30278AA42F9D1801C70BD37
:104FB000B1F88A100C1826460021304600F019F886
:104FC00004440221304600F014F8361DA842F3D301
:104FD0004FF6FF72207802EA00216078084306D07D
:104FE000A84201D1E01C70BDA0780444F2E7002083
:104FF00070BD08444FF6FF720178407802EA012143
:10500000084480B2704730B5054600F1600401667F
:105010000020207315F8781F2046FFF7C6FEA07207
:1050200069782046FFF7C1FEE072A87EA07310B138
:105030000020E07330BD0120FBE78A4205D28342A5
:1050400001D89A4203D9012070478342F9D8002041
:1050500070470000F0B502F007060124B4400025B7
:1050600090F892E0E7B2DDF814C02C46BEF1010FD3
:1050700001D83D4600D03C46076822F00702BCF14B
:10508000000F3F7C07FB02F7BAB2476B3A4411446A
:1050900009D108785B1E284360401B0401F8010B0E
:1050A0001B0CF6D1F0BD0A78761C2A436240A3F1AE
:1050B00001030A7016F007069BB206D06A06150EA9
:1050C0006206140E002BEED1F0BD428F114490F811
:1050D0009220012A03D800BF4FF00105F2D04FF013
:1050E0000104EFE7082101700048704708330020F1
:1050F00070B5054608782870487868708878A87078
:10510000C878E870087928714879687188790C4600
:10511000A871E079E871207A2872607A6872A07AC2
:10512000A872E07AE872207B2873607B6873A07BAA
:10513000A873E07BE873207C287411212046FFF7D8
:1051400058FF688213212046FFF753FFA8821521DC
:105150002046FFF74EFFE88270BD2DE9F843064672
:1051600090F8387090F83950006800244FF6FF78B6
:1051700090F81190316830462A460B7C716B04FB25
:1051800003FC1FFA8CFC08EACC0C6144009100215E
:1051900000F086F8641C6D1CE4B2EDB2BC4201D292
:1051A0004D45E7D3BDE8F88310B51046282905D052
:1051B000292901D0002010BDFBF74CFA012010BDB9
:1051C0002DE9F0470546002085F86A0088466FF013
:1051D0003F06284600F096FA002427464FF6FF794E
:1051E0004FF6FE7A6A6898F8001028469047014604
:1051F00048450FD008F101085145F3D02846FFF784
:10520000BDFA87B216F1400F01D195F99060E0190F
:1052100084B2E7E795F96A1049B1E01B084495F9B3
:105220009010002E084484B201DDA01984B22046FB
:10523000BDE8F087F0B590F838204FF6FF750368A9
:1052400005EAC2018187197C05EAC101418790F80E
:10525000394005EAC401C1875E7CA718B74201D96D
:10526000321B92B205EAC20220F8401F114441806D
:10527000998A8180D98AC180F0BDFFF7DBBF002108
:10528000A0F84810B0F84410A0F84A10B0F8401048
:10529000A0F84C10B0F84210A0F84E10FFF78BBBEE
:1052A0001CB58DF805108DF80620049C8DF804308F
:1052B0000094012284686B460F21A0471CBD30B4C6
:1052C00084680023A44630BC1A460A21604730B4E3
:1052D00084680023A44630BC1A461021604730B4CD
:1052E00084680023A4460A4630BC0B2160472DE9A0
:1052F000F04115460E460446069F00F009F8676126
:10530000A660C4E903532046BDE8F04100F012B89E
:10531000002140F8081B064A026042608260C260B9
:10532000C17681770161FF21017780F820107047F5
:10533000C956000830B484680023A44630BC1A461D
:1053400009216047080001D00A2801D14FF6FF70FB
:10535000704730B404690023A44630BC1A461921B2
:10536000604713B50122046901AB1721A0471CBD9A
:1053700030B404690023A44630BC1A4618216047A3
:1053800038B5154C182918D004DC142922D0172957
:1053900004D105E0192913D020291BD0002038BDE5
:1053A0000E4907E0A07813F8015B0D54401C521E13
:1053B000A070D2B2002AF5D10CE00020A07009E064
:1053C0004FF48071009190F82410A378034A0448A8
:1053D000FBF77CFB012038BDB4000020083700201B
:1053E0005005002030B4C4680023A44630BC1A46DF
:1053F0001921604730B4C4680023A4460A4630BC73
:105400001621604730B4C4680023A4460A4630BC65
:105410001521604730B4C4681346A4460A4630BC20
:1054200017216047F8B50C464FEA000514F8011B38
:10543000182924D00EDC152919D0162917D01729C0
:1054400023D120788DF800006A4601212846FFF715
:10545000E1FF0AE0192912D0FE2916D122788DF831
:1054600000202921284600F031F9641CDEE722786B
:105470008DF80020EE6800232846B047F5E70023AA
:10548000EE681A462846B047D0E7F8BD30B4C46885
:105490000023A44630BC1A46182160472DE9F0418C
:1054A000DFF8B08014460646A1F11402002798F8F0
:1054B00000001D46062A4AD2DFE802F02F03161B21
:1054C0003E4310B13046FFF744FF3046FFF750FF30
:1054D00000213046FFF745FF21463046FFF741FFE8
:1054E000012088F8000029E021463046FFF739FF07
:1054F00024E050B13046FFF72CFF06E0182130467B
:1055000000F0EAF8183CE4B21835182C2A46F5D811
:105510002146304600F0E0F80EE096F82400FF281F
:1055200002D1782086F8240037692B46224630467F
:10553000BC46BDE8F041604788F800700120BDE836
:10554000F0810028F8D03046FFF703FFF4E7002091
:10555000F5E70000B700002070B500234569044658
:105560001A462821A8470023E5681A461421204638
:10557000A84701224B21204600F0A8F820682921E5
:105580000279204600F0A2F800224B21204600F0CC
:105590009DF8206829210279204600F097F8012221
:1055A0004B21204600F092F82068292142792046BC
:1055B000BDE8704000F08AB80160897C80F8221054
:1055C0007047000070B50C46054600F019F888B920
:1055D000092C0BD00A2C01D0002070BD2846FFF703
:1055E000BBFF05492846FFF71DFF03E00349284696
:1055F000FFF7E2FF012070BDAEDF0008B0E0000859
:105600002DE9F0411E46144605460B2908D00D2908
:105610000ED00E291ED00F2927D00020BDE8F08122
:105620001AB12849FFF7FEFE4AE02649491FF9E76B
:105630004AB124490C31FFF7F5FE286890F81300B1
:1056400085F822003CE01F49491DFFF7EBFE286862
:10565000807CF5E7FFF71AFF81212846FFF7D2FE8D
:1056600021462846FFF7C6FE27E0FFF70FFF7079B7
:1056700095F8221001EBC000C7B240212846FFF781
:10568000C1FE102040EA17112846FFF7BBFE07F0C5
:105690000F012846FFF7AEFEB07940F0B001284672
:1056A000FFF7A8FE30793268C006010E2846FFF7E2
:1056B000B1FE641E14F0FF04F4D12846FFF792FEF9
:1056C0000120ABE78DDF00080020704730B444694B
:1056D0000023A44630BC60472DE9F04115460E4634
:1056E0000446FFF745FE40212046FFF73AFE2769B2
:1056F0002B46324617212046B8472046BDE8F041E8
:10570000FFF727BE002180F82610704730B50C4AFD
:1057100000211368DC6A4FF47A726043B0FBF2F543
:105720005A6A586A9042FCD002D9A0EB020202E009
:10573000A4EB0202024411440246A942F1D330BD57
:10574000EC05002002681144016070470268511A9C
:1057500001607047026811440160704710B503682A
:105760000C68A34205DA9C1804600B689C4200DDBB
:10577000036003680C68A34205DD9B1A03600A6896
:10578000934200DA0260026809688A4200D101602F
:1057900010BD0268511A01607047D0E901320169F9
:1057A0009A60D0E901235A604A68824201D1826836
:1057B0004A60002202610868401E0860086870475D
:1057C000034B036003F15C000860802010607047A9
:1057D000500C0020044B036003F15C0008604FF4A0
:1057E0008070106070470000AC0E002000F10801CE
:1057F0004FF0FF32C0E90112C16001610021016078
:10580000704700210161704730B50B685A1C02D007
:1058100000F1080202E0026904E0224654682568AB
:105820009D42FAD953684B6099608A605160086163
:105830000168491C016030BD42684A6093688B6012
:1058400093685960916008610168491C0160704764
:10585000502080F31188BFF34F8FBFF36F8F0A4939
:105860004868401C486001280CD10848006810F0C6
:10587000FF0F07D0502080F31188BFF34F8FBFF385
:105880006F8FFEE770470000A800002004ED00E0E5
:105890000849486828B1401E486001D180F311884A
:1058A0007047502080F31188BFF34F8FBFF36F8F85
:1058B000FEE70000A800002070B5002827D0144D96
:1058C000A0F108046168E868014207D1502080F324
:1058D0001188BFF34F8FBFF36F8FFEE722683AB195
:1058E000502080F31188BFF34F8FBFF36F8FFEE717
:1058F0008143616000F0B8F96068696808446860D5
:105900002046FEF71BFABDE8704000F003BE70BDF4
:10591000900000204FF0E0200021016181610549E5
:105920004FF47A720968B1FBF2F1491E4161072117
:10593000016170470C00002010B5FAF78DFC114989
:1059400010280ED300F1E02090F8F0030A7890427E
:1059500007D2502080F31188BFF34F8FBFF36F8FB2
:10596000FEE709480068896800F4E060884207D9CA
:10597000502080F31188BFF34F8FBFF36F8FFEE786
:1059800010BD0000A80000200CED00E010B5084B91
:10599000002200BF53F832401CB1521C082AF9D330
:1059A00010BD43F8321003EBC201486010BD000087
:1059B0003406002070B515460E460446FFF748FF32
:1059C00094F944100020491C01D184F8440094F952
:1059D0004510491C01D184F84500FFF759FFA06B21
:1059E00028B92A46314604F1240000F051F8204637
:1059F000BDE87040FEF74CBB10B5020014D00F4854
:105A0000806B38B1502080F31188BFF34F8FBFF304
:105A10006F8FFEE700F028F900211046FDF790FF98
:105A200000F078FD002807D105494FF0805008604C
:105A3000BFF34F8FBFF36F8F10BD00003C000020FD
:105A400004ED00E002498A6A0260496941607047DA
:105A50003C00002001490120486270473C000020C2
:105A600010B50C4650B1094909681831FFF7CCFE52
:105A70002046BDE810400121FDF762BF502080F3B1
:105A80001188BFF34F8FBFF36F8FFEE73C000020FC
:105A900070B514460D4668B10A4909681831FFF718
:105AA000CBFE0CB14FF0FF3521462846BDE87040D3
:105AB000FDF746BF502080F31188BFF34F8FBFF32F
:105AC0006F8FFEE73C00002070B504002AD01A4D0D
:105AD000286884422ED0FFF7BBFE2046FEF7ACFAC2
