:020000040800F2
:10000000282C002071020008372F00089B280008C8
:10001000352F00086F130008A93B000800000000FE
:10002000000000000000000000000000A501000822
:100030009B13000800000000E90100084138000897
:100040008B0200088B0200088B0200088B0200085C
:100050008B0200088B0200088B0200088B0200084C
:100060008B0200088B0200088B0200088B0200083C
:100070008B0200088B0200088B0200088B0200082C
:100080008B0200088B0200088B0200088B0200081C
:100090008B0200088B0200088B0200088B0200080C
:1000A000CD3800088B0200088B0200088B02000884
:1000B0008B0200088B020008D93800088B02000868
:1000C0008B0200088B0200088B0200088B020008DC
:1000D0008B0200088B0200088B0200088B020008CC
:1000E0008B0200088B0200088B02000800F002F867
:1000F00000F049F80AA090E8000C82448344AAF179
:100100000107DA4501D100F03EF8AFF2090EBAE876
:100110000F0013F0010F18BFFB1A43F0010318473B
:1001200048C1000068C10000103A24BF78C878C1F7
:10013000FAD8520724BF30C830C144BF04680C60ED
:10014000704700000023002400250026103A28BF35
:1001500078C1FBD8520728BF30C148BF0B60704739
:10016000642900F0C581002070471FB59DE8030099
:1001700000F042FB00F00DFA00F028FC1FBD10B5A6
:1001800000F08DFC10BD00F0F8FC1146FFF7EDFF0C
:1001900003F0C5FD00F0C0FE03B4FFF7F0FF03BCA1
:1001A00000F0F8FE224B19680868B0E8F00F80F301
:1001B0000988BFF36F8F4FF0000080F311884EF075
:1001C0000D0E70470000000006480068006880F3CC
:1001D000088862B661B6BFF34F8FBFF36F8F00DF41
:1001E00000BF00BF08ED00E0EFF30980BFF36F8FA1
:1001F0000F4B1A6820E9F00F106008B54FF050005F
:1002000080F31188BFF34F8FBFF36F8F05F07AFE35
:100210004FF0000080F31188BDE8084019680868B5
:10022000B0E8F00F80F30988BFF36F8F704700BF0D
:1002300018000020EFF30580704700000B49D1F84B
:1002400000C04A685CF8043B1068184442F8040B8C
:100250008C4528BFA1F1DC0C8A4228BFA1F1DC0249
:10026000C1F800C04A6020F000407047C42400205C
:100270000948804709480047FEE7FEE7FEE7FEE73A
:10028000FEE7FEE7FEE7FEE7FEE7FEE70448054976
:10029000054A064B70470000CB380008ED00000807
:1002A00028260020282C002028280020282800208C
:1002B00070B5064600F084FA056806F10B0020F0E0
:1002C0000704B4429CBF002070BD2B466A68BAB1D7
:1002D0001068A04210D304F1080188423CBF506866
:1002E000586007D35168101941601168091B0160FB
:1002F00058601460101D70BD13465268002AE7D183
:100300002146284600F064FA0028DED170BD70B5A1
:100310000446051F00F054FA0068002C14BF44681E
:1003200070BD002C18BFAC423CBF20466468F8D3B7
:1003300001680A18AA4218BF456003D12A68054619
:100340001144016028684119A1421CBF6C6070BD56
:100350006168696021680844286070BD70B50D4609
:100360000646041F00F02CFAD0F800C0C5B1E6B173
:1003700005F10B0020F00703AB423CBF002070BD2D
:100380002068984238BFDCF8042013D3C11A08292A
:100390002FD3E01840F8041B2360FFF7B8FF28E0D4
:1003A0003046FFF7B4FF002070BD2846BDE870401E
:1003B000FFF77EBF002A18BFA2423CBF9446526896
:1003C000F8D30119914216D111680844984212D30A
:1003D000C11A08293CBF2060506808D35168E01852
:1003E0004160216812681144C91A01602360CCF889
:1003F0000400201D70BD181FFFF75AFF050007D02D
:1004000021680A1F211D00F055F9201DFFF77FFF0D
:10041000284670BD0FB4044910B503AA029800F035
:10042000A1FA10BC5DF814FB202500200FB41CB508
:10043000074B06AA7B4469460090059800F071FAC4
:100440000020694600F080FA1CBC5DF814FB000037
:10045000110500000FB41CB50C0007AA009001D0D4
:100460002044401E074B7B4469460190069800F0EB
:1004700058FA002C03D06946002000F065FA1CBC35
:100480005DF814FBE90400002DE9F0410E46044636
:10049000002020622046E168884730B3252805D037
:1004A000D4E901219047206A401CF2E7E168204628
:1004B00000278847050018D0A5F14100192802D867
:1004C00020354FF400673246294620462760FFF763
:1004D00047FE40B1012804D0F61D26F00706083675
:1004E000D8E7361DD6E72846DAE7206ABDE8F0816E
:1004F0002DE9F0410646002410687529314616A5FD
:1005000010D0AFF30080002802DA404213A507E0C4
:1005100031688A0701D512A502E0490704D511A563
:10052000012401E0AFF3008000210A2206F1240734
:1005300009E0B0FBF2FCB0FBF2F302FB1C00303030
:1005400078541846491C0028F3D123462A463046E1
:10055000BDE8F04100F086B9000000002D00000069
:100560002B000000200000000B4910B5A1F17C0217
:100570000A4CC2E93712372106E000EB104342F87B
:100580002130074B00FB03400B1EA1F10101F4DCFD
:1005900010BD0120E8E7000064240020E119D666C0
:1005A000CD0D010040EA0103024630B59B0710D192
:1005B0004FF0013400E008C208C91D1B9D4315EA35
:1005C000C41FF8D013F0FF0102F8011B0DD01B0A65
:1005D000F8E711F8013B002B02F8013B05D011F8B8
:1005E000013B002B02F8013BF3D130BD10B5431C99
:1005F00002E010F8011B71B18107FAD14FF001320E
:1006000002C88C1A8C4314EAC211F9D0C01A0A0627
:1006100003D0C01E10BDC01A10BD0A0401D0801E38
:1006200010BD0902FCD0401E10BD032A40F23080EC
:1006300010F0030C00F0158011F8013BBCF1020F23
:10064000624498BF11F801CB00F8013B38BF11F8A4
:10065000013BA2F1040298BF00F801CB38BF00F8BB
:10066000013B11F0030300F02580083AC0F0088038
:1006700051F8043B083A51F804CBA0E80810F5E71C
:10068000121D5CBF51F8043B40F8043BAFF30080FF
:10069000D20724BF11F8013B11F801CB48BF11F874
:1006A000012B24BF00F8013B00F801CB48BF00F844
:1006B000012B704710B5203AC0F00B80B1E81850FC
:1006C000203AA0E81850B1E81850A0E81850BFF43C
:1006D000F5AF5FEA027C24BFB1E81850A0E81850DB
:1006E00044BF18C918C0BDE810405FEA827C24BF2F
:1006F00051F8043B40F8043B08BF7047D20728BFBD
:1007000031F8023B48BF11F8012B28BF20F8023B0B
:1007100048BF00F8012B704702F0FF0343EA0322B1
:1007200042EA024200F002B84FF000020429C0F091
:10073000128010F0030C00F01B80CCF1040CBCF113
:10074000020F18BF00F8012BA8BF20F8022BA1EB65
:100750000C0100F00DB85FEAC17C24BF00F8012B4A
:1007600000F8012B48BF00F8012B70474FF0000242
:1007700000B5134694469646203922BFA0E80C5097
:10078000A0E80C50B1F12001BFF4F7AF090728BF72
:10079000A0E80C5048BF0CC05DF804EB890028BFEE
:1007A00040F8042B08BF704748BF20F8022B11F017
:1007B000804F18BF00F8012B704770477047704793
:1007C00000487047D0250020704770477047704739
:1007D00038B504460A4600206946AFF30080002879
:1007E00008BF38BD02460099204600F0D1F801202C
:1007F00038BD012000F086B9F8B5AFF3008005469A
:1008000000200C46102000BF0646A819A0420DD9B2
:10081000324669460020AFF30080070008BF00F0B1
:1008200071F90098A04218BF0546C419FFF7C8FF28
:1008300005600746F01D20F007004619284600F025
:100840000AF8B44208BFF8BDA21B31463868BDE8BB
:10085000F84000F09DB800210160C0E90110704728
:10086000102070472DE9F0470D4699469246044600
:1008700000F124080168880604D5E06921F0100120
:10088000216000E00120A84201DD471B00E00027B5
:10089000A1697A1902EB0900081AA0612078C00644
:1008A00002D42046AFF30080002608E0D4E90121FD
:1008B0001AF806009047206A401C761C20624E45BC
:1008C000F4DB2078C0060AD52046AFF3008006E0AE
:1008D000D4E9012130209047206A401C2062381E54
:1008E000A7F10107F4DC07E0D4E9012118F80500BD
:1008F0009047206A401C2062281EA5F10105F3DC08
:100900002046AFF300802078000602D50220BDE823
:10091000F0870120FBE7000001694A1C02610878AA
:10092000704700B58FB0CDE901310021059105492F
:100930007944CDE9031011466846FFF7A5FD0FB0D5
:1009400000BD0000E5FFFFFF0A6802F8010B0A6026
:100950007047D1E900239A4202D2531C0B601070F9
:1009600070470000074B70B50D467B44FFF7D9FF79
:100970000446284600F026F810B14FF0FF3070BD55
:10098000204670BD9733000000487047C8250020FE
:10099000034640688C46002818BF88423CBF034687
:1009A0004068F8D318681844884207D00CF1030057
:1009B00020F00700001D411A521A0146081D0A6066
:1009C000FFF7A5BC007B00F08000704710B54248DF
:1009D0005421FFF7CBFE41485421FFF7C7FE4048A2
:1009E0005421FFF7C3FE3F493B483C4A3F4B086058
:1009F0003D490A603A491960531C0365481C10655B
:100A0000012008653B48344A39A1784400F0E8F9F0
:100A100020B9384878440A3800F08CFA37482F4A11
:100A200035A1784400F0DCF920B9344878440A381C
:100A300000F080FA32482A4A2FA1784400F0D0F919
:100A400020B92F4878440A3800F074FA402322482D
:100A5000DC000021224600F0A0F920B125487844AE
:100A6000543800F067FA1D4822464023002100F068
:100A700094F920B121487844543800F05BFA1848C2
:100A800022461023002100F088F9002806D01C48D7
:100A90007844BDE81040563800F04CBA10BD1048FC
:100AA00070B5006D20F001040B4800F00FFA0B4800
:100AB00000F00CFA0A4800F009FA09E0206D20F075
:100AC0000105204600F002FA2046FFF720FC2C46E4
:100AD000002CF3D170BD0000CC2400202025002084
:100AE00074250020080100200C01002010010020C6
:100AF0007200000022B80000770000000EB800006D
:100B0000FAB7000010B500F01DFABDE8104000F083
:100B10000CBA0EB5CDE90001FFF768FD02906946F9
:100B20000120ABBE0EBD08B5694600900220ABBEE9
:100B300008BD1FB58DE8070069460520ABBE04B0AF
:100B400010BD1FB58DE80F0069460620ABBEF6E765
:100B500008B5694600900920ABBE08BD1CB5CDE9BB
:100B6000000169460A20ABBE1CBD704708B5694646
:100B700000900C20ABBE08BD70477546FFF704FF20
:100B8000AE4605006946534620F00700854618B07A
:100B900020B5FFF77BFBBDE820404FF000064FF08B
:100BA00000074FF000084FF0000B21F00701AC46A2
:100BB000ACE8C009ACE8C009ACE8C009ACE8C009C1
:100BC0008D4670472DE9F04705460C46C86820F46D
:100BD000201040F48000C860800602D5084600F06E
:100BE000B2FAE06841F282014FF0FF390140022978
:100BF00003D0204600F050FAB5E000F42041B1F5F2
:100C0000004F0FD1C00306D56168E06A884200D862
:100C10000846606006E02069E06260606069FFF796
:100C2000A5FFA061A0680022EEB200280DDAE168FD
:100C30008B050AD4C043A06041F490302260E0608C
:100C40006068411C61600670A5E0E0689046226023
:100C500040F40050E060206968BB6069FFF778FFEE
:100C6000012704F12405A0B1A08910F4407F08D029
:100C7000E069FFF71DFB206118B1E06840F40060F7
:100C800016E0E7612561E06820F4407040F4806080
:100C90000EE0E069FFF70CFB00282061F1D0E0686E
:100CA00040F4006010F4407FE06002D140F48070B6
:100CB000E06020696060E06825696FF0010AC105A5
:100CC0001FD56168E06A884200D80846411B04D0FD
:100CD0002246284600F0EAF9F0BBE068010203D59D
:100CE000E562C4E9015854E0691CE1626160E169B0
:100CF00040F48030491EC4E9021030462E70BDE831
:100D0000F087010202D500F480320AE06068411CDD
:100D100061600670E0680A2E40F48030E06006D022
:100D20000022E16A6068814203D90B4602E0012299
:100D3000F7E70346A7895B1B7F0503D4E7699F425A
:100D400000DDE2B1814200D80146E5620F1AC4E934
:100D50000158002B09DD00E005E02246194628462F
:100D600000F0A4F908B14846C9E747B1A069E562B7
:100D70006560C01BA061E06840F01000E060E068C2
:100D8000000208D56168A069E562491B08446560F6
:100D9000A0615046B3E73046B1E770B5C468A50717
:100DA00013D0650211D4B2F5807F09D0B2F5007F6F
:100DB00006D0B2F5806F08D1012300F1240106E0CE
:100DC0005D1E6FF07F46B54201D3012070BD016109
:100DD000C361416024F470611143C160002070BDA3
:100DE0002DE9F0410C4607461646104600F06EF815
:100DF0002078611C61280AD0722802D077283CD163
:100E000002E00125002405E00225042402E0082474
:100E100048F2020511F8010B2B2806D0622809D0F0
:100E200011F8010C74280AD00BE045F0030544F0DA
:100E30000204EFE745F0040544F00104EAE744F05A
:100E4000100438462146FFF764FE411C15D00021EE
:100E5000316171604FF40071F560F16170612007DC
:100E600004D530460222002100F09AF8306D40F09F
:100E7000010030653046BDE8F0810020FBE72DE938
:100E8000F0410D460646104C206DC10704D04108C4
:100E900004D020F00104F7E722460EE05420FFF7CB
:100EA00007FA07000ED0206D47F0010108435421D6
:100EB00020653846FFF75AFC3A4629463046BDE8D9
:100EC000F0418DE70020D6E7CC2400202DE9F04743
:100ED00004464FF000094FF0FF37C568D4E9048697
:100EE000A80707D0204600F00BF93046FFF71BFE9D
:100EF000002802DA3846BDE8F087280502D54046CA
:100F0000FFF705FA4C212046FFF730FC206D20F05A
:100F1000010020654846EEE710B50446AFF30080B7
:100F20002046BDE81040FFF737B9002801D000F097
:100F300031B8704710B500F041F9BDE81040FFF737
:100F4000F4BF000010B5012805D0002103A000F077
:100F50001BF9012010BD09A1F8E7000053494752D1
:100F6000544D454D3A204F7574206F662068656179
:100F700070206D656D6F7279000000003A20486541
:100F80006170206D656D6F727920636F727275701C
:100F90007465640001491820ABBEFEE7260002001C
:100FA0002DE9F041044616460D464769007B80074F
:100FB0002ED03846FFF7CCFD50BB3EB3012E02D0F9
:100FC000022E25D104E0204600F019F905441DE069
:100FD0003846FFF7CBFDE168002841F01001E160E1
:100FE00005DA204600F058F80120BDE8F081C90379
:100FF0000BD56268E16A914200D81146A26911449A
:101000002269891A814200DD08460544002D01DA73
:101010000220EAE7E16A6068E268814206D2910351
:10102000E06203D522F4003141F01002A6690027E6
:10103000AE4213DCE16A814201D90B4600E003466F
:1010400003EB060C2369ACEB030CAC4506DD8142D7
:1010500001D98C4600E084469C4505D1A7602760F5
:1010600042F02000A5620DE0AD1BE669AE1B814297
:10107000A66000D90846C01A281A20605819606076
:1010800022F0200003490840E060002084F8487006
:10109000ABE70000BFCFD7FFC16821F4001141F0DA
:1010A0008001C16000218160016070472DE9F04737
:1010B000814614460E464FF0FF383248D5685769CE
:1010C000054209D03846A169FFF748FD002811DB29
:1010D0002C48C0430540E5602B4632464946384619
:1010E000FFF727FDA16920F00042B21A1144002841
:1010F000A16103D02046FFF7CFFF4046BDE8F0874F
:1011000070B504460569C06A6168884200D808461F
:10111000E16821F42011E160C90312D5A84208D08A
:101120002246411B2846FFF7C1FF10B14FF0FF30A8
:1011300070BD0020E562C4E90150E06820F4803011
:10114000E060002070BD10B50446C06820F02000AB
:10115000E060A16AA06988420DD02046FFF7D0FF69
:10116000E06820F4405040F01000E060A06AA06108
:101170002069E062606044F24001E0688843E0601A
:1011800010BD00001000020070B505460C460A2094
:1011900000E06D1C00F02CF835B128780028F8D15B
:1011A00002E0641C00F024F814B120780028F8D183
:1011B000BDE870400A2000F01BB8000010B50146E1
:1011C00002A0FFF7E1FF012010BD00005349475284
:1011D000545245443A2052656469726563743A20FA
:1011E00063616E2774206F70656E3A200000000006
:1011F00008B569468DF800000320ABBE08BD10B5E8
:101200000146C268900703D0900607D5886A0AE0B5
:1012100000F016F801210160881E10BD8B69486836
:1012200018440B69C01A91F848301BB191F8491065
:10123000401A10BD1103FCD50028FADD401E10BD78
:1012400000487047C82500202DE9F0419846154612
:101250000E46070015D01420FFF72AF8040010D01E
:101260003846FFF7C3F9401CFFF722F8206058B159
:101270003946FFF797F9002056B14DB16660A58158
:1012800008E00020BDE8F0812046FFF740F8F8E7CD
:101290006060A081C4F8088020612046F2E72DE953
:1012A000F0479846DDE9086A91460F46050022D0CE
:1012B0000FB31420FEF7FCFF041E1DD03846FFF7C5
:1012C00095F9401CFEF7F4FF2060B8B13946FFF7EE
:1012D00069F92068FFF78AF92071C4E902980027AC
:1012E00086B10820FEF7E4FF206180B30671216912
:1012F000C1F800A007E00020BDE8F0872046FFF716
:1013000006F8F8E72761686810B3A989491C01EB62
:1013100081018900FFF722F808B36860A9891422C7
:1013200001EB810100EB81002146FFF7C3F9A88999
:10133000401CA8812046FEF7EAFFA9896FF013023E
:1013400001EB8101686802EB81010844D4E70AE0FF
:101350001420FEF7ADFF686008B1AF81DEE72069B9
:1013600008B1FEF7D4FF2068FEF7D1FFC6E7FEE71D
:1013700030B590F840500124AC40C56B6C600468F7
:1013800063604368102B036803D099600068C260F3
:1013900030BD9A600068C16030BD70477FB50028DD
:1013A0001DD0027900250CB2012A0ED0022A01D0EC
:1013B000032A14D100680BA20A21036801A8FFF7D1
:1013C00049F8094B01AA009505E00068064B006842
:1013D000009528B105A22146642002F00DF87FBDDA
:1013E00003A2F8E725640000ACBD00084F4E0000E2
:1013F0004F46460010B5302360220821102001F02E
:10140000B9FD144C0A2260684168006900EB800055
:1014100051F82000122100F05DF860684168006911
:1014200000EB8002102000EB8200085801790129AE
:1014300004D0022905D0032908D105E000F024F9E1
:1014400004E000F009F801E000F0E0F8BDE8104029
:1014500002F00CB9C80000207FB5044600250A231D
:10146000502228211820009501F0BAFE206815A10D
:10147000026801A8FEF7DAFF134B01AA19213A20EE
:10148000009501F0B9FF20680068002801DA00200B
:1014900002E0642800DD642005F0D0FF0B4905F070
:1014A000E5FF0B4905F0ECFE4FF07C5105F080FEA6
:1014B00005F0A8FFC2B207232A211A20009501F0E7
:1014C000A9FD7FBD2564000028C2000800009842E5
:1014D0000000C84238B50D4614460021024600916E
:1014E000024B21B228B201F087FF38BDACBD000825
:1014F0002DE9F041254D6968888998B1042806D9FD
:101500000A69001F824201DA052000E0042006B2C9
:101510000869032802DD4FF0FF3400E0002401F0E9
:1015200051FF29E001F04EFF28E018480830B0F9DB
:10153000000000191FD469688A8982421BDD134AA2
:1015400049682C3200EB8008B2F90230B2F9002071
:1015500051F828009A1A02EB04173F1D3A4602215F
:10156000FFF7B8FF68681022416802EB880008584E
:101570003946FFF713FF641CB442D6DB00F02EF8A7
:1015800000F006F8BDE8F04102F070B8C800002095
:1015900038B500243F23062221467920009401F02B
:1015A0001FFE0D480C49406832318089022806D060
:1015B000012804D08022B2FBF0F3009403E00094F1
:1015C000012807D03223B1F9001002227B2001F05C
:1015D00021FD38BD3C23F6E7C800002008B50A4AC3
:1015E0000120183A0849009012880988524200EBFD
:1015F0000210084401B204480E23801D0278002026
:1016000001F022FD08BD0000E80000207FB504467F
:1016100000250A23502228211820009501F0E0FD22
:10162000206815A1026801A8FEF700FF134B01AA6C
:1016300019213A20009501F0DFFE2068006800289B
:1016400001DA002002E0642800DD642005F0F6FEE7
:101650000B4905F00BFF0B4905F012FE4FF07C51D2
:1016600005F0A6FD05F0CEFEC2B207232A211A20FE
:10167000009501F0CFFC7FBD2564000028C2000862
:10168000000098420000C84238B5002414233C22D0
:101690001C212220009401F0CBFD0C4B0CA2212137
:1016A0002C20009401F0A8FE084B0AA2212147201B
:1016B000009401F0A1FE01200090074811231A2296
:1016C000B0F900001E2101F0BFFC38BD28C200089F
:1016D0004F4E00004F4646000001002072B6FEE764
:1016E0000E4A10B50020D060106102F12000418840
:1016F0008180811D4B888B80526813691C01448056
:10170000526803EB8303042000EB8303D25C02EBFB
:10171000420200EB4200488010BD0000C8000020DB
:10172000024801218170417070470000C80000200C
:10173000074841684A68096901EB81030C2101EB04
:1017400083015158002902D0416001214170704746
:10175000C800002070B5044690F82000002501283C
:101760000CD0012084F8200094F821600020012E84
:1017700006D084F820000225284670BD022070BDE6
:10178000022684F82160A0632068066826F001061E
:1017900006602046FFF7ECFDE06A0028206801683B
:1017A00002D041F00E0106E021F004010160206842
:1017B000016841F00A0101602068016841F00101FF
:1017C0000160D9E770B5044600F004F90546601CD5
:1017D00002D004480078044400F0FCF8401BA0420A
:1017E000FAD370BD080000202DE9F84FDFF8B8915A
:1017F0000024A9F1040B23460F2709F1040AABF1D9
:10180000040EC9E00125A5402A40AA427DD1674EB9
:10181000D1F804C0ACEB0608B44532D014DCBCF1FE
:10182000030F3AD009DCBCF1000F2AD0BCF1010F44
:101830001CD0BCF1020F31D11DE0BCF1110F17D04B
:10184000BCF1120F2AD119E0B8F5881F19D006DCB7
:10185000B8F5803F15D0B8F5801F1FD111E0B8F55D
:10186000001F0ED0B8F5041F18D10AE0CB6815E0B0
:10187000CB681B1D12E0CB6808330FE0CB680C333C
:101880000CE08B682BB1012B4FF0080303D04561AE
:1018900004E0042302E0056100E00023FF2A01D8F0
:1018A000064601E000F104064FEA840501D9A5F1DE
:1018B0002005D6F8008007FA05FC28EA0C0803FA90
:1018C00005F548EA0508C6F800804D68ED0062D5C8
:1018D000374DAE6946F00106AE61AD6924F00306EE
:1018E00005F001050095334D06EB050CDCF80850BA
:1018F000A607360F07FA06F825EA0805DFF8B880CC
:10190000404503D14FF0000817E044E0DFF8AC8019
:10191000404502D14FF001080FE0DFF8A4804045B8
:1019200002D14FF0020808E0DFF89880404502D16C
:101930004FF0030801E04FF0040808FA06F848EAFF
:101940000508CCF808804D68D9F80060ED024D46D6
:1019500001D5164300E096432E604D68DAF800602A
:10196000AD02554601D5164300E096432E604D6802
:10197000DBF80060AD035D4601D5164300E09643F9
:101980002E604D68DEF80060ED03754601D5164304
:1019900000E096432E60641C0D682A46E5407FF403
:1019A00031AFBDE8F88F00000804014000001110BD
:1019B000001002400000014000080140000C0140FE
:1019C00000100140001401400AB101617047090490
:1019D000FBE7000001488068704700000800002015
:1019E0007047000070B5040025D094F83D00002534
:1019F00020B984F83C50204600F0FCF9242084F8FB
:101A00003D002068016821F0010101602068016843
:101A100041F4004101602068016821F40041016047
:101A200000F098FB4D4A6168914201D84C4900E0B2
:101A30004C49884201D2012070BD4B492368B0FB5C
:101A4000F1F15E6826F03F060E435E6063689342E4
:101A500006D94FF4967359434FF47A73B1FBF3F1FF
:101A60002368491C1E6A26F03F06314319626168EB
:101A7000914210D84900401EB0FBF1F2521CC2F353
:101A80000B02042A01D2042022E0B0FBF1F0401C3A
:101A9000C0F30B001CE0A268F2B301EBC10303EB3F
:101AA0000116431EB3FBF6F35B1C43F480431B0596
:101AB00049D092B301EBC10202EB0111401EB0FB11
:101AC000F1F0401CC0F30B0040F4804040F40040B3
:101AD0002168CA694CF6FF739A431043C861D4E980
:101AE000071001432068026822F0C0021143016020
:101AF000D4E9030101432068826848F2FF339A4326
:101B000011438160D4E9050108432168CA6822F0C5
:101B1000FF021043C86001E00EE016E02068016893
:101B200041F0010101602564202084F83D00256317
:101B300084F83E50002070BD01EB4106431EB3FB0C
:101B4000F6F35B1CB3E70120C2E701EB4101401E45
:101B5000B0FBF1F0401CC0F30B00B7E7A08601001A
:101B600080841E0000093D0040420F0070470000C5
:101B70002DE9F84F1F4690468A460446DDF8289026
:101B8000FFF728FF054694F83D0020287FD1192350
:101B9000012240492046009500F0B2FF002876D18E
:101BA00094F83C00012872D0012084F83C002068A1
:101BB0000168C90703D1016841F001010160206893
:101BC000016821F400610160212084F83D001020AB
:101BD00084F83E0000262664C4F824806785608D62
:101BE00020852D48E0622B464A465146204600F0AB
:101BF0000DFF90B9206841698069009036E02A465F
:101C00004946204601F022F850B1206C042804D146
:101C10002068016841F4007101600120BDE8F88F7F
:101C2000606A216800780861606A401C6062618DAA
:101C3000491E6185218D491E89B22185226853691B
:101C4000DB435B070BD451B100781061606A401C24
:101C50006062608D401E6085208D401E20852A4672
:101C60004946204600F020FF0028CED1208D0028D4
:101C7000C5D154F83D0B016841F40071016020208A
:101C800004F81E09E67766770020C7E7FFE7022021
:101C9000C4E70000020010000000FFFFF8B50025B7
:101CA0000446009590F83D00202828D14C4846F283
:101CB000A8160068B0FBF6F000EBC00606EB0010BB
:101CC000202600900098401E009010D02068806967
:101CD000C0438007F6D594F83C0001280FD00120BE
:101CE00084F83C0020680768FF070AD00DE044F83C
:101CF000305F6673A573206940F0200020610220E8
:101D0000F8BD076847F0010707602068076827F4F7
:101D100000670760212084F83D00102084F83E0011
:101D2000256462626385608D20852E48E06261646F
:101D3000208DE8B3606BF0B12B498162616B2B4859
:101D40000863606BC562606B45632268238D103247
:101D5000616A606BFFF7FEFCB0B184F83D6084F807
:101D60003E5054F8400F40F0100000BF44F8040902
:101D700001202570F8BD84F83D6084F83E5054F889
:101D8000400F40F08000F1E784F83C502068416843
:101D900041F4407141602068416841F40061416054
:101DA0002068016841F4806101602068016800E0FA
:101DB00003E041F48071016010E02068016841F4A3
:101DC000806101602068016841F48071016084F8DD
:101DD0003C502068416841F4E06141600020F8BD5A
:101DE000140000200000FFFFD32800089D280008F1
:101DF0007047000010B586B000210091019102915A
:101E0000039100680F4988421AD10F4CA06940F035
:101E10000800A061A069694600F008000490C02095
:101E2000009012200190032003900848FFF7DCFC8B
:101E3000E06940F40010E061E06900F400100490F3
:101E400006B010BD0054004000100240000C0140DC
:101E5000704770470248816802781144816070477A
:101E600008000020074810B5016841F0100101602A
:101E7000032000F0A7F80F2000F006F800F050F85B
:101E8000002010BD0020024030B505461F4887B035
:101E9000C16941F00401C161C06906A900F00400F4
:101EA000009001A800F036F90498B0B100F052F9A2
:101EB00040001749174AB0FBF1F11748491E02606C
:101EC000416040F2E7320021C0E903218160816175
:101ED00000F03CFB040003D015E000F03BF9E8E71C
:101EE0000D4800F07FFB04000DD11E2000F03CF8EF
:101EF000102D07D2002229461E2000F043F8074883
:101F0000056000E0012407B0204630BD001002400B
:101F100040420F0000080040B00100200C000020EB
:101F20000F4808B5816941F001018161816901F0C3
:101F300001010091C16941F08051C161C069002275
:101F400000F0805000900F21901E00F01BF8054813
:101F5000416821F0E06141F00071416008BD00007E
:101F60000010024000000140002809DB00F01F02C1
:101F7000012191404009800000F1E020C0F80011EB
:101F800070470000F0B40E4B1B680C46C3F30223ED
:101F9000C3F10705042D00D90425191D072901D215
:101FA000002300E0DB1E012606FA05F1491E214050
:101FB00099409E40761E16403143F0BC01F0F5BDBD
:101FC0000CED00E0064900F0070208684FF6FF0339
:101FD000184040EA0220034A10430860704700009E
:101FE0000CED00E00000FA052DE9F0470F46050072
:101FF00061D0434E306800F00700B84209D2306823
:1020000020F0070038433060306800F00700B84225
:1020100051D128683B4C810712D5400703D5606831
:1020200040F4E06060602878000703D5606840F401
:10203000605060606068A96820F0F000084360604C
:102040002878C00728D06868012810D021680228A5
:1020500010D0890700292EDA616821F003010143BD
:102060006160FFF7B7FC804641F288390DE02168D6
:102070008903EFE78901EDE7FFF7ACFCA0EB08016E
:10208000494502D90320BDE8F0876068696800F01F
:102090000C00B0EB810FEFD1306800F00700B842C0
:1020A0000BD9306820F0070038433060306800F00A
:1020B0000700B84201D00120E5E72878400705D5A0
:1020C0006068E96820F4E0600843606028780007F1
:1020D00006D56068296920F4605040EAC10060605C
:1020E00000F048F86168084AC1F30311515CC84028
:1020F0000649086006480068FFF7C6FE0020C2E7F0
:1021000000200240001002403E7800081400002029
:102110000C0000200F2202600C4A536803F00303F6
:102120004360536803F0F0038360536803F4E06393
:10213000C36052684FF4E06303EAD20202610448CC
:10214000006800F0070008607047000000100240BF
:10215000002002400448054900684968044AC1F368
:102160000221515CC840704714000020001002405A
:102170004E7800080E4A51680E4801F00C03042BFB
:1021800011D0082B0FD10C48C1F38343C903C05CA5
:102190000AD55168084AC1F34041921E515C054A74
:1021A0005043B0FBF1F070470449484370470000CA
:1021B0000010024000127A002E78000800093D004D
:1021C0002DE9F84F040070D02078C04DC00749D0E9
:1021D0006868C0F38100012807D06868C0F38100F7
:1021E000022809D16868C00306D52868800339D55C
:1021F00060680028E7D035E06068B0F5803F0BD01C
:1022000010B1B0F5A02F11D0286820F480302860DC
:10221000286820F4802002E0286840F4803028609C
:10222000606890B1FFF7D6FB06460AE0286840F4E4
:1022300080202860F0E700BFFFF7CCFB801B6428FC
:1022400073D828688003F7D50CE0FFF7C3FB064678
:1022500005E000BFFFF7BEFB801B6428F0D82868AC
:102260008003F7D420789A4E80074FF001094FF091
:10227000000839D5686810F00C0F07D06868C0F303
:102280008100022809D16868C00306D42868800745
:1022900014D52069012808D110E02069B0B1C6F832
:1022A0000090FFF797FB074605E00AE1FFF792FB76
:1022B000C01B0228C4D828688007F7D52868616940
:1022C00020F0F80040EAC10028600DE0C6F8008068
:1022D000FFF780FB074604E0FFF77CFBC01B0228EA
:1022E00023D828688007F7D4207800072CD57948B0
:1022F000A169D9B1C0F80090FFF76CFB074604E074
:10230000FFF768FBC01B02280FD8686A8007F7D563
:1023100071484FF4FA510068B0FBF1F0009000BF33
:102320000098411E0091FAD20EE080E0C0F80080D3
:10233000FFF750FB074604E0FFF74CFBC01B0228E9
:1023400075D8686A8007F7D42078400760D5E869B7
:102350000027C00008D4E86940F08050E861E869CF
:10236000012700F0805000905C480168C90513D433
:102370000168834641F480710160FFF72BFB8246C0
:1023800006E000BFFFF726FBA0EB0A0064284ED84A
:10239000DBF80000C005F5D5E06801280AD008B1D7
:1023A000052813D0286A20F001002862286A20F04E
:1023B000040002E0286A40F001002862E06841F26F
:1023C000883B98B1FFF706FB82460BE0286A40F095
:1023D00004002862EEE700BFFFF7FCFAA0EB0A0159
:1023E00059455AD8286A8007F6D50CE0FFF7F2FA6B
:1023F000824605E0FFF7EEFAA0EB0A0159454CD8FA
:10240000286A8007F6D41FB1E86920F08050E8619F
:10241000E06988B36968C1F38101022944D00228C8
:10242000C6F8608004D0FFF7D5FA044638E034E0FF
:10243000FFF7D0FA074604E0FFF7CCFAC01B0228EA
:102440002BD828688001F7D4206AB0F5803F05D1E9
:102450006868A16820F4003008436860D4E9080186
:102460000843696821F4741108436860C6F86090F5
:10247000FFF7B0FA044606E025E000BFFFF7AAFA2E
:10248000001B022809D828688001F7D51BE000BF8F
:10249000FFF7A0FA001B022802D90320BDE8F88F3D
:1024A00028688001F4D40EE00128F7D06868226A19
:1024B00000F48031914204D1616A00F470108842C6
:1024C00001D00120EAE70020E8E700000010024008
:1024D000000042428004424214000020007000408C
:1024E0007047704770B590F83C20012A26D001242F
:1024F00080F83C40022280F83D2003685A689D68BD
:1025000022F070060A6832435A600D4B02689A4204
:1025100008D0B2F1804F05D00A4B9A4202D00A4B44
:102520009A4204D1496825F080031943916080F8EC
:102530003D40002180F83C10084670BD022070BD6F
:10254000002C0140000400400008004010B50400C9
:1025500003D094F83D0010B107E0012010BD002029
:1025600084F83C00204600F01FF8022084F83D006B
:10257000211D206801F0B6F9012084F8460084F896
:102580003E0084F83F0084F8400084F8410084F85D
:10259000420084F8430084F8440084F8450084F83D
:1025A0003D00002010BD000008B500680B498842BE
:1025B00012D10B48816941F4006181618069002278
:1025C00000F40060009005211820FFF7DBFCBDE857
:1025D00008401820FFF7C8BC08BD0000002C0140CF
:1025E0000010024090F83D10012901D001207047F1
:1025F000022180F83D100168CA6842F00102CA60F9
:1026000000680B49884208D0B0F1804F05D00949D5
:10261000884202D00849884204D1816801F007014C
:10262000062903D0016841F00101016000207047D4
:10263000002C0140000400400008004070B5044632
:1026400090F83C000025012817D0012684F83C6052
:10265000022084F83D002068826822F0770222F48C
:102660007F4282600868502838D00DDC20284FD087
:1026700005DC90B3102811D14AE0022070BD30284B
:1026800046D040280AD13BE060282FD070280DD0DA
:10269000B0F5805F03D0B0F5005F12D0012584F85B
:1026A0003D60002084F83C00284670BDCB68D1E92D
:1026B0000121206801F04CF92068816841F0770120
:1026C00009E0CB68D1E90121206801F041F92068D7
:1026D000816841F480418160E1E719E0CA68496896
:1026E000206801F047F95021206806E0CA6849686F
:1026F000206801F050F96021206801F033F9CEE73D
:10270000CA684968206801F035F940212068F4E77B
:10271000226801461046F0E7704770B5044600682D
:1027200001694FF00005C943890715D4C168C94341
:10273000890711D4E91E0161012020772068806992
:102740008007204602D0FFF7E7FF04E000F098F88A
:10275000204600F096F8257720680169C9434907AB
:1027600017D4C168C943490713D46FF0040101614C
:10277000022020772068806910F4407F204602D034
:10278000FFF7CAFF04E000F07BF8204600F079F87C
:10279000257720680169C943090716D4C168C94370
:1027A000090712D46FF00801016104202077206826
:1027B000C0698007204602D0FFF7AEFF04E000F0BA
:1027C0005FF8204600F05DF8257720680169C9436D
:1027D000C90617D4C168C943C90613D46FF01001E4
:1027E0000161082020772068C06910F4407F2046EE
:1027F00002D0FFF791FF04E000F042F8204600F01D
:1028000040F8257720680169C943C90708D1C16824
:10281000C943C90704D1891E0161204600F032F87E
:1028200020680169C943090609D4C168C94309067A
:1028300005D46FF0800101612046FFF751FE20684A
:102840000169C943490609D4C168C943490605D489
:102850006FF040010161204600F01EF82068016918
:10286000C94389060BD4C168C943890607D46FF0F0
:10287000200101612046BDE87040FFF732BE70BD07
:102880007047704700680349884201D1FFF7E2BAF8
:1028900070470000000800407047FEE710B5406A2E
:1028A0000021426B02B19162826B02B191620268B7
:1028B000136823F4806313604185202280F83D2053
:1028C00080F83E10016C41F010010164FFF788F8B8
:1028D00010BD2DE9F041446A94F83D2094F83E5033
:1028E000E16A2068436823F440734360636B00200F
:1028F00003B19862A36B03B19862212333EA020704
:102900004FF022060CD036EA020701D1202D07D065
:1029100094F83E20002A21D0628D012A20D024E0A4
:1029200021684D6825F400654D6060852820292ABE
:1029300002D02A2A07D00CE0236384F83D00204609
:10294000FFF787FA05E0266384F83D002046FFF78D
:102950007FFA2068416841F440714160BDE8F08130
:102960002268136823F4806313602268536823F499
:102970004073536011F5803F06D0082904D0B1F1AF
:102980002A4F01D0202904D121680A6842F400723C
:102990000A6021684A6822F480524A6021684A68C5
:1029A00022F400624A606085216C19B12046FFF76D
:1029B00017F8D3E7202184F83D1094F83E1084F8EE
:1029C0003E00402905D0122020632046FFF7CEF8B4
:1029D000C4E720632046FFF70BFABFE701684A69A6
:1029E000D24352050FD46FF480624A61002140F84F
:1029F000301F202242738173026942F00402026197
:102A0000017301207047002070470000F8B50446AC
:102A1000C06A1E460D461746082807D0012805D073
:102A200010F5803F02D0206B122804D12068016885
:102A300041F480710160134600224FF001112046DD
:102A4000009600F05DF840B120680068C00502D52E
:102A50004FF4007020640320F8BD2069B0F5804F6A
:102A60000ED00620216800EAD51040F0F000086181
:102A700033463A460B49204600F08AF878B902E01E
:102A800005F0FE0000E0E8B2216808610549334620
:102A90003A46891F204600F07BF80028DCD0012050
:102AA000F8BD00000800010070B516460D4604464A
:102AB0001EE02046FFF792FF08B1012070BD681CA0
:102AC00016D0FEF787FF801BA84200D885B9206882
:102AD0004069C04340070BD5002044F8300F202147
:102AE0006173A073216941F0200121612073E4E743
:102AF00020684069C0434007DBD4002070BD00005F
:102B00002DE9F047984617460D460446C1F307469F
:102B1000DDF820902AE000BFB8F1FF3F26D0FEF795
:102B200059FFA0EB0901414502D8B8F1000F1DD1B2
:102B30002068012E16D0806925EA00000004000CF0
:102B400012D00020B84211D1002044F8300F2021CB
:102B50006173A073216941F020012161207301207C
:102B6000BDE8F0874069E7E70120EBE72068012E28
:102B70000AD0806925EA00000004000C06D000207D
:102B8000B842C9D00020EBE74069F3E70120F7E73E
:102B90002DE9F047984616460D4604464FF00009C9
:102BA0004FF0200AC1F3074723E020684069C04383
:102BB000400515D42068016841F400710160216866
:102BC0006FF480604861C4F8309084F83DA084F8C8
:102BD0003E90216C41F00401216484F83C9021E096
:102BE000701C06D0FEF7F6FEA0EB0800B04203D83A
:102BF00016B1012F1FD021E02068012F15D0806968
:102C000025EA00000004000C18D000BF44F8309FF3
:102C100084F80DA084F80E90216941F02001216113
:102C200084F80C900120BDE8F087406925EA000097
:102C30000004000CEAD12068406901E02068806946
:102C400025EA00000004000CAFD1ECE770B5164691
:102C50000D4604461EE02046FFF7C0FE08B10120E5
:102C600070BD681C16D0FEF7B5FE801BA84200D8C8
:102C700085B920684069C04300060BD5002044F8A0
:102C8000300F20216173A073216941F0200121617F
:102C90002073E4E720684069C0430006DBD40020CD
:102CA00070BD000010B5084900204FEA00044870CC
:102CB00000F042F900F0DAFC3220FEF783FD641CDC
:102CC000E4B2032CF4D310BDC80000201248012246
:102CD0000146837809784BB1012B06D1012904D034
:102CE000022902D10021817042707047012907D06A
:102CF0000229FAD1416889680029F6D04160F3E7DA
:102D000040684168006900EB8002082000EB820007
:102D100008580028E9D00047C8000020244810B512
:102D20000146827809780023D2B1012A17D1406880
:102D30004268006900EB8004102000EB840010580A
:102D40000279012A25D0022A09D0032A07D10129B4
:102D50002AD0022903D100680168491E016010BD14
:102D6000012902D0022904D007E041680A69521CF7
:102D700002E041680A69521E0A614068818902695D
:102D80008A4201D1036110BD521CFCD1491E016170
:102D900010BD012901D00229FAD10068016809B1EA
:102DA000036010BD0121D9E700680168491CD5E71F
:102DB000C800002010B500F01FFE074A0021074898
:102DC00001F00CF8064C044A00212060243205482A
:102DD00001F004F8606010BDE47700086D3700086A
:102DE000000000203D38000870B586B0002421485E
:102DF0000094019402940394816941F0100181616F
:102E0000816901F010010491816941F02001816123
:102E1000816901F020010491816941F0080181611B
:102E2000816901F008010491816941F00401816127
:102E30008069114E00F004004FF400550490002208
:102E400029463046FEF7C0FD01200095CDE901047A
:102E50000220039069463046FEF7C6FC40F6034068
:102E600000900648CDE9010469460548FEF7BCFC20
:102E700006B070BD001002400010014000001110AB
:102E8000000C01400D4810B50B4901600C49416030
:102E900000214FF480428160C0E9031241618161E9
:102EA000C1610162FEF79EFD002803D0BDE810401D
:102EB000FEF714BC10BD00000054004014010020B7
:102EC000A086010010B586B0002419480094019432
:102ED00002940394049415490594016041F61F413E
:102EE000C0E9011442F20F71C1604FF48071C0E972
:102EF000041480218161FFF729FB08B1FEF7EEFB86
:102F00004FF48050009069460948FFF797FB08B1DD
:102F1000FEF7E4FB049404A905480594FFF7E2FAE0
:102F2000002801D0FEF7DAFB06B010BD002C0140EE
:102F300068010020FEE7FEE72DE9F041FEF74AFDBB
:102F4000FDF712FB0A4F0025002407EBC51600BF52
:102F5000FDF774F9315D01403155641CE4B2802CF9
:102F6000F6D36D1CEDB2082DEED3BDE8F081000064
:102F7000CD1F00202DE9F8470E46CF1805468118D1
:102F80001DE03446DFF888904FF0010A13E0E217A5
:102F900004EB527C4FEAEC0309EBC3122CF0070C54
:102FA0000244A4EB0C080AFA08FC1378641C23EA18
:102FB0000C03137024B2A742E9DA401C00B281422C
:102FC000DFDA0CB24FF00008334622461946284695
:102FD000CDF8008000F080F83FB2394622460B461B
:102FE0002846CDF8008000F077F82A463B46314667
:102FF0001046CDF8008000F06FF822463B461046A0
:103000003146CDF8008000F067F8BDE8F887000091
:10301000CD1F00202DE9F843804610441E460F4680
:10302000002405B2DDF820900AE0381901B20B4601
:103030002A464046CDF8009000F04EF8641CE4B2F9
:10304000B442F2D3BDE8F8832DE9FF4F81B00025EB
:103050000198DDF8389000EB020AAAF1020004B2F0
:1030600001989B46801C884606B200BF08EB05000D
:1030700001B20B4622463046CDF8009000F02CF805
:103080006D1CEDB2022DF1D30225ABF102070FFA50
:103090008AFA0BE008EB050001B20B465246CDF868
:1030A0000090019800F018F86D1CEDB2BD42F1DB04
:1030B000FDB20BE008EB050001B20B46224630469C
:1030C000CDF8009000F008F86D1CEDB25D45F1D32D
:1030D00005B0BDE8F08F00002DE9F84F0446174613
:1030E0003E481E460D46BC4210D1B5420ADD8580E1
:1030F0002E461D4606E0294620460A9A00F096FA1A
:103100006D1C2DB2B542F6DDBDE8F88FB5420FD18A
:10311000BC420ADD84802746144606E02946204644
:103120000A9A00F083FA641C24B2BC42F6DDEBE795
:10313000381B711B00B209B2002801DD012300E039
:1031400000234FF0FF3202EB43030093002901DD1F
:10315000012300E00023A046002402EB430B0028DB
:1031600000DA40420FFA80FA002900DA49420FFAE9
:1031700081F9CA4514DC2DE029460A9A00F056FA76
:1031800004EB090004B2BAEB440F05DC05EB0B00BD
:1031900005B2A4EB0A0004B2009840440FFA80F88C
:1031A0004046B845E8D1AFE7294640460A9A00F0C4
:1031B0003DFA04EB0A0004B2B9EB440F07DC0099B6
:1031C00008EB01000FFA80F8A4EB090004B205EB4C
:1031D0000B0005B2B542E7D196E700009800002049
:1031E0002DE9F8410746104405B21C46079E884663
:1031F0000B462A4638460096FFF76EFF08EB0400A0
:1032000004B221462A460B4638460096FFF764FF73
:103210003A462346414610460096FFF75DFF2A4690
:103220002346104641460096FFF756FFBDE8F88159
:103230002DE9FF4F81B01C4601980E9E00EB02095C
:10324000A9F1020005B201988B46801C00B20096DD
:103250000B462A468046FFF73FFF5C4421B28A4670
:103260002A46534640460096FFF736FF0BF1020010
:10327000A41E01B2019A24B2234600960F461046BE
:10328000FFF72AFF0FFA89F0814623464A4639465E
:103290000096FFF721FF3B464246194600960198EB
:1032A000FFF71AFF23461946424600960198FFF79A
:1032B00013FF3B464A46194628460096FFF70CFF87
:1032C00023464A46194628460096FFF705FF424620
:1032D0003B46594610460096FFF7FEFE2A4610462A
:1032E0003B4659460096FFF7F7FE424623465146B5
:1032F00010460096FFF7F0FE2A4623465146104638
:103300000096FFF7E9FE05B0BDE8F08F10B5AE20DE
:1033100000F098F8202000F095F8102000F092F8C6
:10332000B02000F08FF8C02000F08CF8002000F0F2
:1033300089F8102000F086F8402000F083F8812002
:1033400000F080F8DF2000F07DF8A02000F07AF88F
:10335000A62000F077F8A82000F074F83F2000F0D5
:1033600071F8A42000F06EF8D32000F06BF8002074
:1033700000F068F8D52000F065F8F02000F062F861
:10338000D92000F05FF8222000F05CF8DA2000F08D
:1033900059F8122000F056F8DB2000F053F82020F6
:1033A00000F050F88D2000F04DF8142000F04AF89D
:1033B00000F008F800F05AF9BDE81040AF2000F026
:1033C00041B800004FF480610148FDF7ADB900003D
:1033D000CD1F00203CB51C78059D203ACDE9004565
:1033E0005D68E41D5B78E408544303FB045249B272
:1033F00040B200F0B1F83CBD2DE9F8411E4615463B
:1034000088460446079F09E0334641462046009718
:10341000FFF7E0FF70786D1C204404B22A78002A80
:10342000F2D1BDE8F881000070B50C460546234690
:103430002A4678210248FEF731FC0028F7D170BDFA
:10344000140100200249487002210148FFF7ECBF37
:10345000990000202DE9FC410646C81D1D46144672
:1034600007280DD20831C8B2411EC9B2CDE90013F8
:103470000027C0F10800C240F1B23B46384622E0C6
:10348000C81701EB5070C0F3C70820F00700081AF6
:10349000C7B20720CDE9000504FA07F0C2B2F1B2C5
:1034A0003B46404600F09EF8002F0ED0781EC0B27A
:1034B000CDE90005C7F1080024FA00F208F1010087
:1034C000F1B2C0B2002300F08DF8BDE8FC812DE917
:1034D000FC4306460025C81DDDF8248099461446A5
:1034E000072802D20831CFB208E0C81701EB5070AC
:1034F000C0F3C70520F00700081AC7B207EB0900A0
:103500000828414619D90720CDE9000104FA07F03F
:10351000C2B2F1B23B46284600F064F809EB07015D
:103520000939C9B2C7F1080024FA00F2CDE9001840
:103530006D1CF1B2E8B2002309E0401EC0B2CDE933
:10354000000102FA07F4E2B2F1B23B46284600F06D
:1035500049F8BDE8FC8300002DE9FF4F82B01D460D
:103560000F989346C60800F007008946002701908F
:1035700019E00298002438440BEB070A4FFA80F850
:103580000DE000BF04FB05F0109B10F80A2009EBCA
:10359000C40041B24046FFF75DFF641CE4B2B44290
:1035A000F0D37F1CFFB2AF42E3D30198002816D0BE
:1035B00005FB06F709EBC600002446B20DE01098A3
:1035C0000090391902981BF801202044314640B27E
:1035D000019BFFF77CFF641CE4B2AC42EFD306B062
:1035E000BDE8F08FF0B50828DDE9056419D280291F
:1035F00017D20CB1D243D2B2FF25761C05FA06F6DB
:10360000C3F10803084F46EA0204DD4007EBC01788
:10361000044B785CB2432C43AA4320401A701043F9
:103620007854F0BD98000020CD1F002030B58028D0
:1036300017DA402915DA002813DB002911DBCB1734
:1036400001EB537323F007040C1B0121064DA1402D
:10365000DB1005EBC3131844002A027802D04A405D
:10366000027030BD0A43FBE7CD1F002070B5104D3E
:1036700040200024287005F1810600BF04F1B0004D
:10368000C0B2FFF7DFFE0020FFF7DCFE1020FFF7DF
:10369000D9FE06EBC4118022681CFCF7C6FF81210D
:1036A0000348FFF7C1FE641CE4B2082CE6D370BDEA
:1036B0004C1F00200F4A10B5506802F1080100238A
:1036C0000069B1F90240A04204DD53614880C01E88
:1036D000088007E0B1F90040A04203DA5361088096
:1036E000C01C488003482C30428882800988090128
:1036F000418010BDC80000202DE9F0411A4800218A
:1037000000F1320581612988A9804768BC89601E63
:1037100003F094FE80468026B6FBF4F0C0F13C0036
:1037200003F08CFE414603F0ABFD4FF07C5103F0FB
:103730003FFD03F067FE3969022C0BD0012C09D044
:10374000621E91420CD1B6FBF4F0C0F13E006880DD
:10375000BDE8F08101EB8100022101EB4000F6E7BA
:103760004143891C6980F3E7C80000207FB500F061
:10377000F1F900F063F900F08BF91CA0FCF74AFEA8
:103780000024029403940094234622461AA11D4863
:103790000194FDF784FD02A80125CDE90050002326
:1037A000194A1AA11748FDF77AFD03A8CDE9005080
:1037B0000023154A15A11348FDF771FD0022114B96
:1037C000114614A0FDF740FD0023054600941A465B
:1037D00012A10194FDF763FD00942B46134A14A136
:1037E00008480194FDF75BFD7FBD000072656164D0
:1037F000793A290A000000006578616D706C6532C5
:1038000000000000B40000202117000873776974DD
:10381000636800007375624D656E75006578616D53
:10382000706C65466F7253756200000031170008B6
:103830006E6578744D656E7500000000FEE700004F
:1038400010B5502080F31188BFF34F8FBFF36F8FF7
:1038500002F0A6FE18B104494FF080500860002025
:1038600080F3118810BD000004ED00E030B58FB08A
:1038700028216846FCF77AFF14210AA8FCF776FF96
:1038800001210804CDE900100024029402250491CE
:10389000CDE907504FF4E01009906846FEF790FC20
:1038A00008B172B6FEE70F20CDE90A054FF480603B
:1038B000CDE90C4002210AA80E94FEF795FB0028E2
:1038C00001D072B6FEE70FB030BD70470148FEF779
:1038D00024BF0000680100200148FEF71EBF000061
:1038E000B0010020F0B50268164B174C174D4FF091
:1038F0008047984205D0B84203D0A04201D0A842E8
:1039000003D122F070064A683243984205D0B8428B
:1039100003D0A04201D0A84203D122F44074CA6867
:1039200022434C6922F08002224302608A68C2620C
:103930000A688262984201D10969016301214161EB
:10394000F0BD0000002C01400004004000080040D1
:1039500010B5846842EA032224F47F440A432243D8
:10396000826010BD826822F070020A4342F00701B3
:103970008160704710B5036A046A24F00104046290
:10398000846924F0F00444EA021423F00A020A4392
:103990008461026210BD10B5036A046A24F0100449
:1039A0000462846923F0A00324F4704444EA0232E0
:1039B00043EA01118261016210BD00000D4900223D
:1039C0000B685A620A68136843F0010313600968C0
:1039D0004A6A8242FCD3086A41F21112104207D1AE
:1039E000086A9210104203D1086820F001000860B4
:1039F000704700006801002010B5FFF787FC182110
:103A00000C48FCF7B3FE0C4840684168006900EBC5
:103A10008002042000EB8202895C01EB410100EB93
:103A20004100054926314880BDE810401420FDF7CB
:103A3000C9BE0000D0230020C800002010B5124CE1
:103A40001249224601F1140000F038F80F492246CD
:103A5000091D01F1160000F031F80C492246083129
:103A600001F1180000F02AF8084922460C3101F152
:103A70001A0000F023F8054922461031BDE8104035
:103A800001F11C0000F01AB8CDCCCC3DD4000020D0
:103A900010B5094C6078012801D1FFF703F9A0782F
:103AA00028B1012807D1BDE81040FDF7A3BCBDE84F
:103AB0001040FDF71DBD10BDC80000202DE9F84FD6
:103AC00005460C46B0F90000B5F90210884202D153
:103AD0000120BDE8F88F20684FF07E57B84203DA26
:103AE000114603F065FB2060B84200DD27602068C6
:103AF00000F0ECF80090B5F90200834603F09EFC5C
:103B0000009903F0B3FC03F027FB81468A46B5F920
:103B1000040003F016F906468846009803F01CFBE3
:103B200000220B4B03F022FA3246434603F020F901
:103B30004A46534602F0D6FE03F0D4F828802068A7
:103B4000B84202D1A5F800B0C2E70020C1E70000EA
:103B50000000F03F124810B5007800EB400111481A
:103B600000EB810010F80A1C002917D0002100F892
:103B70000A1D4078022802D0012803D004E0FFF794
:103B8000CDF801E0FFF7A2F8FDF7AAFDFFF792FDDF
:103B9000FFF7B2FDBDE8104000F092BD10BD00007F
:103BA000C8000020D0230020FEE70907090E0028E6
:103BB00004DB00F1E02080F80014704700F00F00F3
:103BC00000F1E02080F8141D7047000010B5044695
:103BD00000F03AFE0121204601F0BFF80021204606
:103BE00001F0B8F82B49204601F0A4F82AA31422CA
:103BF0000021204601F034F80121204601F0AAF806
:103C00002649204601F096F825A3082215212046D2
:103C100001F026F80021204601F09CF81D492046BD
:103C200001F088F81FA31E223321204601F018F866
:103C30001DA31E224321204601F012F82F23232228
:103C40000221204600F0A3FE2F2324220321204638
:103C500000F09DFE0C2320222D21204601F008F8C3
:103C60000C2321222E21204601F002F80F49204684
:103C700001F060F80EA336220121204600F0F0FF8B
:103C8000204601F040F8BDE810404FF47A70FDF78F
:103C900099BD00007B94000855000000FAB60008AA
:103CA0003800000067000000B200000056780008ED
:103CB0006769746875622E636F6D2F6F6C696B72C4
:103CC0006175732F753867320000000010B5044627
:103CD000012103F048FDB4F17C5F04DA2146BDE820
:103CE000104003F0C3BB4FF0814103F08BFC214631
:103CF00003F0BCFBBDE81040014903F059BA0000D5
:103D0000000080BF8A68002A01DCFCF75BBF521EFE
:103D10008A604A68C0B2531C4B6010707047A6B0EE
:103D2000FEF7A0F8FFF7A2FDFFF75EF8FFF7CAF86D
:103D3000FFF7A8F8684600F06DFD00F013F8FFF7F4
:103D400039F800F02BF8684600F098FF6846FFF756
:103D50003DFF684600F054FD684600F0B5FF0028BE
:103D6000F4D1F0E7EFF3058058B9EFF3108040B9D4
:103D700009490868022801D030B109E0EFF3118049
:103D800030B16FF0050070470120086000207047D7
:103D90004FF0FF30704700006800002010B5EFF3CF
:103DA000058060B9EFF3108048B90B490868022814
:103DB00002D0012806D00BE0EFF3118040B16FF084
:103DC000050010BD0220086002F050F8002010BD70
:103DD0004FF0FF3010BD000068000020F0B585B046
:103DE0004FEA01034FF00004EFF305810394A1BBF8
:103DF000EFF3108189BB21490968022902D1EFF351
:103E0000118151BB48B3802618218DF8104004ADB4
:103E100042B3176807B13D4697691FB139467F1E07
:103E2000382F02D21779FF0702D0002005B0F0BD6D
:103E3000576907B1BE08D2F808C0BCF1000F0DD019
:103E4000D4685C2C18D312693AB137B18DE80610EA
:103E50003246294602F065FB03900DE0D7685FB952
:103E600012694AB903AACDE90012B2B2294602F09A
:103E70002BFB012800D003940398D7E768000020AB
:103E80002DE9F041134C0F46054666692068001D78
:103E900001F07BFE681C07D137B12168BDE8F04115
:103EA0000D48091D01F0C0BE20683544B54245608B
:103EB000216805D2A068BDE8F041091D01F09CBE53
:103EC0006068091D01F098FE206B854200D22563D1
:103ED000BDE8F08118000020E80600202DE9F0413F
:103EE000054601F0ADFE2D4C2069401C2061206884
:103EF0002B4F10B1E06930B32BE025602069012819
:103F000027D1002606EB860007EB800001F066FE55
:103F1000761C382EF6D3234801F060FE2148143079
:103F200001F05CFE1F48283001F058FE1D483C306F
:103F300001F054FE1B48503001F050FE19486060FB
:103F40001430A06005E02068E96AC06A884200D8A1
:103F50002560E06A401CE0626864E86AA169884202
:103F600000D9A06100EB800007EB8000291D01F063
:103F70005BFE01F085FEE06900280CD02068E96A4C
:103F8000C06A884207D208494FF080500860BFF3EA
:103F90004F8FBFF36F8FBDE8F08100001800002045
:103FA000380200209806002004ED00E038B501F04A
:103FB00047FE104CA068C8B90F4801F00FFE0E482C
:103FC000143001F00BFE0C482060143060600A4B86
:103FD00000202833009003F1500210210A2002F043
:103FE00017F8A06010B105A101F0C8FEBDE8384087
:103FF00001F046BE54000020FC060020546D7251B2
:104000000000000030B4026C0B46002A0BD0C168DF
:104010001144C1604468A14201D30168C16030BC51
:104020001846FCF702BB30BC70472DE9F041856BA8
:10403000174604460026026C82B1C7B1E068FCF75F
:10404000F4FAE168206C091AE1602268914202D218
:104050006168081AE060022F16D017E02068A8B93E
:10406000606802F001FB0646002060600EE0A06878
:10407000FCF7DBFA216CA0680844A0606168884204
:1040800004D32068A06001E005B16D1E6D1CA5631E
:104090003046BDE8F08110B5044690F8590058B19B
:1040A00001280CD002280FD0502080F31188BFF3D4
:1040B0004F8FBFF36F8FFEE7206B01F0F5FD2046B9
:1040C000BDE8104001F0F0BD10BD000010484FF4F5
:1040D0004061420706D0C01D0D4920F00700411A7B
:1040E000C1F540610B4A00230144C2E900030839CD
:1040F000103A21F0070111604B600B600B1AC0E908
:10410000001393604FF000405360D0607047000090
:10411000CC0E00207C000020144E154CA6F29C47CB
:104120004FF08058DFF84C9012E000BF01F088FD9E
:10413000F068C568281D01F028FD2069401E206137
:10414000E068401EE06001F09BFD2846FFF7A3FFFA
:10415000E0680028EAD138680128F9D9C9F8008058
:10416000BFF34F8FBFF36F8FF2E70000D40600203C
:104170001800002004ED00E070B51D46049C51B10C
:10418000C4F80020C4E90F010121204601F074FFAA
:1041900084F84C5070BD2460F4E72DE9F0470E46DA
:1041A000DDE909841746824691009946089DA522BB
:1041B000206BFCF7B1FA6FF00301206B01EB870174
:1041C000084420F00707780707D0502080F31188B3
:1041D000BFF34F8FBFF36F8FFEE72218315C82F879
:1041E0003410315C11B1401C1028F6D3002684F83D
:1041F0004360382D00D33725E562C4E91356201DEE
:1042000001F0F7FC04F1180001F0F3FC2461C5F1A2
:1042100038006462A061666584F858604A46514679
:10422000384600F03BFA2060B8F1000F01D0C8F822
:104230000040BDE8F087000030B5114900E01146AC
:104240000A688242FBD34B685C18844203D1406801
:1042500018444860084643681C18944209D1084C29
:10426000103C2468A24209D052681A4442600A688D
:1042700012680260814200D0086030BD0460F9E736
:104280007C00002070B5002441600B4D006191421C
:1042900006D8D11A8269914206D2011D686807E0EA
:1042A0009A4203D2994201D3012403E0011D2868F8
:1042B00001F0A2FC204670BD5400002010B5044659
:1042C00001F0BEFCA06B28B15FF0000401F0D8FC47
:1042D000204610BD0124F9E730B589B0304D55E0D6
:1042E0000498002806DADDE90601059A904704984B
:1042F00000284BDB069C606910B1201D01F045FCD5
:1043000002A800F0B9F8024604980A283ED2DFE875
:1043100000F00505053D263705053D260598A169F0
:10432000034601442046FFF7ADFF00B3616A204613
:104330008847E069012829D1002000900598A169EB
:10434000002342181946204602F098FA78B9502006
:1043500080F31188BFF34F8FBFF36F8FFEE705988F
:10436000A06128B1811813462046FFF78BFF0DE0AE
:10437000502080F31188BFF34F8FBFF36F8FFEE79C
:1043800094F82C0010B9204601F08EFC002204A9FC
:10439000A86801F0C3FF0028A2D109B030BD000019
:1043A000540000202DE9FC410F46054601F0A2FD16
:1043B00001A800F061F80446019818B102F0CCF9A8
:1043C000BDE8FC81224EAFB170680068A8B3002739
:1043D000291B3A46B06801F0E5FC02F0BDF900285F
:1043E000EED11C494FF080500860BFF34F8FBFF3F0
:1043F0006F8FE5E7A542EBD802F0AEF930682746AB
:10440000C068C468201D01F0C0FBE069012810D11C
:10441000A0692B4641193A462046FFF733FF40B1C9
:1044200000200346014600902A46204602F026FA64
:1044300020B1616A20468847C2E707E0502080F338
:104440001188BFF34F8FBFF36F8FFEE70127BFE7E0
:104450005400002004ED00E006484168096829B1D5
:104460004168C968C9684968016370474FF0FF3106
:10447000FAE700001800002070B5054602F08AF83F
:10448000064E04463069844203D200F009F8012048
:1044900000E0002028602046346170BD54000020F8
:1044A000F8B5194D1FE0C068C4680668201D01F00A
:1044B0006CFB616A20468847E069012813D1A06936
:1044C0003044B04206D924616060211D286801F0A3
:1044D00093FB08E000200346014600903246204648
:1044E00002F0CCF938B1286801680029DBD169688D
:1044F000C5E90010F8BD502080F31188BFF34F8F3D
:10450000BFF36F8FFEE700005400002008484068AA
:10451000401C4FF0500080F3118804D0BFF34F8F40
:10452000BFF36F8FFEE7BFF34F8FBFF36F8FFEE7D1
:1045300084000020074C2068016841B1C068002158
:10454000D0F80000FFF72EFFFFF7C6FEF3E70121CA
:104550000020F7E7540000202DE9F041044601F067
:104560006FFB94F9455004F1240609E0606A48B1F4
:10457000304602F0B9F808B101F03EFC6D1E6DB294
:10458000002DF3DC4FF0FF3684F8456001F078FB36
:1045900001F056FB94F9445004F1100709E020693A
:1045A00048B1384602F0A0F808B101F025FC6D1EB4
:1045B0006DB2002DF3DC84F84460BDE8F04101F0F9
:1045C0005FBB00002DE9F0410546002701F092FC99
:1045D000314E306808B9FFF779FDF06805424BD1DC
:1045E000C5B3083568070ED005F00700C0F1080014
:1045F0000544680707D0502080F31188BFF34F8F20
:10460000BFF36F8FFEE72DB37068854234D8224820
:10461000103001460C6801E020460C466168A94252
:1046200002D221680029F7D131688C4224D0076872
:104630002168016060680837411B10290FD9601993
:10464000420708D0502080F31188BFF34F8FBFF38B
:104650006F8FFEE710E041606560FFF7EDFD616878
:104660007068401A7060B268904200D2B060F06822
:1046700001430020C4E9000102F06EF8780707D07A
:10468000502080F31188BFF34F8FBFF36F8FFEE789
:104690003846BDE8F08100006C00002010B5031F13
:1046A0004FF080741C601B1F21F001011960191F5D
:1046B000024B0B60143940380A6010BD0D450008EC
:1046C0000B4900201023C86101F138000288828064
:1046D00049684A68096901EB810103EB810151587E
:1046E0000968096811B12421418070474221FBE724
:1046F000C80000202DE9F843804600F0A5F84046A8
:1047000000F0A2F81E24402580264FF6FF77604275
:1047100005EB400189B206EB800083B20091A2B2A2
:1047200007EA4401404600F098F8404600F0EBFAF2
:10473000A41E002CEBDCBDE8F88300002DE9F0435B
:104740000A24264FDFF8988087B081462646042544
:10475000484600F079F8204602F0F3FA00223B4682
:1047600002F068F90022434602F002FB02F0BAFAB6
:1047700002461CA102A8FBF759FE1C49484600F05E
:10478000D9FA1BA320221021484600F069FA1B49E0
:10479000484600F0CFFA02AB31226421484600F0CF
:1047A0005FFACDE90065A3B228221021484600F047
:1047B00062F9CDE90065502328221021484600F017
:1047C000CDF9484600F09FFAA41C502CC0DD07B07C
:1047D0004FF4FA70BDE8F043FCF7F4BF000054401A
:1047E0000000594025642525000000000A850008C6
:1047F00053544D333220553867320000347B000863
:1048000010B50446FFF79AFF2046BDE81040FFF7B9
:1048100071BF000010B50446084B094A094900F071
:10482000D5FA204600F04FFF0021204600F05BFF44
:104830002046BDE8104000F007B80000E15A00082B
:104840008957000820BA000801680A7C90F83810DF
:10485000406B5143C900FBF767BF2DE9F843814620
:10486000089C1E46101980B20090881983B2154624
:104870008846484600F010FA00280ED00027002C89
:104880000BD033462A4641464846009700F086F84A
:104890006D1C641EADB2A4B2F1E7BDE8F8832DE94A
:1048A000F8431C4680461019401C80B2009008193D
:1048B000401C83B21546101B82B20E46081B81B203
:1048C000089F404600F0E8F9002806D023462A4613
:1048D00031464046009700F02FFBBDE8F8832DE9F4
:1048E000F8431C4680461019401C80B200900819FD
:1048F000401C83B21546101B82B20E46081B81B2C3
:10490000089F404600F0C8F9002806D023462A46F2
:1049100031464046009700F0A1FBBDE8F8832DE941
:10492000F041044690F870001F4615460E4630B11F
:10493000012809D002280CD0032815D10FE0E16D21
:1049400020468847284408E0E16D20468847301A11
:1049500009E0E16D20468847281A85B204E0E16D40
:1049600020468847304486B22846A4F86460A4F8FC
:10497000660039460025204600F04CFD010003D0BA
:10498000204600F077FC85B22846BDE8F08138B5B6
:104990000024009400F002F838BD00003FB581B05B
:1049A000044690F88C00089900283AD0BDF8100011
:1049B000002836D0012811D9022902D0032907D0B6
:1049C0000CE0BDF80820101A401CADF8080005E006
:1049D000BDF80C20101A401CADF80C0011F00105B8
:1049E00021D0B4F84810BDF80800814219D8B4F8B5
:1049F0004A10814215D9B4F84E30B4F84C2004A9BD
:104A00000DF10C0000F07AFA00280AD00095206B16
:104A1000BDF81030BDF80C208568BDF808102046A0
:104A2000A84705B030BDB4F84C10BDF80C00814269
:104A3000F7D8B4F84E108142F3D9B4F84A30B4F83C
:104A4000482004A902A8DDE708B5B0F84C3093422D
:104A500010D8B0F84E3093420CD9B0F848308B42A1
:104A600008D8B0F84A308B4204D9002300930123C0
:104A7000FFF794FF08BD2DE9FF4F83B01F46DDE926
:104A800010A402EB0A06B0B2CD19009090468946F8
:104A9000ABB2039800F000F900285CD009EB0400E9
:104AA0001FFA80FB08EB040081B2281B401E85B270
:104AB000301B401E80B2CDE9010102200A46009061
:104AC000234659460398FFF70AFF01200090DDE9CD
:104AD000022023462946FFF702FF042000902346C8
:104AE0005946019A0398FFF7FAFE082000902346E2
:104AF0002946019A0398FFF7F2FE0BF101011FFA14
:104B000081FB0299381B491C001B80B289B20291BB
:104B1000032811D3801E86B2601C85B233464246FC
:104B2000594600950398FFF798FE3346009559467D
:104B3000019A0398FFF791FEAAEB0400001B80B2D4
:104B4000032808D3801E80B20090DDE902203B4696
:104B50004946FFF782FE07B0BDE8F08F2DE9FF4F11
:104B600083B01C46DDE9106502EB060A1FFA8AF0E5
:104B700001EB04090090174688461FFA89F3039851
:104B800000F08AF8002867D008EB05001FFA80FBC8
:104B9000781981B2A9EB0500401E80B2CDE9011061
:104BA000AAEB0500401E1FFA80F902200A46009079
:104BB0002B4659460398FFF772FE01200090DDE96D
:104BC00002102B46019AFFF76AFE042000902B4644
:104BD0004A4659460398FFF762FE08200090DDE937
:104BE00002102B464A46FFF75AFE601B711B401B02
:104BF000491B8DB20BF101011FFA81FA019980B2B4
:104C0000491C1FFA81FB032810D3801E80B2814605
:104C100003463A465146761E0398FFF7B8FEB81988
:104C200082B24B4651460398FFF7B1FE032D13D3D2
:104C3000AD1EADB22B465A464146641E039800F0A5
:104C400017F808EB040081B2039807B02B465A46C8
:104C5000BDE8F04F00F00CB807B0BDE8F08F0000E1
:104C600030B4024C446030BC00F0A2BA4D5700088A
:104C700038B501240094FFF791FE38BD10B5044605
:104C800090F8930010B12046FFF7DEFD2046BDE806
:104C90001040002100F040B870B50D461E46044695
:104CA000B0F84E10B0F84C00049B00F010FC002847
:104CB00009D0B4F84A10B4F8480033462A46BDE893
:104CC000704000F004BC70BD70B5044600F08FFC6D
:104CD00094F8390094F838100844C5B22068407C34
:104CE000A84204D8204600F0F6FC002070BD94F8DD
:104CF000930010B12046FFF7A7FD2946204600F09B
:104D00000BF8012070BD10B5044600F070FC204681
:104D1000BDE8104000F0DFBC10B5044680F8391043
:104D2000006B016820468847206B41682046BDE83B
:104D30001040084710B50446806D884209D004F140
:104D40007400A16500F01EFC2046BDE8104000F094
:104D500059B810BD80F87010704780F86D1070471A
:104D60000149C16570470000275200080021A0F8E2
:104D70005010A0F854104FF6FF71A0F85210A0F890
:104D80005610016B4968084770B504460025049821
:104D9000A565E362616384F8382084F8395084F8AB
:104DA0006D5084F89150012184F8921084F893108A
:104DB00020630168204688472046FFF7D7FF20463A
:104DC000FFF7CEFF84F8705070BD00007CB50C4634
:104DD000009313460546084A084900F08CFC01A8D8
:104DE00000F0CAFB0146064B00949DF804202846BB
:104DF000FFF7CAFF7CBD0000B1580008D959000870
:104E0000E954000810B5816D00291AD090F981305D
:104E100080F88E3090F9822080F88F2090F88D10E5
:104E200000290ED001290DD090F97E4090F9801014
:104E30000C449C4201DD80F88E408A4201DD80F8FE
:104E40008F1010BD90F983108B4201DA80F88E101C
:104E500090F98410F1E72BB1012B05D0022B06D07D
:104E6000104402E0084400E0801A80B27047401A03
:104E7000FBE72BB1012B05D0022B06D0401A02E034
:104E8000104400E0084480B27047801AFBE738B550
:104E90000446B0F856000090B4F85230B4F85420EC
:104EA000B4F850102046FFF7F7FE18B3012084F83D
:104EB0008C00B4F84810B4F85000814201D2A4F834
:104EC0004800B4F84A10B4F85200814201D9A4F85D
:104ED0004A00B4F84C10B4F85400814201D2A4F84E
:104EE0004C00B4F84E10B4F85600814201D9A4F831
:104EF0004E0038BD002084F88C0038BD30B50488E1
:104F00000D882544ADB2AC4205D99C4202D25D1E4B
:104F1000ADB200E014469C4201D2954201D8002077
:104F200030BD944200D214469D4200D91D460480F3
:104F3000281B0880012030BD2DE9FF4FC3F101007F
:104F400083B006B258429146DDF840A040008B463F
:104F500001271C46CDE9009A00250FFA80F85B4630
:104F60002246294615E0002E08DB08F102000FFA60
:104F700080F8641E06EB0800A4B206B26D1CBF1CCC
:104F80003FB2CDE9009AADB2F01906B25B462246B7
:104F90002946039800F005F8A542E4D307B0BDE820
:104FA000F08F2DE9FF4F83B00E46DDE9108703EB4C
:104FB000060002901546A8EB0600019003EB0500E1
:104FC0001C46F907A8EB050B00900DD002981FFABC
:104FD0008BF281B20398FFF737FD019882B20098F7
:104FE00081B20398FFF730FDB907A4EB060AA4EBE2
:104FF00005090DD51FFA8BF21FFA8AF10398FFF706
:1050000023FD01981FFA89F182B20398FFF71CFD76
:1050100008EB0504390708EB06050BD50298A2B288
:1050200081B20398FFF710FD0098AAB281B20398ED
:10503000FFF70AFD78070ED5A2B21FFA8AF103988E
:10504000FFF702FD039807B0AAB21FFA89F1BDE885
:10505000F04FFFF7F9BC07B0BDE8F08F2DE9FF4F27
:10506000C3F1010083B006B258429146DDF840A07A
:1050700040008B4601271C46CDE9009A00250FFA17
:1050800080F85B462246294615E0002E08DB08F131
:1050900002000FFA80F8641E06EB0800A4B206B204
:1050A0006D1CBF1C3FB2CDE9009AADB2F01906B23B
:1050B0005B4622462946039800F005F8A542E4D352
:1050C00007B0BDE8F08F2DE9FF4F83B0164610986A
:1050D0000F46A0EB060B03EB070001901098DDF8DC
:1050E0004490A0EB070098465FEAC97103EB060AFB
:1050F00002F1010507F1010400900FD00198ABB255
:1051000081B21FFA8BF20398FFF7B2FD0098A3B2A9
:1051100082B21FFA8AF10398FFF7AAFD5FEA89714C
:10512000A8EB0707A8EB06060DD5ABB21FFA8BF26A
:10513000B9B20398FFF79CFD0098A3B282B2B1B256
:105140000398FFF795FD5FEA09700DD50198ABB2A2
:1051500081B2109A0398FFF78BFDA3B21FFA8AF170
:10516000109A0398FFF784FD5FEA49700ED5ABB241
:10517000B9B2109A0398FFF77BFD109A039807B015
:10518000A3B2B1B2BDE8F04FFFF772BD07B0BDE802
:10519000F08F38B5C58F049C0094521BC46A92B23C
:1051A000A04738BD38B5049C0094FFF7F2FF38BD26
:1051B0002DE9F0471C4691468846064600F0E1FC82
:1051C00000254FF6FF7772682178304690470346F6
:1051D000B84225D0641CA3F57F40FE38F3D04A4680
:1051E00041463046FFF79BFB96F8701031B101291C
:1051F00007D0022908D003290FD10AE008EB0001EB
:1052000004E009EB000106E0A8EB00011FFA81F8B9
:1052100003E0A9EB00011FFA81F9284485B2D2E727
:105220002846BDE8F0870020704710B50C4600F016
:1052300006F80122641EA240801A40B210BD30B5AB
:105240000568047B2A78E2406318DBB2082B09D397
:105250006D1C05602D78C4F10804A5401543083B7A
:10526000EAB2DBB201248C40641E14400373204672
:1052700030BD00002DE9F843054600F1600400F060
:105280000CF915F96B6F2046E97BFFF7CEFF8146DD
:10529000297C2046FFF7C9FF0746697C20466B3D05
:1052A000FFF7C3FF804694F90A00002857DDF01984
:1052B000404247B2237CA0883A464946FFF7CBFDDF
:1052C000A080237C3A46E0884946FFF7D2FDE08083
:1052D000A188277C02460B4637B1012F0AD0022F46
:1052E00040D0032F0FD146E094F90A7030443B447C
:1052F0009BB207E0891B491C94F90A705B1C89B2B8
:105300009BB2384480B200902846FFF7C5FC30B30A
:105310000020207284F8090095F876102046FFF7E7
:105320008EFF814695F877102046FFF788FF0746E5
:1053300000224946284600F027F80122394628462F
:1053400000F022F801212046FFF779FF0028EFD175
:1053500094F90900B042DFDBA07B85F8920040465B
:10536000BDE8F88394F90A705B1CC91B491C89B21B
:105370009BB2921B04E094F90A7033449BB2D21B97
:10538000521C92B2401CBDE72DE9F74F84B00D4688
:10539000049C94F8687094F869806034A07AC01B0B
:1053A000C6B20196B54200D201954FFA88F279B2A1
:1053B000A088B4F806B0237C92468946FFF74BFDDF
:1053C0000290237C524649465846FFF752FD02465A
:1053D000069808B1A17B02E0607B50B9E17B04989C
:1053E00080F89210207C0090DDE901310498FFF7ED
:1053F000D5FAB54207D3A81BC5B208F101000027B2
:1054000000F0FF08CAE77819207284F8098007B015
:10541000BDE8F08F70B50D460146806D1730FF2D49
:1054200010D8612D02D3B1F8881003E0412D02D3CA
:10543000B1F886100844417819B30278AA42F9D12C
:10544000801C70BDB1F88A100C1826460021304629
:1054500000F019F804440221304600F014F8361D1B
:10546000A842F3D34FF6FF72207802EA0021607859
:10547000084306D0A84201D1E01C70BDA0780444C6
:10548000F2E7002070BD08444FF6FF7201784078C3
:1054900002EA0121084480B2704730B5054600F1A8
:1054A000600401660020207315F8781F2046FFF77E
:1054B000C6FEA07269782046FFF7C1FEE072A87EA2
:1054C000A07310B10020E07330BD0120FBE78A42D9
:1054D00005D2834201D89A4203D901207047834202
:1054E000F9D8002070470000F0B502F0070601244B
:1054F000B440002590F892E0E7B2DDF814C02C46E5
:10550000BEF1010F01D83D4600D03C46076822F0AD
:105510000702BCF1000F3F7C07FB02F7BAB2476BF2
:105520003A44114409D108785B1E284360401B04AB
:1055300001F8010B1B0CF6D1F0BD0A78761C2A434A
:105540006240A3F101030A7016F007069BB206D071
:105550006A06150E6206140E002BEED1F0BD428FC6
:10556000114490F89220012A03D800BF4FF00105A2
:10557000F2D04FF00104EFE70821017000487047B6
:105580004C1B002070B50546087828704878687074
:105590008878A870C878E8700879287148796871A7
:1055A00088790C46A871E079E871207A2872607ACF
:1055B0006872A07AA872E07AE872207B2873607B18
:1055C0006873A07BA873E07BE873207C28741121AA
:1055D0002046FFF758FF688213212046FFF753FF4C
:1055E000A88215212046FFF74EFFE88270BD2DE905
:1055F000F843064690F8387090F839500068002457
:105600004FF6FF7890F81190316830462A460B7CAF
:10561000716B04FB03FC1FFA8CFC08EACC0C6144A0
:105620000091002100F040F8641C6D1CE4B2EDB262
:10563000BC4201D24D45E7D3BDE8F883F0B590F800
:1056400038204FF6FF75036805EAC2018187197C8F
:1056500005EAC101418790F8394005EAC401C187D4
:105660005E7CA718B74201D9321B92B205EAC2028A
:1056700020F8401F11444180998A8180D98AC180D5
:10568000F0BDFFF7DBBF0021A0F84810B0F84410D0
:10569000A0F84A10B0F84010A0F84C10B0F8421032
:1056A000A0F84E10FFF7F3BB1CB58DF805108DF870
:1056B0000620049C8DF804300094012284686B4617
:1056C0000F21A0471CBD30B484680023A44630BC21
:1056D0001A460A21604730B484680023A44630BCCF
:1056E0001A461021604730B484680023A4460A4655
:1056F00030BC0B2160472DE9F04115460E460446AB
:10570000069F00F009F86761A660C4E903532046CC
:10571000BDE8F04100F012B8002140F8081B064A2D
:10572000026042608260C260C17681770161FF21C0
:10573000017780F820107047DD5A000830B4846883
:105740000023A44630BC1A4609216047080001D056
:105750000A2801D14FF6FF70704730B40469002366
:10576000A44630BC1A461921604713B501220469CA
:1057700001AB1721A0471CBD30B404690023A44627
:1057800030BC1A461821604738B5184818290DD082
:1057900004DC142907D0172923D10AE0192916D0CF
:1057A00020291ED11FE0FDF76DFB1CE000210170D8
:1057B00019E00F4C08E000BF017813F8015B655455
:1057C000491C521E0170D2B2002AF5D10BE04FF4F1
:1057D0007A7100910378064A78210648FCF7C8F9E7
:1057E00008B1002038BD012038BD00009000002025
:1057F000CC1A00201401002030B4C4680023A44651
:1058000030BC1A461921604730B4C4680023A4464E
:105810000A4630BC1621604730B4C4680023A44651
:105820000A4630BC1521604730B4C4681346A4460C
:105830000A4630BC17216047F8B50C464FEA000510
:1058400014F8011B182924D00EDC152919D01629AB
:1058500017D0172923D120788DF800006A4601213E
:105860002846FFF7E1FF0AE0192912D0FE2916D1D8
:1058700022788DF800202921284600F066F9641C62
:10588000DEE722788DF80020EE6800232846B04736
:10589000F5E70023EE681A462846B047D0E7F8BD82
:1058A00030B4C4680023A44630BC1A4618216047AF
:1058B0002DE9F041DFF8B08014460646A1F114024C
:1058C000002798F800001D46062A4AD2DFE802F0B9
:1058D0002F03161B3E4310B13046FFF73EFF304604
:1058E000FFF74AFF00213046FFF73FFF21463046D1
:1058F000FFF73BFF012088F8000029E021463046F1
:10590000FFF733FF24E050B13046FFF726FF06E0F3
:105910001821304600F01FF9183CE4B21835182C55
:105920002A46F5D82146304600F015F90EE096F8E3
:105930002400FF2802D1782086F8240037692B46FE
:1059400022463046BC46BDE8F041604788F800700A
:105950000120BDE8F0810028F8D03046FFF7FDFEB9
:10596000F4E70020F5E700009100002070B5002367
:10597000456904461A462821A8470023E5681A46C7
:1059800014212046A84701224B21204600F0DDF8D3
:10599000206829210279204600F0D7F800224B2107
:1059A000204600F0D2F8206829210279204600F034
:1059B000CCF801224B21204600F0C7F820682921AD
:1059C00042792046BDE8704000F0BFB80160897C94
:1059D00080F822107047000070B50C46054600F0B4
:1059E00019F888B9092C0BD00A2C01D0002070BD01
:1059F0002846FFF7BBFF05492846FFF71DFF03E0D8
:105A000003492846FFF7E2FF012070BD52BA0008A3
:105A100054BB00082DE9F0411E46144605460B29EB
:105A200008D00D290ED00E291ED00F2927D0002016
:105A3000BDE8F0811AB12849FFF7FEFE4AE0264989
:105A4000491FF9E74AB124490C31FFF7F5FE2868F0
:105A500090F8130085F822003CE01F49491DFFF72C
:105A6000EBFE2868807CF5E7FFF71AFF81212846C6
:105A7000FFF7D2FE21462846FFF7C6FE27E0FFF7D4
:105A80000FFF707995F8221001EBC000C7B24021DA
:105A90002846FFF7C1FE102040EA17112846FFF7FD
:105AA000BBFE07F00F012846FFF7AEFEB07940F0CD
:105AB000B0012846FFF7A8FE30793268C006010E13
:105AC0002846FFF7B1FE641E14F0FF04F4D1284607
:105AD000FFF792FE0120ABE731BA000800207047C3
